:020000040800F2
:1000000000040020B9020008BB020008BB0200087F
:10001000BB020008BB020008BB020008BB020008CC
:10002000BB020008BB020008BB020008F137000851
:10003000BB020008BB020008BB020008BB020008AC
:10004000BB020008BB020008BB020008BB0200089C
:10005000BB020008BB020008BB020008BB0200088C
:10006000BB020008BB020008BB020008BB0200087C
:10007000BB020008BB020008BB020008BB0200086C
:10008000BB020008BB020008BB020008BB0200085C
:10009000BB020008BB020008BB020008BB0200084C
:1000A000BB020008BB020008BB020008BB0200083C
:1000B000D18C0008BB020008BB020008BB0200088C
:1000C000BB020008BB020008BB020008BB0200081C
:1000D000BB020008BB020008318B0008BB0200080D
:1000E000BB020008BB020008BB020008BB020008FC
:1000F000BB020008BB020008BB020008BB020008EC
:10010000BB020008BB020008BB020008BB020008DB
:10011000BB020008BB020008BB020008BB020008CB
:10012000BB020008BB020008BB020008BB020008BB
:10013000BB020008BB020008BB020008BB020008AB
:10014000BB020008BB020008BB020008BB0200089B
:10015000BB020008BB020008BB020008BB0200088B
:10016000BB020008BB020008BB020008BB0200087B
:10017000BB020008BB020008BB020008BB0200086B
:10018000BB020008BB020008BB020008BB0200085B
:10019000BB020008BB020008BB020008BB0200084B
:1001A000BB020008BB020008BB020008BB0200083B
:1001B000BB020008BB020008BB020008BB0200082B
:1001C000BB020008BB020008BB020008BB0200081B
:1001D000BB020008BB020008BB020008BB0200080B
:1001E00072B6274880F30888264880F30988264895
:1001F0004EF60851CEF200010860022080F3148808
:10020000BFF36F8F08F00CFE08F05AFB4FF055302B
:100210001E491B4A91423CBF41F8040BFAE71C49B6
:10022000184A91423CBF41F8040BFAE719491A4AAF
:100230001A4B9A423EBF51F8040B42F8040BF8E700
:1002400000201749174A91423CBF41F8040BFAE7D6
:1002500008F09EFD08F0DCFD134C144DAC4203DAAF
:1002600054F8041B8847F9E703F0CAF8104C114D05
:10027000AC4203DA54F8041B8847F9E708F0C0BD24
:1002800000040020000800200000000800000020FA
:100290000004002088B6000800080020DC080020C8
:1002A000E0080020E01C0020E0010008E001000858
:1002B000E0010008E001000892E700F000F8FEE726
:1002C0002DE9F04FC1F80CD0C3689D46BDE8F08F12
:1002D000002383F311882846A047002003F098FAF2
:1002E000FEE703F0EDFA00DFFEE70000844641EA96
:1002F000000313F003036DD1403A41D351F8043B9E
:1003000040F8043B51F8043B40F8043B51F8043BEF
:1003100040F8043B51F8043B40F8043B51F8043BDF
:1003200040F8043B51F8043B40F8043B51F8043BCF
:1003300040F8043B51F8043B40F8043B51F8043BBF
:1003400040F8043B51F8043B40F8043B51F8043BAF
:1003500040F8043B51F8043B40F8043B51F8043B9F
:1003600040F8043B51F8043B40F8043B51F8043B8F
:1003700040F8043B51F8043B40F8043B403ABDD2FE
:10038000303211D351F8043B40F8043B51F8043BA0
:1003900040F8043B51F8043B40F8043B51F8043B5F
:1003A00040F8043B103AEDD20C3205D351F8043B2F
:1003B00040F8043B043AF9D2043208D0D2071CBFFB
:1003C00011F8013B00F8013B01D30B880380604624
:1003D000704700BF082A13D38B078DD010F003039A
:1003E0008AD0C3F10403D21ADB071CBF11F8013B0A
:1003F00000F8013B80D331F8023B20F8023B7BE759
:10040000043AD9D3013A11F8013B00F8013BF9D283
:100410000B7803704B7843708B788370604670471D
:100420002DE9F04F0022214C02254FF007084FF034
:100430000F0E4FF0010C03270FE0216A21EA03039E
:1004400043EA0903236223680AEA030A4AEA050326
:100450002360400828D0AD000132510002F00703AC
:100460009B0007FA01F110F0010F08FA03F90CFAEA
:1004700002F60EFA03F36FEA010AEAD0D4F804B0E8
:100480002BEA06066660A66826EA0106A660E6680C
:10049000072A26EA0101E160CFD9616A21EA030354
:1004A00043EA09036362CEE7BDE8F08F0000024033
:1004B000202383F31188094B9A6822B1002000237E
:1004C00083F311887047064A92699A60916BD960EC
:1004D00093630120002383F3118870472C080020C8
:1004E000B009002000000000000000000000000033
:1004F000202383F31188044B9A690023506B5363C4
:1005000083F31188704700BFB0090020000000008D
:100510004FF08043091A5B6A181A884201D2002002
:1005200070470449044A054B0548086001201070D3
:1005300018707047F413002098140020F81300205E
:10054000089000080000000000000000000000000B
:1005500030B4202383F311880B4CD4E90035494291
:10056000281A0840821A9A4207D3954205D362603E
:10057000002383F3118830BC70470020002383F3ED
:10058000118830BC704700BF480B002000000000FD
:10059000024AD36843F0C003D36070470044004070
:1005A0000B4B0C4AD91D21F00701CB1AC3F178037C
:1005B00010B4002002F10C04DB084B6051600860AD
:1005C000C2E90344106010BC90605061704700BFE6
:1005D00018140020FC1300200000000000000000A0
:1005E000054B00220421C3E90033C3E90411DA609A
:1005F0009A619A60704700BF100800200000000058
:10060000FFF7EEBF00000000000000000000000047
:100610000020704700000000000000000000000003
:10062000034B00210422C3E901221960D9607047FD
:10063000740800200000000000000000000000001E
:1006400003681A1D02601B68184700BF0000000005
:10065000016803460A46081D10B4186052F8084B9A
:1006600048681A60234610BC184700BF000000000D
:10067000026830B40346111D50681960146891680F
:1006800002F10C051D60234630BC18470000000035
:10069000036870B404461A1DD3E9010122601D6885
:1006A000DA6803F1100626602B4670BC184700BFBD
:1006B000036870B404461D1DD3E90101DA682560A2
:1006C0001D6803F11406AC461B69266070BC6047C8
:1006D00030B40F4B0F4A1A6002F1080503F12004F1
:1006E000C3E9022203F13000002203F14001C3E913
:1006F00008445D60C3E90C0030BCC3E91011C3E9D4
:1007000006221A611A759A629A639A64704700BF4A
:100710008C0800205C0900200000000000000000A0
:1007200030B40F4B0F4A1A6002F1100503F1200498
:10073000C3E9022203F13000002203F14001C3E9C2
:1007400008445D60C3E90C0030BCC3E91011C3E983
:1007500006221A611A759A629A639A64704700BFFA
:100760008C0800205C090020000000000000000050
:1007700030B40A4B0A4A1A6002F1100503F118045A
:10078000002103F12000C3E906445D60C3E90222B1
:1007900030BCC3E908001961197570474C08002086
:1007A000300C0020000000000000000000000000ED
:1007B000FFF7DEBF000000000000000000000000A6
:1007C000FFF7D6BF0000000000000000000000009E
:1007D000024B0022C3E900339A607047600C00208E
:1007E000024B0122C3E900339A6070477C0D002060
:1007F000704700BF00000000000000000000000083
:10080000024B0022C3E900339A6070477C0D002040
:10081000044B00224FF4A4700421C3E901011A60C3
:10082000DA607047400C002000000000000000006B
:100830000B4B0C4AD91D21F00701CB1AC3F5CC6331
:1008400010B4002002F10C04DB084B60516008601A
:10085000C2E90344106010BC90605061704700BF53
:10086000880D0020B00B00200000000000000000F8
:1008700008B5FFF73DFE024A024B12601B6008BD3F
:10088000080800200C080020000000000000000004
:10089000FFF72EBE00000000000000000000000076
:1008A000FFF7F6BF0000000000000000000000009D
:1008B000FFF7EEBF00000000000000000000000095
:1008C000FFF7E6BF0000000000000000000000008D
:1008D000FFF7DEBF00000000000000000000000085
:1008E0000649074A074B09600020C2E90022C3E914
:1008F0000033496090609860704700BF0008002096
:100900002C0800203C08002000000000000000002F
:10091000044A054B12600021C3E90033526099601C
:10092000704700BF000800202C08002000000000D5
:10093000FFF7EEBF00000000000000000000000014
:10094000024B0022C3E900339A6070472C08002054
:10095000044A054B12600021C2E90121C3E90033BA
:10096000996070472C0800203C080020000000001F
:10097000FFF7E6BF000000000000000000000000DC
:10098000024B0022C3E900339A607047700D0020CB
:10099000FFF7F6BF000000000000000000000000AC
:1009A000FFF7EEBF000000000000000000000000A4
:1009B000FFF7E6BF0000000000000000000000009C
:1009C000024B0122C3E900339A607047700D00208A
:1009D000014B00221A607047C8140020000000007C
:1009E00008B10020704710B4044A054C054B0120A3
:1009F0002070107010BC1960704700BFF813002001
:100A000098140020F41300200000000000000000F3
:100A1000014B03221A6070479C1400200000000064
:100A2000044B01214FF080421960516A536A994288
:100A3000FCD070479C140020000000000000000063
:100A4000074B01221A60202383F3118862B672B625
:100A500083F3118862B6002383F3118862B670476E
:100A60009C140020000000000000000000000000B6
:100A70000B4B30B403F114002025002453F8042B51
:100A80004AB185F3118892F8211041F0040182F8EF
:100A9000211084F311888342F0D130BC704700BF2D
:100AA000B41400200000000000000000000000005E
:100AB00010B3F0B585B06C46104F2246A7FB00136B
:100AC000DB0803EB8301A0EB410106463031C9B2DC
:100AD000092E1546184602F8011BEFD8A24209D983
:100AE000074E01E015F8011D30680368DB68984780
:100AF000AC42F7D105B0F0BD704700BFCDCCCCCC37
:100B0000F0130020000000000000000000000000C2
:100B100028B9044B186803683021DB681847FFF7D1
:100B2000C7BF00BFF013002000000000000000005D
:100B3000202383F31188064A064913688B4202D2A8
:100B4000591C18701160002383F31188704700BF8F
:100B5000B0140020B01400200000000000000000CD
:100B600008B548694130C0B2FFF7E2FF002008BD78
:100B700008B53020FFF7DCFF45F2AA5008BD00BFE2
:100B800010B50446C0B2FFF7D3FF204610BD00BF2A
:100B900038B50D460446C0B2FFF7CAFFE8B2FFF70A
:100BA000C7FF204638BD00BF000000000000000065
:100BB00070B50E460446C0B21546FFF7B9FFF0B255
:100BC000FFF7B6FFE8B2FFF7B3FF204670BD00BFE6
:100BD000F8B50F460446C0B216461D46FFF7A8FFFB
:100BE000F8B2FFF7A5FFF0B2FFF7A2FFE8B2FFF7F8
:100BF0009FFF2046F8BD00BF00000000000000007D
:100C000008B55A20FFF794FF024B01221A704AF6EA
:100C1000552008BD6C0B0020000000000000000003
:100C20004320FFF785BF00BF000000000000000068
:100C30004220FFF77DBF00BF000000000000000061
:100C40004120FFF775BF00BF00000000000000005A
:100C50000078FFF76DBF00BF00000000000000003B
:100C6000FFF7F6BF000000000000000000000000D9
:100C700070B5017889B10A4D044628680368DB68BD
:100C8000984714F8011F0029F7D12868054903681F
:100C9000BDE870405B6802221847014DF5E700BFD0
:100CA000F01300201C90000800000000000000006D
:100CB000017859B138B5064D044628680368DB68E9
:100CC000984714F8011F0029F7D138BD704700BFBD
:100CD000F0130020000000000000000000000000F1
:100CE000F0B40D4E0D4F35683B4605E013F8014B4F
:100CF00010F8012B944206D19D42F7D8007810B924
:100D00003760F0BC7047064C064A074B0120207044
:100D10001070F0BC19607047B0140020A0140020BF
:100D200098140020F8130020F413002000000000A5
:100D30000F4AF8B501260F4F16600725002425FA43
:100D400004F313F0010F06FA04F220460DD057F811
:100D5000243025EA020501349847002DEFD1BDE883
:100D6000F84005490548FFF7BBBF0134E7E700BF7E
:100D70009C140020D8AE0008209000083490000891
:100D800070B5084D4C24286803682D21DB6898470E
:100D9000013CF8D1286804490368BDE870405B68ED
:100DA00002221847F01300201C90000800000000E9
:100DB000202383F311880D4B5B6813F4006302D189
:100DC00083F311887047EFF30983203B4FF0807263
:100DD000DA6183F30988064A116892698968926822
:100DE00091428CBF034A044A9A61704700ED00E0CB
:100DF000B0090020E3020008E6020008000000003D
:100E0000084A10B4D2E900344942201A08409842F6
:100E100004D3844202D310BC50607047002010BC41
:100E2000704700BF480B00200000000000000000D9
:100E300008B52022034682F31188006828B10268B1
:100E40001A60002383F3118808BDDA68002AF8D0FD
:100E5000D3E901019047002383F3118808BD00BF47
:100E60002DE9F0413B4E3C4B3C4C012232602025A9
:100E70000422002085F3118821681960236080F323
:100E800011886168013A0B44F4D10223DFF8CC8069
:100E9000334F336004254046FFF7CAFF003818BFC0
:100EA00001203946FFF79CFD002850D1013DF2D1C9
:100EB00003232A483360FFF7BBFFB0FA80F02949CB
:100EC0004009FFF78DFD002841D1234B042203F197
:100ED0001007326020201A4680F31188216843F8F9
:100EE000041B226085F31188BB42F4D10523DFF88F
:100EF0006C801B4F336004254046FFF799FF003894
:100F000018BF01203946FFF76BFD00BB013DF3D14F
:100F1000062312483360FFF78BFFB0FA80F01149C7
:100F20004009FFF75DFD90B907210F4A0B4831607A
:100F30000423C4E901332560E260FFF779FFB0FACA
:100F400080F0BDE8F04109494009FFF749BDBDE81F
:100F5000F08100BF9C140020600D00207408002068
:100F600038900008449000081106000854900008CA
:100F7000202383F31188044B9B695A6B10435863F9
:100F8000002383F311887047B0090020000000009F
:100F9000202383F31188034601E08B4207D01A46D1
:100FA0001B688342F9D1002383F3118870471B68C3
:100FB0001360002383F31188704700BF0000000016
:100FC0002DE9F043364CDFF8E880246002228BB034
:100FD000C8F80020202787F31188324920688B69E0
:100FE00005900DF114090120002506934FF0FF3301
:100FF000CDE908530790C4F8009085F3118887F372
:101000001188886921680091CDE90102CDE9035377
:10101000C4F800D085F3118887F31188206822492D
:10102000001B18BF0120FFF7DBFC20B185F31188FE
:101030000BB0BDE8F083064680F3118803234946D0
:101040002046C8F80030FFF7A3FF87F31188206817
:101050001549001B18BF0120FFF7C2FC054620B14F
:1010600086F311880BB0BDE8F08380F31188042368
:1010700069462046C8F80030FFF78AFF87F31188D9
:1010800020680A49001BB0FA80F04009FFF7A8FC6D
:101090000028CBD180F311880BB0BDE8F08300BFEE
:1010A00008080020B0090020709000087C9000081B
:1010B0009C14002000000000000000000000000060
:1010C0000E4A0F4B52685B6F816830B4D31AD0E977
:1010D0000445C2685B1A01324168C260E4180268C4
:1010E000836045F100058B4288BF43609342C0E9AD
:1010F000044538BF036030BC704700BF001000E0FB
:10110000B009002000000000000000000000000006
:10111000014B5B6883607047001000E00000000036
:10112000836841681A4AF0B4D0E90475022643F88E
:101130002C1C0124002143E91B750568C06803F8D5
:10114000271C03F8286C03F8264C43F8382C546904
:1011500043F8400C43F80C0C43F8305CA3F16C00EE
:101160000C4D43F83C0C43E90511A3F1480043F84A
:101170004C5CA3F11C01A3F1200543F8344C206121
:10118000506143E9085143F8181CF0BC704700BF98
:10119000B0090020D102000800000000000000009B
:1011A000202383F3118890F82030072B0DD8DFE837
:1011B00003F0270C0C2308040C08426A93680133DF
:1011C0009360D0E9003213605A6010B400224FF0EF
:1011D000FF3481680C4B446280F820201B689A68B9
:1011E0008A42FBD25A680021C0E900321060586080
:1011F00081F3118810BC7047436A00221A60E4E74B
:10120000002383F311887047B0090020000000001C
:1012100000228168064B80F820201B689A688A4269
:10122000FBD25A68C0E9003210605860704700BFB6
:10123000B0090020000000000000000000000000D5
:1012400003460068834206D002681A60002153609A
:101250004162FFF7DDBF70470000000000000000A2
:101260000F4B1A7DCAB970B5D3E900611A698C1B9E
:10127000B2EBA40F0ED09D682C1D9C60A14228608B
:1012800002F10102074898BF9E601A61FFF7D8FF7C
:10129000002070BD4FF0FF3070BD6FF0010070474F
:1012A0004C0800206C080020000000000000000036
:1012B00038B50F4B1A7DBAB9D3E9004519692A1B15
:1012C000B1EBA20F0DD0DA68043A944288BF2A1F0E
:1012D000DA600131106007481961FFF7B1FF0020A3
:1012E00038BD4FF0FF3038BD6FF0010038BD00BF92
:1012F0004C0800206C0800200000000000000000E6
:1013000038B50F4B1A7DBAB9196991B1DA685C68C2
:1013100015680432A242DA6001F1FF31056028BF8E
:101320001A68084828BFDA601961FFF789FF0020B2
:1013300038BD4FF0FF3038BD6FF0010038BD00BF41
:101340004C0800206408002000000000000000009D
:1013500038B50446006884420AD06FF0010503687E
:1013600023605C604562FFF753FF2068A042F6D11E
:1013700038BD00BF000000000000000000000000B9
:10138000054B1868984206D002681A600021536025
:101390004162FFF73DBF70470008002000000000D9
:1013A000426B90F8203011430A2B416309D00B2B7C
:1013B00000D07047436A8B43FBD100234362FFF7A1
:1013C00027BF436A1942F8D1704700BF00000000F0
:1013D00070B50468A0420FD006460D46E3682B4363
:1013E000E36015B123691D4203D0D4E90101FFF781
:1013F000D7FF2468A642F1D170BD00BF00000000F5
:10140000114B0146006830B49D69CB68AB638842DC
:1014100016D0EC6B4BB11A68934203D09268944299
:1014200038BF1446DB68002BF5D1826B0368AC60D3
:101430000B6030BC5960C1E902028163FFF7E8BE6E
:10144000002330BC83607047B0090020000000001A
:1014500083680133002B836000DD704703681A68DE
:1014600002600021506018465962FFF7D1BE00BFEC
:1014700038B50B6A002B0C464B6A2FDB190714D4C6
:101480009A0623D4C269A26000F11401E160D4601D
:10149000C46103F0120343F0010363623030FFF7CD
:1014A000D7FF236A0133236238BDD4E90025016ADE
:1014B0002A6000F11403556000220125C4E90231BD
:1014C0008C600462C4E904226562E7E7026AE260B4
:1014D00000F11401A16094600462DAE703F01A03DA
:1014E0004B6201F11800BDE83840FFF7B1BF00BF03
:1014F00010B41E4AD16983B08142019011D00346D5
:10150000D0E90010016019681C3200249142486043
:10151000DC6003D09A688B6813448B6003B010BC06
:10152000704710460B6840F81C3F00248342586007
:10153000CC6016D08C689968926A0C444FF0804158
:101540009C604B6A991A8C42E8D9D31A2344012B28
:1015500098BF8C1C4FF0804322445A6303B010BCE8
:1015600070474FF08043DC60D8E700BFB00900202F
:10157000F0B41F4D2F46022957F81C4F4FF08046FC
:1015800038BF0221BC42C0E90323736A22D0AA6A91
:101590009B1AC91816D2A3688B4203D917E0246896
:1015A000C91AA3688B42FAD36368C0E90043186084
:1015B00060608160A3684FF0FF32591AA1606A62CF
:1015C000F0BC7047A2682468891AA368EAE70A4455
:1015D0007263E7E7AB62CF1800220223C5E9070078
:1015E000C0E90044816077633261F360E8E700BFDF
:1015F000B009002000000000000000000000000012
:10160000EFF30583202383F3118870470000000067
:10161000C20710B412D52A4B1968994243D0002250
:101620000968994202F10102FAD14C688C4237D024
:1016300064689C4202F1FF32FAD18ABB830714D559
:101640001F4B1C4654F81C1FA14232D000220968CF
:10165000A14202F10102FAD11B6A8B4220D05B68E1
:10166000A34202F1FF32FAD1D2B910F0040015D032
:10167000134B1A699A424FF0000004D012699A4243
:1016800000F10100FAD15A699A4204D052699A4293
:1016900000F1FF30FAD1003818BF012010BC7047AC
:1016A000012010BC70475C689C4218BF0022BFD16B
:1016B000C4E71B6AA34218BF0022D0D1D5E700BF00
:1016C000B009002000000000000000000000000041
:1016D00070B5244E01203060202585F31188FFF776
:1016E00097FF002383F3118880F001001E49C0B2E8
:1016F000FFF776F900B170BD04460220306085F333
:101700001188FFF785FF84F3118880F001001749E5
:10171000C0B2FFF765F904460028ECD1032333601B
:1017200085F311880420FFF773FF84F3118880F09C
:1017300001000F49C0B2FFF753F904460028DAD17F
:101740000423336085F311880820FFF761FF84F3D9
:10175000118880F00100BDE870400649C0B2FFF773
:101760003FB900BF9C1400208C900008A490000892
:10177000C8900008E490000800000000000000008D
:10178000FEE700BF000000000000000000000000B5
:101790000020704700000000000000000000000072
:1017A00038B54B4B4B4C4C4801251D60FFF780FA78
:1017B0002846FFF77DF92046FFF75AFA4748FFF71A
:1017C00077FA2846FFF774F92046FFF751FA4448A4
:1017D000FFF76EFA2846FFF76BF92046FFF748FA45
:1017E0004048FFF765FA2846FFF762F92046FFF701
:1017F0003FFA3D48FFF75CFA2846FFF759F92046C3
:10180000FFF736FA3948FFF753FA2846FFF750F941
:101810002046FFF72DFA3648FFF74AFA2846FFF729
:1018200047F92046FFF724FA3248FFF741FA2846E5
:10183000FFF73EF92046FFF71BFA2F48FFF738FA6B
:101840002846FFF735F92046FFF712FA2B48FFF735
:101850002FFA0820FFF72CF92046FFF709FA28484D
:10186000FFF726FA2846FFF723F92046FFF700FA8C
:101870002448FFF71DFA2846FFF71AF92046FFF71C
:10188000F7F92148FFF714FA2846FFF711F9204627
:10189000FFF7EEF91D48FFF70BFA2846FFF708F9A6
:1018A0002046FFF7E5F91A48FFF702FA2846FFF746
:1018B000FFF82046FFF7DCF91648FFF7F9F928464C
:1018C000FFF7F6F82046BDE83840FFF7D1B900BF72
:1018D0009C140020C09B0008FC9000082891000880
:1018E0005491000880910008AC910008D89100083C
:1018F00004920008309200085C9200088892000868
:10190000B4920008E09200080C9300083893000895
:10191000649300089093000800000000000000009D
:1019200038B5194B19481A4C01251D60FFF7A0F96D
:101930001848FFF7BDF92846FFF7BAF82046FFF729
:1019400097F91548FFF7B4F91448FFF791F91448CF
:10195000FFF7AEF92846FFF7ABF82046FFF788F906
:101960001048FFF7A5F90220FFF7A2F82046FFF77D
:101970007FF90D48FFF79CF90020FFF7C9F82046D2
:10198000BDE83840FFF774B99C140020BC930008F0
:10199000C09B0008F09300081C94000848940008BD
:1019A000509400087C940008A894000800000000EF
:1019B00070B5334D334C344801232B60FFF778F971
:1019C0007820FFF775F82046FFF752F902232F48D9
:1019D0002B60FFF76DF94420FFF76AF82046FFF708
:1019E00047F903232A482B60FFF762F91420FFF719
:1019F0005FF82046FFF73CF9042626482E60FFF7E3
:101A000057F90C20FFF754F82046FFF731F905236A
:101A100021482B60FFF74CF91020FFF749F82046CA
:101A2000FFF726F906231D482B60FFF741F9082030
:101A3000FFF73EF82046FFF71BF9072318482B60F5
:101A4000FFF736F93046FFF733F82046FFF710F975
:101A5000082314482B60FFF72BF91420FFF728F810
:101A60002046FFF705F909230F482B60FFF720F9FF
:101A70002820FFF71DF82046BDE87040FFF7F8B8B2
:101A80009C140020E4940008D4940008EC9400080E
:101A9000FC9400080C9500081C9500082C95000883
:101AA0003C9500084C9500085C950008000000007B
:101AB00038B5934B934C944801251D60FFF7F8F817
:101AC0002020FEF7F5FF2046FFF7D2F88F48FFF7FA
:101AD000EFF842F21070FEF7EBFF2046FFF7C8F870
:101AE0008B48FFF7E5F82020FEF7E2FF2046FFF7DE
:101AF000BFF88848FFF7DCF82020FEF7D9FF204622
:101B0000FFF7B6F88448FFF7D3F80220FEF7D0FFBE
:101B10002046FFF7ADF88148FFF7CAF80020FEF72E
:101B2000F7FF2046FFF7A4F87D48FFF7C1F8002033
:101B3000FEF7EEFF2046FFF79BF87A48FFF7B8F86C
:101B40000020FEF7E5FF2046FFF792F87648FFF702
:101B5000AFF82846FEF7ACFF2046FFF789F8734838
:101B6000FFF7A6F82846FEF7A3FF2046FFF780F808
:101B70006F48FFF79DF82846FEF79AFF2046FFF7CB
:101B800077F86C48FFF794F82846FEF791FF204657
:101B9000FFF76EF86848FFF78BF82846FEF788FFD6
:101BA0002046FFF765F86548FFF782F80020FEF74A
:101BB000AFFF2046FFF75CF86148FFF779F8284649
:101BC000FEF776FF2046FFF753F85E48FFF770F800
:101BD0000020FEF79DFF2046FFF74AF85A48FFF71E
:101BE00067F82846FEF764FF2046FFF741F857489C
:101BF000FFF75EF82846FEF75BFF2046FFF738F850
:101C00005348FFF755F82846FEF752FF2046FFF7E6
:101C10002FF85048FFF74CF82846FEF749FF2046BA
:101C2000FFF726F84C48FFF743F82846FEF740FF39
:101C30002046FFF71DF84948FFF73AF80020FEF765
:101C400067FF2046FFF714F84548FFF731F82846AC
:101C5000FEF72EFF2046FFF70BF84248FFF728F863
:101C60000020FEF755FF2046FFF702F83E48FFF739
:101C70001FF80020FEF74CFF2046FEF7F9FF3B4817
:101C8000FFF716F80020FEF743FF2046FEF7F0FFAF
:101C90003748FFF70DF80020FEF73AFF2046FEF721
:101CA000E7FF3448FFF704F8FF20FEF701FF204666
:101CB000FEF7DEFF3048FEF7FBFF8020FEF7F8FE60
:101CC0002046FEF7D5FF2D48FEF7F2FF0020FEF775
:101CD0001FFF2046FEF7CCFF2948FEF7E9FF002052
:101CE000FEF716FF2046FEF7C3FF2648FEF7E0FF8B
:101CF0000020FEF70DFF2046BDE83840FEF7B8BFD4
:101D00009C140020C09B00086C9500089895000862
:101D1000C4950008F09500081C9600084896000835
:101D200074960008A0960008CC960008F896000863
:101D300024970008509700087C970008A89700088F
:101D4000D4970008009800082C98000858980008BC
:101D500084980008B0980008DC98000808990008EA
:101D600034990008609900088C990008B899000817
:101D7000E4990008109A00083C9A0008689A000844
:101D8000949A0008C09A00080000000000000000BB
:101D900038B5194B19481A4C01251D60FEF768FF2C
:101DA0001848FEF785FF2846FEF782FE2046FEF71C
:101DB0005FFF1548FEF77CFF1448FEF759FF1448F3
:101DC000FEF776FF0620FEF773FE2046FEF750FF73
:101DD0001048FEF76DFF2846FEF76AFE2046FEF724
:101DE00047FF0D48FEF764FF2846FEF761FE2046D8
:101DF000BDE83840FEF73CBF9C140020EC9A000878
:101E0000C09B0008F09300081C940008209B000869
:101E1000509400087C940008A8940008000000007A
:101E20001C4B1D4810B501221A60FEF741FF1B48EC
:101E30001B4CFEF71DFF1B48FEF73AFF1A48FEF742
:101E400017FF1A48FEF734FF1948FEF711FF19482B
:101E5000FEF72EFF1848FEF70BFF1848FEF728FF85
:101E60000420FEF725FE2046FEF702FF1448FEF789
:101E70001FFF0820FEF71CFE2046FEF7F9FE114862
:101E8000FEF716FF0820FEF713FE2046BDE81040BF
:101E9000FEF7EEBE9C140020289B0008549B00080F
:101EA000C09B0008609B00088C9B0008989B000862
:101EB000C49B0008049C0008309C0008489C000853
:101EC000749C0008A09C00080000000000000000B6
:101ED000FFF7A6BF000000000000000000000000A7
:101EE00070B50C68A14212D00D46064602E0246887
:101EF000A5420CD008223146A01807F013F800289C
:101F0000F5D114B1636801336360204670BD0024CD
:101F1000204670BD0000000000000000000000002E
:101F2000F8B50C68A1420D460646174603D10DE0F0
:101F30002468A5420AD008223146A01806F0F2FF14
:101F40000028F5D114B104462046F8BD3846FEF706
:101F50006FFF04460028F7D008223146104407F0EE
:101F60001FF82B680122C4E9003220462C60F8BD1E
:101F700038B5202383F31188124A10689169836869
:101F80008C68A34203D2002383F3118838BD036811
:101F900013605A6001259061002280F8205081F87A
:101FA000202000E01B689A689442FBD95A68C1E976
:101FB000003211605960FEF783F9002383F3118822
:101FC00038BD00BFB0090020000000000000000084
:101FD00038B5094D0446FFF7CBFFFFF7C9FFFFF700
:101FE000C7FFFFF7C5FF2368AA690433236092F88F
:101FF00021305B07EFD538BDB0090020000000009C
:10200000154A70B496698568B4684162A5420ED8D5
:102010000021134680F820101B689A689542FBD96E
:102020005A6870BCC0E900321060586070470023E5
:1020300086F8203013461B6899688C42FBD3596898
:102040007160012433600E605E60314680F820408C
:1020500070BC9061FEF734B9B009002000000000A8
:10206000F8B50446202080F311881A4FC4F8E030F8
:1020700004F1DC03C4F8DC20C4F808117A69C4F860
:102080003C11C4F80C31144D144BC4F8FC50012120
:1020900004F5807584F82211C4F81831002604F57F
:1020A000967304F594710220A4F82001C4E94D66EA
:1020B000C4E94472C4F81C4128461561C4E94A13B6
:1020C000C4F8303131467D61FFF79AFF86F31188FD
:1020D0002846F8BDB0090020D1020008CC9C0008B9
:1020E00008B52022034682F31188006818B1002148
:1020F0001960FFF785FF002383F3118808BD00BF37
:10210000084B094E9B69094A094C30604FF4005551
:1021100080B59A612F462783FFF7E2FF3068658319
:10212000F9E700BFB0090020CC140020D49C0008BF
:10213000000C024000000000000000000000000051
:1021400008B5202383F31188064B1868984205D000
:1021500002681A6053600021FFF752FF002383F3E7
:10216000118808BD000800200000000000000000E9
:102170002DE9F041144F86B0804638460E4615468C
:10218000FEF756FE0446D0B17B68104ACDF80080B9
:10219000034402930190039605950492202383F350
:1021A00011886846FEF7BCFF022380F821300764DF
:1021B00000210446FFF724FF002383F31188204603
:1021C00006B0BDE8F08100BF400C0020610C0008A3
:1021D00008B5202282F3118882680132002A8260C9
:1021E00003DD002383F3118808BD034600680268FD
:1021F0001A6000215360FFF703FF002383F3118867
:1022000008BD00BF0000000000000000000000004A
:1022100010B5202383F31188FEF782FF00210446C6
:10222000FFF7EEFE002383F31188204610BD00BFA8
:10223000084B99691A6810B481F82000106818607A
:102240000124436082F8204010BC9A611046FEF7DA
:1022500037B800BFB00900200000000000000000F7
:102260000C4A10B52023946983F31188606B40B148
:10227000434220EA030262631840002383F311887B
:1022800010BD4FF0FF330A206362FFF7D1FF606B90
:10229000EEE700BFB00900200000000000000000D1
:1022A0000C4A10B52023946983F31188606B20B128
:1022B0000023636383F3118810BD4FF0FF33636223
:1022C0000A20FFF7B5FF0023606B636383F3118877
:1022D00010BD00BFB0090020000000000000000099
:1022E0000C4A10B52023946983F31188636B03F0C3
:1022F0000502052A05D0052363620B20FFF798FF2E
:10230000636B23F005036363002383F311880520C7
:1023100010BD00BFB0090020000000000000000058
:10232000074A10B52023946983F311880320FFF72F
:102330007FFF636A002BF9D0002383F3118810BD5F
:10234000B0090020000000000000000000000000B4
:1023500030B54B1C87B012D00C4D0D4AAB6904460A
:1023600001A8FFF705F92046FFF762FF049B13B1B0
:1023700001A8FFF7BDF8AB69586A07B030BD034D3F
:10238000FFF756FFAB69586A07B030BDB0090020AF
:10239000A111000800000000000000000000000083
:1023A000202383F31188104B99684A1E002A9A60F3
:1023B00004DB0020002383F31188704780B10B4AAF
:1023C00010B592695C685362C2E90034014622602C
:1023D00005205A60FFF7BCFF002383F3118810BD6E
:1023E00099604FF0FF30E5E7700D0020B009002044
:1023F00070B5584D584C0120A2692860202383F302
:102400001188536B33B983F311885449FEF7E8FA06
:1024100080B170BD584223EA000151631840002387
:1024200083F31188B0FA80F04C494009FEF7D8FADE
:102430000028EED1A369202282F311885A6B002A6A
:1024400067D180F3118801204449FEF7C9FA0028BA
:10245000DFD1A369202282F311885A6B01325CD04C
:1024600080F3118801203D49FEF7BAFA0028D0D147
:1024700002232B60A669202383F31188756B55B95D
:102480004FF0FF3373624FF4FA710A20FFF760FFD9
:10249000002852DB756B684225EA0003736328400D
:1024A000002383F31188B0FA80F040092B49FEF72E
:1024B00097FA0028ADD1A669202383F31188756BA4
:1024C0007DB30023736383F31188B5FA85F0400967
:1024D0002249FEF785FA054600289AD1A4692023EF
:1024E00083F31188636B013309D04FF0FF336362CC
:1024F0004FF4FA710B20FFF72BFF002825DB002398
:10250000636383F3118828461449BDE87040FEF7E1
:1025100067BA586380F3118896E7586380F311888F
:10252000A1E74FF0FF3373624FF4FA710A20FFF70F
:102530000FFF002805DB756BC3E785F311880120C9
:10254000B4E785F311880120C2E785F311880125DE
:10255000D9E700BF9C140020B0090020DC9C0008D3
:1025600010B52023044683F311888268531E002B84
:10257000836007DBE068C8B10368E360002383F38E
:10258000118810BD0846D9B10E4B9B695C62626828
:102590000520C3E9004213606360FFF7D9FE0028FD
:1025A000E8D00020002383F3118810BDA369002B1D
:1025B000F7D0D4E904019847002383F3118810BDB4
:1025C000A260DBE7B009002000000000000000006E
:1025D00008B5084B084801224FF47A711A60FFF7DA
:1025E000BFFFB0FA80F0BDE8084004494009FEF79B
:1025F000F7B900BF9C140020100800204490000888
:1026000061B1084A10B4926944680346C2E90034D3
:102610000420226010BC5A60FFF79ABE4FF0FF30D2
:10262000704700BFB009002000000000000000005B
:102630002DE9F04F85B0CDE90232C7694FF020098E
:1026400089F31188A2B3DDF80CB004460E464FF0B2
:10265000000AA2689345D4E904208CBFA5685D46B2
:10266000A2EB0008A84544D829D2A5EB08034246AE
:1026700031460193FDF73AFE06EB0801DDF80480D0
:10268000E0684246FDF732FEA268E1684346CB1897
:10269000521B6361A2600FB12046B8478AF31188CC
:1026A000ABEB050B2E4489F31188BBF1000FD0D1A1
:1026B0000398002383F3118805B0BDE8F08F2A4604
:1026C0003146FDF713FEE2686261A268521BA26008
:1026D000002DE0D102992046FFF792FF0028B8D0E4
:1026E000039BA3EB0B00002383F3118805B0BDE827
:1026F000F08F2A463146FDF7F9FD62692A4462618E
:10270000E3E700BF00000000000000000000000040
:102710003030FFF78DBF00BF000000000000000058
:1027200030304FF0FF33FFF783BF00BF00000000E1
:10273000F8B504460F461646202383F3118803E0BC
:10274000FFF75EFF002818DBA56831462046002D04
:10275000F6D06269A368511C013B6161A3601770E8
:10276000D4E904329A4224BFE3686361E36903B1A8
:102770009847002080F31188F8BD85F31188F8BDD3
:102780003030FFF7D5BF00BF0000000000000000A0
:1027900030304FF0FF32FFF7CBBF00BF000000002A
:1027A0002DE9F04F85B0CDE90232C7694FF020091D
:1027B00089F31188002A34D0DDF80CB004460E46A7
:1027C0004FF0000AA268A169934522698CBFA568F1
:1027D0005D46A2EB0108A84544D829D2A5EB080321
:1027E000424630460193FDF781FD06EB0800DDF817
:1027F0000480E1684246FDF779FDA268E16843463E
:10280000CB18521BA361A2600FB12046B8478AF3D0
:102810001188ABEB050B2E4489F31188BBF1000F37
:10282000D0D10398002383F3118805B0BDE8F08F61
:102830002A463046FDF75AFDE268A261A268521BA3
:10284000A260002DE0D102992046FFF7D9FE0028B2
:10285000B8D0039BA3EB0B00002383F3118805B0D2
:10286000BDE8F08F2A463046FDF740FDA2692A44B4
:10287000A261E3E70000000000000000000000008B
:102880000C30FFF78DBF00BF00000000000000000B
:102890000C304FF0FF33FFF783BF00BF0000000094
:1028A00070B5202305460E4683F3118803E0FFF739
:1028B000A7FE00281ADBAC6831462846002CF6D06B
:1028C000A969AB6828694A1C013B8242AB60AA61D6
:1028D00028BFEB680C7828BFAB61EB690BB12846C9
:1028E0009847002383F31188204670BD84F3118834
:1028F00070BD00BF000000000000000000000000EC
:102900000C30FFF7CDBF00BF00000000000000004A
:102910000C304FF0FF31FFF7C3BF00BF00000000D5
:1029200008B50146202383F311880820FFF710FD26
:10293000002383F3118808BD0000000000000000A0
:102940002DE9F04F8046DFF82CB3A94BA948CBF80E
:10295000003083B0FEF78CF9D8F80030002B00F07F
:10296000FB81A54C2A21DBF800000368DB6898474F
:1029700014F8011F0029F6D1D8F80000FEF778F905
:102980009E489F4CFEF774F92A21DBF8000003688B
:10299000DB68984714F8011F0029F6D199489A4C32
:1029A000FEF766F92A21DBF800000368DB68984728
:1029B00014F8011F0029F6D19448954CFEF758F9F8
:1029C0002A21DBF800000368DB68984714F8011F30
:1029D0000029F6D18F48904CFEF74AF98748FEF758
:1029E00047F92A21DBF800000368DB68984714F8F0
:1029F000011F0029F6D1894B89488A4CC01AFEF77D
:102A000087F88948FEF734F92A21DBF800000368CB
:102A1000DB68984714F8011F0029F6D1834B8448DE
:102A2000844CC01AFEF774F87F48FEF721F92A217A
:102A3000DBF800000368DB68984714F8011F0029E1
:102A4000F6D17D4B7D487E4CC01AFEF761F8764882
:102A5000FEF70EF92A21DBF800000368DB689847CF
:102A600014F8011F0029F6D1764B77480191C01A5E
:102A7000FEF74EF86C48FEF7FBF85E48FEF7F8F8F4
:102A8000D8F80430714A1B6801991170002B00F0CE
:102A9000FA808A4689464C24DBF8000003683D2111
:102AA000DB689847013CF7D1DBF800006849036810
:102AB000684C5B68022298473D21DBF80000036800
:102AC000DB68984714F8011F0029F6D109F10109C4
:102AD0004846614CFEF71CF82021DBF80000036833
:102AE000DB68984714F8011F0029F6D1D8F80430A4
:102AF00053F80A301C68217841B1DBF80000036804
:102B0000DB68984714F8011F0029F6D15348FEF7F7
:102B1000AFF8D8F8042052F80A305B681B68002B25
:102B200000F0AA804E4D00264E4FFEF729F9B40062
:102B30002D21DBF800000368DB68984717F8011FB8
:102B40000029F6D14846FDF7E3FFDBF80000424FCD
:102B500003682E21DB68013698473046FDF7D8FF21
:102B60002021DBF800000368DB68984717F8011F95
:102B70000029F6D1D8F8043053F80A305B681B59A5
:102B80001F68397841B1DBF800000368DB689847BB
:102B900017F8011F0029F6D13048FEF769F84FF405
:102BA000FA60FFF7BDFED8F804302F4A53F80A3018
:102BB0002E495B682A601F597B6800220A7003B1A6
:102BC0009847FB689847BB6803B19847274B1B7829
:102BD000002B74D12648FEF74BF8D8F8042052F8A1
:102BE0000A305B681C446368002B9DD144E000BF41
:102BF000E0080020C09B0008EC9C0008E89D00084D
:102C0000F49C0008EC9D0008089D0008049E000844
:102C10001C9D0008309E0008309D0008E00100085F
:102C200008900008449D0008E494000808900008FB
:102C300088B60008589D000800080020DC08002025
:102C40006C9D0008E0080020E01C0020F813002024
:102C50001C900008809D0008949D0008589E000864
:102C6000B0140020989D0008A014002098140020A3
:102C7000609E0008F01300200AF1040A52F80A309E
:102C8000002B7FF408AFFEF77BF8354C3548FDF795
:102C9000EFFF4621DBF800000368DB68984714F873
:102CA000011F0029F6D1304B1B78002B4CD02F4848
:102CB000FDF7DEFF2C4B187803B0BDE8F08F2C4FEA
:102CC0002D21DBF800000368DB68984717F8011F27
:102CD0000029F6D1274B284F1868FDF719FF20214E
:102CE000DBF800000368DB68984717F8011F00292C
:102CF000F6D12B68214A93420AD9204FDBF8000015
:102D000017F8011B0368DB6898472B689F42F5D3CF
:102D10001B4F5D21DBF800000368DB68984717F85C
:102D2000011F0029F6D1174B1F68397841B1DBF834
:102D300000000368DB68984717F8011F0029F6D1E7
:102D40001148FDF795FF48E71048FDF791FF064B46
:102D5000187803B0BDE8F08F0D48FDF789FF0FE646
:102D6000C89D0008C09B0008F8130020749E00084E
:102D7000A89D00089C140020C09D0008A0140020FD
:102D8000C49D0008F41300205C9E00086C9E00089F
:102D9000D89D0008000000000000000000000000B6
:102DA00008B5064B064A9B699A614FF0FF30FFF762
:102DB000B7FD4FF0FF30FFF7B3FDF6E7B009002095
:102DC0007C9E0008000000000000000000000000E1
:102DD00008B5C0B2FDF7ACFEBDE808406420FFF7BF
:102DE0009FBD00BF000000000000000000000000C8
:102DF00070B52C4E01234FF0804533606C6A64201F
:102E0000FFF78EFD04F1670104F16400FDF780FB1C
:102E100000B170BD022333606C6A4FF47A70FFF723
:102E20007FFD04F2EB3104F57A70FDF771FB0028A9
:102E3000EFD1032333606C6A4FF47A70FFF770FDB3
:102E400004F2EB3104F57A70FDF762FB0028E0D163
:102E5000042333606C6A42F21070FFF761FD04F5E1
:102E60001C51084610301331FDF752FB0028D0D119
:102E7000052333606E6A202306F1640483F311880E
:102E8000696A611A09D1002383F3118806F1670189
:102E90002046BDE87040FDF73BBB0820FFF758FA1D
:102EA000F1E700BF9C1400200000000000000000BB
:102EB00008B50120FFF734FD202383F311884FF07C
:102EC00080420023506A83F3118808BD000000008F
:102ED0002DE9F84FDFF890B01E4F1F4E1F4D012314
:102EE000CBF80030FFF7E4FF00248046A2464FF005
:102EF000200989F3118800233A4630460121FEF764
:102F000037FB3A46002342F210712846FEF730FBA9
:102F10003046FEF7EDFA2846FEF7EAFA8AF3118802
:102F20004FF0804342F20F725B6AA3EB08039342B7
:102F300004F10104DDD902230948CBF80030FDF784
:102F4000B7FE6000FDF7E4FDBDE8F84F0548FDF76A
:102F50008FBE00BFF1070008D0140020E414002049
:102F6000849E0008949E00089C140020000000002D
:102F700010B50B4CA269134653F82C0F984206D09B
:102F80000168D1620D224B6080F8202010BD0E2018
:102F9000FFF74EF9A269D06A02F12C03F0E700BFF7
:102FA000B009002000000000000000000000000048
:102FB00070B52026002586F31188FFF7D9FF85F329
:102FC0001188446A86F311882146FFF719F885F3C2
:102FD0001188002CEFD170BD00000000000000003F
:102FE0000E4B10B520229C6982F311886162026B3E
:102FF000626000F12C012160146090F820200463CD
:103000000E2A07D00C20FFF713F9606A002383F320
:10301000118810BDFEF7FCF8F4E700BFB0090020EE
:103020002DE9F0410546FFF743FF002406464FF027
:10303000804842F20F7701212846FFF7D1FFD8F8E8
:1030400024309B1BBB4204F10104F4D92846002123
:10305000FFF7C6FF2046BDE8F08100BF000000007A
:1030600010B541210446FFF7BBFF20464221FFF780
:10307000B7FF20464321FFF7B3FF20464421BDE8B8
:103080001040FFF7ADBF00BF0000000000000000CF
:103090000EB410B585B007AB01AA53F8044B0193E9
:1030A00002A9CDE90242FFF79BFF05B0BDE8104041
:1030B00003B07047000000000000000000000000A6
:1030C00070B52E4B044680689D6930B3AA6883684A
:1030D000934207D290F820308260062B35D0072B20
:1030E00020D09BB1234603E09968AA68914202D39D
:1030F0001B689C42F8D15A680620C5E90032156069
:103100005D606C62BDE87040FFF792B8D0E90032B4
:1031100013605A60FEF77CF8E4E7AB6BC4E9025336
:10312000AC6370BDD0E90031466A0B60596033462C
:1031300002E099688A4202D81B689E42F9D15A6817
:10314000C0E9003210605860CCE7D0E90031466A2F
:103150000B605960334602E099688A4202D81B68C6
:103160009E42F9D15A68C0E9003210605860B068D8
:10317000AA6883689342ADD3B4E700BFB0090020CA
:1031800008B5202383F31188FFF79AFF002383F308
:10319000118808BD000000000000000000000000D1
:1031A00010B5074CA269506241680346C2E90001AC
:1031B0000A6005205A60FFF73BF8A369586A10BD02
:1031C000B009002000000000000000000000000026
:1031D0002DE9F041202382B0044683F311883A4D53
:1031E000D5E90031013B034001EBC30251F8331034
:1031F0008A4203D11CE009688A4219D04B699C427B
:10320000F9D10B69002BF6D10B6A002B39DD4A6A24
:10321000D1E90204013B22F00102A060C460C1E9CF
:103220000832002383F31188084602B0BDE8F0811C
:10323000264F0026A7F130081AE0296AD1E9020CCE
:103240004A6A0B6ACCF80800013BC0F80CC022F0B7
:103250000100C1E90830D0061CD586F3118822236D
:103260004B6240462B6C01229847202383F3118840
:10327000AB6B013B002BAB63DFDA3846FFF790FF07
:10328000DBE7013B0B6201F118000191FFF788FFBA
:103290000199C6E7930704D5D1E900231A600A68AB
:1032A0005360D5E90032013B4C611C4002EBC40085
:1032B00052F83430486000250A200B600D614862E6
:1032C000596042F83410ACE76C0900209C090020DA
:1032D00008B5202383F311888368013B002B8360AA
:1032E00004DB0020002383F3118808BDFFF758FF9B
:1032F000002383F3118808BD0000000000000000D7
:103300002DE9F843DFF880801C4C0123C8F8003019
:10331000FFF7CEFD002506464FF0804942F20F77B9
:103320002046FFF7D5FF2046FEF752FF2046FFF765
:10333000CFFF2046FEF74CFF2046FFF7C9FF20468F
:10334000FEF746FF2046FFF7C3FF2046FEF740FF8B
:10335000D9F824309B1BBB4205F10105E0D90223BB
:103360000748C8F80030FDF7A3FCA800FDF7D0FB24
:10337000BDE8F8430348FDF77BBC00BF7C0D00208F
:10338000849E0008A09E00089C14002000000000FD
:1033900038B5084CA36993F821305A0708D4064D74
:1033A0002846FFF795FFA36993F821305B07F7D50F
:1033B00038BD00BFB00900207C0D002000000000D7
:1033C00010B5044C2046FFF783FF2046BDE81040AF
:1033D000FEF7FEBE700D002000000000000000009F
:1033E00010B504460348FFF773FF2078BDE810408E
:1033F000FDF79EBB700D00200000000000000000E3
:10340000B54BB6481A696FEAC2526FEAD25280B51C
:103410001A611A69C2F308021A614FF0FF341A697F
:103420005A695C61002259695A615969196A61F0E7
:1034300080511962196A01F080511962196A596A3A
:103440005C62596A5A62596A196C41F08051196478
:10345000196E41F080511966196E016841F480714E
:103460000160196F01F44071B1F5007F86B003D09F
:103470004FF4803119671A67984C994A6168994DE1
:10348000994F95486023402621F4007161604FF008
:10349000800C82F806334FF48071C2F880611660A8
:1034A0004FF4007682F807332C46C2F880C1C2F888
:1034B00000C082F80833C2F88011116082F8093325
:1034C000C2F8806116604FF4806682F80A33C2F851
:1034D000806116604FF4000682F81733C2F88061ED
:1034E000166082F82833C2F88411516044F8047BD6
:1034F0006C6005F1540400214FF0010E05F16403E6
:10350000C5E9084405F10C06AC611024C5E9036661
:1035100085F808E06961EB61AC63046CEB6344EA35
:103520000E040464046E714FAB6444EA0E04046636
:10353000006EB8686B6440EA0E00A962ED622D650A
:10354000B8604FF080406A4C6A4E6B4B42F2CF0736
:1035500087624FF0FF37C762646081614163C16079
:103560004160C0F814E0C0F800E005F1740082F892
:103570001CC328646148E8644FF0805C6048686759
:10358000C2F880C1C2F800C005F13002C5E90C22C2
:103590005C4A2460A160326006F10C02C6E9032295
:1035A00003F110021A61C6E9011103F124027161ED
:1035B00014269E615A6203F128061C229E621A6339
:1035C00003F13C0603F14002DE631A6403F1440692
:1035D00004F11C025E64C4E9072204264A4A1A6206
:1035E0009A63C3E90033494A99605961D962DE613F
:1035F0005E634748474B6167C0E900230022002310
:10360000C4E90444C4E909710097CDE90423CDE974
:10361000011103916846FDF77BFD6846FDF750FDFB
:10362000013EF7D1009962693B4B61678021A1633C
:10363000E1663A48A0640121C4E91042C4E9196670
:1036400084F8516084F8521003F12800136103F1EB
:103650002C02C4E90533C4E9160284F85010E6646C
:103660002266202484F3118862B62D4B2D4AD96836
:103670004FF6FF00014000F160400A43A0F60F3012
:10368000DA60C268284942F08072C2600A6810207D
:1036900042F001020A60D87783F8224086F311884D
:1036A00062B62248FEF7B4FD84F311882B7A012B11
:1036B0003ED1094B0A4A196C41F400311964196E64
:1036C00041F400311966C02040211B6E82F82603A8
:1036D000C2F8841151602BE00038024000700040B5
:1036E00000E100E0E00800204CB60008002004E003
:1036F000B0090020500B0020280A00209105000886
:103700000044004051050008010E0008E01C0020A4
:10371000480B002000000220E0090020C0AE000895
:1037200000ED00E00003FA05001000E0E4AE000840
:103730006B6F234A93423FD0224840F2454240F605
:103740008B01834208BF0A469A604024012042F25E
:103750002C1100221C615861FF24D9601A600221DB
:1037600018685B6885F87840297282F31188042014
:10377000FCF756FE0820FCF753FE2146124A134878
:10378000134D144C144E6B46FEF76AFC0146009133
:10379000124A13486B468021FEF762FC2B69DB0757
:1037A000204604D5FFF7CCF83046FFF7C9F841F2C0
:1037B0008830FFF7B5F8F1E740F68B02C4E700BFA9
:1037C0000010014000140140A12D0008981B0020AA
:1037D0000000024014B6000820B1000801210008D2
:1037E000501A00200000000000000000000000004F
:1037F000EFF30983203383F30988002383F31188CF
:10380000704700BF00000000000000000000000042
:1038100038B52022034682F311880F4A9469A06AC2
:10382000636204F12805A84206D00368A362FDF78D
:10383000EFFCA06AA842F8D194F822303BB994F882
:1038400021309B0703D1D4E9043213615A61BDE8EA
:1038500038400F20FEF7ECBCB0090020000000004B
:10386000F8B5104F00253D70202686F31188FFF72C
:103870007FFB044685F31188436AD3E90020904713
:10388000014686F311882046FEF7BAFB85F31188BE
:103890003B78002BE9D0BDE8F84040F6A570FFF773
:1038A000B7BF00BF6C0B002000000000000000004C
:1038B000FFF7AEBF000000000000000000000000A5
:1038C0000D4A10689169036830B401245A600025DC
:1038D00080F820408C681360906181F8205000E0EF
:1038E0001B689A689442FBD35A6830BCC1E9003225
:1038F00011605960FCF7E4BCB00900200000000032
:10390000044B1A689B6992689B689A4200D870477A
:10391000FFF7D6BFB0090020000000000000000043
:1039200070B5202383F31188856881600135002DEF
:103930000CDC04466FF001066068436863601C603D
:10394000FDF766FC0135012D4662F5D1FFF7D8FF82
:10395000002383F3118870BD000000000000000008
:103960002DE9F8432A4C2B4F012320463B60FFF7FB
:10397000AFFC2026054686F31188A0682649B0FAD8
:1039800080F04009FDF72CF820B1002383F3118863
:10399000BDE8F88380F31188B5FA85F01F49400926
:1039A000FDF71EF805460028F2D14FF00209204627
:1039B000C7F80090FEF70CFC86F31188A068164942
:1039C000A0F10100B0FA80F04009FDF709F8804647
:1039D00018B185F31188BDE8F88380F311880323BB
:1039E000494620463B60FFF79BFF86F31188A0689D
:1039F0000949A0F10200B0FA80F04009FCF7F0FF9D
:103A000010B980F31188C3E788F31188C0E700BFBD
:103A1000700D00209C140020B09E0008C49E000879
:103A200001480021FFF77CBF700D0020000000005E
:103A300038B5202383F31188154CA3685A1C002A3B
:103A4000A26019DD002BA36006DBFFF759FF002001
:103A5000002383F3118838BD0E4A636895690520F9
:103A6000C5E900431D606C626560FEF7E1FB686AB2
:103A7000002383F3118838BD2068036823605C60ED
:103A8000FDF7C6FBA36800224262013BDAE700BFF4
:103A9000700D0020B00900200000000000000000B0
:103AA00038B51E4B1E4D9B691E4A99681E481F4C17
:103AB000012301312B600023FEF7D2FA1C4A0223B6
:103AC00010602B60FFF7B4FF20681A49001BB0FAA2
:103AD00080F04009FCF784FF00B138BDA0681649AA
:103AE000B0FA80F04009FCF77BFF0028F5D10323F2
:103AF0002B60FFF79DFF20680E49001BB0FA80F095
:103B00004009FCF76DFF0028E7D1A0680A49B0FA28
:103B100080F0BDE838404009FCF762BFB0090020E2
:103B20009C140020C1330008880D0020700D002077
:103B3000B4140020DC9E0008EC9E00080000000089
:103B400038B5202383F311880A4C2368012204F13D
:103B500018000025C4E9023322752561FDF7F8FB42
:103B600004F12000FDF7F4FBFFF7CAFE85F311888E
:103B700038BD00BF4C08002000000000000000001D
:103B8000FFF7DEBF000000000000000000000000A2
:103B9000FFF7F6BF0000000000000000000000007A
:103BA000FFF7EEBF00000000000000000000000072
:103BB0002DE9F041202306460D4683F31188174C6A
:103BC00004F118080AE0D4E900272369A7EB020CE6
:103BD000B3EBAC0F0ED1FEF713FD30B9237D2946B0
:103BE0004046002BEFD06FF00100002383F31188D3
:103BF000BDE8F081E1680A4804398A4288BF391F6C
:103C0000E16001330E602361FDF71AFBFFF778FED8
:103C10000020002383F31188BDE8F0814C080020C8
:103C20006C08002000000000000000000000000000
:103C30002DE9F84FCC4ECD4931610821316006F1B4
:103C400030010120C6E90C110021C94AF062C6E921
:103C5000051106F12400C74BC74C3364C6E90900BF
:103C600006F11407042013467260F4633762403291
:103C7000B063B060C3E9003308339342FAD1BB4B61
:103C8000BE4903F1F00C0125002200E0034603F1D8
:103C90003C0003F118046045C3E90217C3E9064478
:103CA0001D62CB60C3E90422C3E909521946EDD174
:103CB000B34BDFF8ECB2F361DFF8D092DFF8E482C7
:103CC000DFF8A4A20223CBF8003000273846FFF724
:103CD0007FFA0446406A4946C0F34000FCF780FE84
:103CE0004146002840F03D81606AC0F3C000FCF707
:103CF00077FE20230546002840F0338183F31188A6
:103D000021465046FDF7B4FBFFF7FAFD85F3118815
:103D10000137082FDAD19B499B48FCF7E1FF0546A4
:103D2000002840F01E810323984FDFF87092DFF8DF
:103D30003882CBF800302846FFF74AFA0446406A3A
:103D40003946C0F34000FCF74BFE4946002840F0DE
:103D50000881606AC0F3C000FCF742FE02462146BB
:103D60004046002A40F0FD80636AD6F83CA043F04C
:103D700008036362D04780F001008549C0B2FCF7B8
:103D80002FFE3946002840F0EC80606AC0F3400006
:103D9000FCF726FE7F49002840F0E380606A80F04F
:103DA0000800C0F3C000FCF71BFE20238246002859
:103DB00040F0D78083F3118821464046FDF758FB39
:103DC000FFF79EFD8AF311880135082DB3D16D49A7
:103DD0007148FCF785FF0546002840F0C2800423A7
:103DE0006A4FDFF8B891DFF88081CBF800302846C1
:103DF000FFF7EEF90446406A3946C0F34000FCF78D
:103E0000EFFD4946002840F0AC80606AC0F3C00076
:103E1000FCF7E6FD0346012221464046002B40F018
:103E2000A080636AD6F83CA043F008036362D047E1
:103E300080F001005649C0B2FCF7D2FD0346284687
:103E4000002B40F08E80FFF7C3F90446406A3946E4
:103E5000C0F34000FCF7C4FD4E49002840F08180CB
:103E6000606A80F00800C0F3C000FCF7B9FD2023B1
:103E70008246002875D183F3118821464046FDF71C
:103E8000F7FAFFF73DFD8AF311880135082DAED111
:103E90003C494148FCF724FF002862D10523DFF8A4
:103EA000EC803C4FDFF8C090CBF800300426304661
:103EB000FFF78EF90446406A4146C0F34000FCF724
:103EC0008FFD394600284CD1606A80F00800C0F3AD
:103ED000C000FCF785FD20230546002841D183F36F
:103EE000118821464846FDF7C3FAFFF709FD85F31F
:103EF00011880136082EDAD122492348FCF7F0FE5A
:103F0000044670BB0623DFF88480244FDFF8589006
:103F1000CBF800302046FFF75BF90546406A414682
:103F2000C0F34000FCF75CFD3946D0B9686AC0F3C5
:103F3000C000FCF755FD2023064690B983F3118895
:103F400029464846FDF794FAFFF7DAFC86F3118814
:103F50000134042CDED1BDE8F84F0A490A48FCF7C9
:103F6000BFBEBDE8F88F00BF6C090020700C0020B8
:103F7000700B0020610B0008B13F00088009002091
:103F8000240D0020249F0008C09B0008009F00080B
:103F9000389F0008489F0008549F00084C9F000865
:103FA0009C1400200C9F000800000000000000008E
:103FB0004B6970B561330C460646D8B21546FCF71E
:103FC000B7FD636A23F0080363620DB9002070BD7A
:103FD000202383F3118821463046FDF749FAFFF785
:103FE0008FFC002383F31188002070BD00000000C7
:103FF00038B5202585F311880B480021FDF7E8F935
:104000000024FFF77DFC84F311884FF4FA70FEF76B
:1040100087FC85F3118805482146FDF7D9F9FFF79C
:104020006FFC84F3118838BD080800200C080020BC
:1040300010B504464FF4FA70FEF772FC202383F3A8
:10404000118801212046FDF7ABF9FFF759FC002349
:1040500083F3118810BD00BF0000000000000000C5
:1040600010B540F2DC50FEF75BFC202383F311888F
:10407000064C2046FFF724F82046FDF7C1F9FFF76C
:104080003FFC002383F3118810BD00BF3C080020D3
:104090002DE9F041614E84B0012301AD4FF00008DD
:1040A000CDE901553360CDF80C80202787F31188C6
:1040B00003985B494045CCBF00200120FCF790FCF1
:1040C00020B188F3118804B0BDE8F081044680F384
:1040D00011880223014628463360FFF721FC87F34D
:1040E000118803984E490028CCBF00200120FCF71E
:1040F00077FC8046002872D180F31188494B4A4AE8
:104100009B694A48996803242B4601393460FDF7BE
:10411000A7FF474A01460423284611603360FFF792
:10412000D7F8044687F3118803983D490028CCBF8F
:1041300000200120FCF754FC0028C2D180F3118834
:10414000B4FA84F03B494009FCF74AFC0028BAD194
:104150000523336087F31188039B002B44DDFFF7B1
:10416000CFFB4FF0000888F31188202787F31188D0
:10417000039831494045D4BF00200120FCF730FCB2
:10418000044600289DD180F3118887F31188039895
:104190002A49A0F10100B0FA80F04009FCF720FCA8
:1041A000E8B980F311880623336087F31188039BF5
:1041B000002B2FDDFFF7A4FB002585F311882026B7
:1041C00086F3118803981E49A842D4BF002001201D
:1041D000FCF706FC044658B185F3118873E784F3B5
:1041E000118804B0BDE8F0812846FDF731F9B6E743
:1041F00080F3118886F3118803981049A0F101001B
:10420000B0FA80F04009FCF7EBFB0028E7D180F31F
:10421000118858E72846FDF71BF9CBE79C140020CE
:10422000609F0008B009002081420008880D00202E
:10423000B41400206C9F0008809F00088C9F000829
:10424000649F000800000000000000000000000063
:1042500008B54FF4FA70FEF763FB202383F311884F
:104260000448FDF7F5F8FFF74BFB002383F31188B3
:1042700008BD00BF700D002000000000000000001D
:1042800008B5202282F311888368002B05DDFFF733
:1042900037FB002383F3118808BDFDF7D9F8FFF73A
:1042A0002FFB002383F3118808BD00BF000000002E
:1042B00010B52023044683F31188094B186820B1F8
:1042C000002242621A60FCF7A3FFFFF719FB0023EC
:1042D00083F311882078BDE81040FCF729BC00BFAB
:1042E000C8140020000000000000000000000000D2
:1042F0002DE9F04105460C4616464FF020080027F0
:1043000088F31188EB6823602846EC60FDF7A0F87D
:10431000FFF7F6FA87F311882B69013E1C44EFD1B1
:10432000BDE8F08100000000000000000000000077
:104330002DE9F0473248334F3349DFF8D480012369
:10434000042206463B60FFF7D3FF02233B6035465D
:10435000042400212846FEF703F9003818BF012085
:104360004146FCF73DFB002848D1013CF1D1032335
:10437000214623483B60FEF7F3F8B0FA80F023496A
:104380004009FCF72DFB002838D11F4DDFF870A045
:10439000042305F110093B604FF020082B4688F3F9
:1043A0001188F26845F8042B5046F360FDF750F889
:1043B000FFF7A6FA84F311884D45EFD10523104E7F
:1043C000134D3B60042400213046FEF7C9F8003845
:1043D00018BF01202946FCF703FB78B9013CF2D154
:1043E0002146062306483B60FEF7BAF8B0FA80F093
:1043F000BDE8F04705494009FCF7F2BABDE8F0878F
:10440000100800209C140020600D0020449000083B
:1044100038900008000000000000000000000000CC
:10442000F8B504460E461546202383F31188C718B5
:1044300004E023696BB9FEF7E3F830B9237D294620
:104440003846002BF5D06FF00100002383F311886C
:10445000F8BDE2686168106804328A42E26003F1E4
:10446000FF3328BF2268306028BFE260236104F177
:104470001800FCF7E5FEFFF743FA0020002383F362
:104480001188F8BD000000000000000000000000DE
:104490002DE9F041114E82B006F11C07B0464FF0F5
:1044A000FF3201A93846FFF7BBFF044610B102B046
:1044B000BDE8F081019D2B68002BF8D06868984713
:1044C000202383F31188F3682B604046F560FCF7E6
:1044D000BFFFFFF715FA84F31188E0E7EC0B00202B
:1044E0002DE9F041202304460E46154683F311883A
:1044F00000F118080AE0D4E900722369A2EB070C66
:10450000B3EBAC0F0ED1FEF77BF830B9237D294613
:104510004046002BEFD06FF00100002383F3118899
:10452000BDE8F081A068011D8A4203F10103A1608A
:10453000066098BFA760236104F12000FCF780FEAD
:10454000FFF7DEF90020002383F31188BDE8F08136
:104550002DE9F041434FDFF81481434E012382B02F
:104560003B604546422421464FF0FF322846FFF784
:10457000B7FFB0FA80F0314640090134FCF730FA59
:1045800090B9462CEFD102230122582137483B60D5
:10459000FFF7A6FFA0F1FF30B0FA80F032494009E2
:1045A000FCF71EFA044610B102B0BDE8F0812025E8
:1045B00085F311885820FCF753FE84F31188A0F18D
:1045C000FF30B0FA80F028494009FCF709FA0028CA
:1045D000EAD101215820FFF7EBFAA0F1FF30B0FA41
:1045E00080F021494009FCF7FBF904460028DBD1A3
:1045F00085F311885820FCF75BFE84F31188A0F145
:10460000FF30B0FA80F018494009FCF7E9F9044698
:104610000028C9D103233B60FFF792FA042301A9C4
:104620000122124888F814403B60FFF7F9FEA0F120
:10463000FF30B0FA80F00C494009FCF7D1F904468C
:104640000028B1D185F3118801A8FCF759FE84F345
:104650001188A0F1FF30B0FA80F003494009FCF75F
:10466000BFF9A1E79C140020A09F00084C0800207F
:104670002DE9F047AF4F4FF0010882B0C7F8008036
:10468000202686F31188AC4CAC492069D4E900237C
:104690009B1AC0EBA300A0F10400B0FA80F040091F
:1046A000FCF79EF928B1002383F3118802B0BDE81E
:1046B000F087054680F3118802233B6086F311885A
:1046C0002368206104F11800C4E9023384F81480DF
:1046D000FCF73EFE04F12000FCF73AFE85F311885A
:1046E00086F31188D4E90023206995499B1AC0EB11
:1046F000A300A0F10400B0FA80F04009FCF770F9C3
:10470000804688B980F3118886F3118820698D4925
:10471000B0FA80F04009FCF763F9054648B188F328
:10472000118802B0BDE8F08785F3118802B0BDE8BA
:10473000F08780F3118886F311882068A368824986
:10474000C01AB0FA80F04009FCF74AF98046002808
:10475000EAD180F3118886F311882068E3687B49E9
:10476000C01AB0FA80F04009FCF73AF90546002873
:10477000D5D180F311880323DFF8D4A120753B60E5
:104780004FF0420986F311884846FCF769FD85F32E
:104790001188B0FA80F040095146FCF721F909F17F
:1047A00001098046002881D1B9F1450FEAD186F38D
:1047B00011884120FCF77CFD88F31188B0FA80F065
:1047C00063494009FCF70CF9054600287FF46EAFF9
:1047D0004FF00409C7F8009086F31188D4E900135C
:1047E00022695B1AB2EBA30F5A490CBF01200020CB
:1047F000FCF7F6F88046002896D180F3118886F3FE
:10480000118820695449A0F10400B0FA80F04009F1
:10481000FCF7E6F80546002881D180F3118886F37D
:104820001188D4E90230C01AB0FA80F04B4940092F
:10483000FCF7D6F800287FF477AF80F311880523C2
:10484000434E3B6005464FF0200888F3118801A8CD
:10485000FCF756FD85F31188B0FA80F04009314627
:10486000FCF7BEF800287FF421AF9DF80400FCF7A8
:104870005FF9B9F10109E8D139493A48FCF730FA52
:1048800000287FF413AF062346212B483B604FF0EE
:10489000FF32FFF725FEB0FA80F02D494009FCF702
:1048A0009FF800287FF402AF01A923484FF0FF32A0
:1048B000FFF7B6FDB0FA80F025494009FCF790F803
:1048C00000287FF4F3AE07233B6088F31188D4E916
:1048D00000122369521AC3EBA203191F4842484130
:1048E0001749FCF77DF808BB89F3118888F3118814
:1048F00020691449B0FA80F04009FCF771F8A8B9B2
:1049000089F311882068A3680F49C21A50425041A8
:10491000FCF766F800287FF4C9AE2068E3680B490D
:10492000C31A58425841FCF75BF8BFE689F3118877
:10493000BCE600BF9C1400204C080020B89F000873
:10494000C49F0008D09F0008DC9F000800A000085A
:10495000A09F000824A0000830A000083CA0000888
:1049600054A0000868A0000800000000000000003B
:104970002DE9F041BB4F012382B03B60202686F336
:104980001188B94CB9492069D4E900239B1AC0EBBE
:10499000A300A0F10400B0FA80F04009FCF720F871
:1049A00028B1002383F3118802B0BDE8F0810546E9
:1049B00080F3118802233B60FFF7C2F886F3118869
:1049C000D4E900232069AA499B1AC0EBA300A0F1F7
:1049D0000400B0FA80F04009FCF702F8804688B97C
:1049E00080F3118886F311882069A249B0FA80F01B
:1049F0004009FBF7F5FF054648B188F3118802B07E
:104A0000BDE8F08185F3118802B0BDE8F08180F344
:104A1000118886F311882068A3689749C01AB0FAF4
:104A200080F04009FBF7DCFF80460028EAD180F3E4
:104A3000118886F311882068E3689049C01AB0FA9B
:104A400080F04009FBF7CCFF0028D6D180F3118815
:104A5000032301464FF0FF3220463B60FFF740FD45
:104A6000811C14BF002001208549FBF7B9FF0028F5
:104A70009AD14FF0FF31FFF79BF8821C14BF002042
:104A800001207F49FBF7ACFF00288DD101A94FF031
:104A9000FF322046FFF7C4FC831C14BF0020012016
:104AA0007749FBF79DFF00287FF47EAF0423DFF8F2
:104AB000D48120753B604225264629464FF0FF32BF
:104AC0003046FFF70DFDB0FA80F041464009013550
:104AD000FBF786FF00287FF467AF452DEDD14FF03F
:104AE000FF314120FFF764F8B0FA80F065494009D2
:104AF000FBF776FF054600287FF456AF05233B60A1
:104B00004FF0200888F31188D4E9001322695B1A5A
:104B1000B2EBA30F5C490CBF01200020FBF760FF44
:104B2000064600287FF46EAF80F3118888F3118861
:104B300020695649A0F1040CDCF1000040EB0C00A8
:104B4000FBF74EFF054610B186F311882CE780F382
:104B5000118888F31188D4E90230C61A7042704176
:104B60004B49FBF73DFF00287FF44CAF80F31188E1
:104B70000623DFF8F480434E3B60042501A94FF083
:104B8000FF324046FFF74CFCB0FA80F03146400956
:104B9000FBF726FF00287FF407AF9DF80400FBF722
:104BA000C7FF013DEAD13B493B48FCF799F8002893
:104BB0007FF4FAAE072346212B483B604FF0FF32CB
:104BC000FFF78EFCB0FA80F02E494009FBF708FF92
:104BD00000287FF4E9AE01A923484FF0FF32FFF728
:104BE0001FFCB0FA80F027494009FBF7F9FE0028C6
:104BF0007FF4DAAE08233B60202686F31188D4E9DF
:104C000000122369521AC3EBA203191F48424841FC
:104C10001749FBF7E5FE00287FF4F4AE85F3118811
:104C200086F3118820691349B0FA80F04009FBF738
:104C3000D7FE00287FF4E6AE85F311882068A368CC
:104C40000D49C21A50425041FBF7CAFE00287FF4BA
:104C5000ABAE2068E3680949C31A58425841FBF7D4
:104C6000BFFEA1E69C1400204C080020B89F00085D
:104C7000C49F0008D09F0008DC9F000800A0000827
:104C800070A00008A09F000824A0000830A0000821
:104C90003CA0000854A0000868A000080000000024
:104CA00038B5164B01469D69202383F311880068AF
:104CB000CB68AB6388421BD0EC6B4BB11A68934254
:104CC00003D09268944238BF1446DB68002BF5D1BC
:104CD000826B0368AC600B605960C1E902028163BA
:104CE000FCF796FAFEF70CFE002383F3118838BD1B
:104CF00000238360002383F3118838BDB0090020AE
:104D00002DE9F843384E002818BF064606F10C0876
:104D10004046CF1D0D46FEF733FA7268FF08311D7D
:104D20000AB919E01A46D2F804C002F10F0323F0C1
:104D300007030CF10104994602EBC404083BA4EB01
:104D40000900A3424FEAE00E02D2B7EBE00F13D9FD
:104D500013681146002BE5D14046FFF7A1FF3368E9
:104D6000BBB30822F80011469847814608B140E9D4
:104D700002654846BDE8F883934218D867452CD0B1
:104D8000013702EBC70000F10803E31ADB101468D7
:104D900042F8374002F10809436008601346404674
:104DA000C3E90065FFF77CFF4846BDE8F88302F1E0
:104DB0000801591AC91077455160F0D27C1CF9439B
:104DC00003EBC40017687144416043F8347010600D
:104DD000E5E799464846BDE8F8839146134659F8F9
:104DE000082B0A60DBE700BF500B0020000000002A
:104DF0002DE9F041054686B00F4601461148904620
:104E00001E46FFF77DFF0446C0B10F4BCDF80C8066
:104E10000544CDE904360295CDE90070202383F3E3
:104E200011886846FCF77CF9012380F821300021C5
:104E30000446FDF7E5F8002383F31188204606B009
:104E4000BDE8F081B00B0020610C000800000000FC
:104E5000F8B50C68A1420D460646174603D10DE091
:104E60002468A5420AD008223146A01804F05AF856
:104E70000028F5D114B104462046F8BD394600207B
:104E8000FFF73EFF04460028F6D0082231461044C2
:104E900004F086F82B680122C4E9003220462C6019
:104EA000F8BD00BF0000000000000000000000008E
:104EB0002DE9F04FDFF8E0A09AF8143083B01BB171
:104EC000002003B0BDE8F08F80460AF13000FEF705
:104ED00057F92F4E45460AF120070AF11C0918E040
:104EE000FBF704FA019BDAF800001A4606EB0B0107
:104EF000FBF7FCF9DAF80020019B38461344CAF8A6
:104F00000830FFF7CDFE2D1B48462644FDF7E8F894
:104F10006DB33846FEF734F9DAE90042DAF81030BA
:104F2000DAF80800141BE41AAC4228BF2C46A2EBA6
:104F3000000B23445C45CAF810301FD3A4EB0B03CD
:104F40005A4631460193CBD82246FBF7CFF9DAF81F
:104F50000030CAF808303846FFF7A2FE002CD2D144
:104F6000202383F3118884F31188A8EB05080948EE
:104F7000FFF796FE404603B0BDE8F08F224631466B
:104F8000FBF7B4F9DAF808302344CAF80830E2E74E
:104F900050B10008BC0800208C0800200000000070
:104FA0002DE9F04F2F4D2B7D83B01BB1002003B0B6
:104FB000BDE8F08F8A46804605F14000FEF7E0F834
:104FC000574605F1200905F1180B15E0FBF78EF99E
:104FD000019B29681A4608EB0600FBF787F92A6847
:104FE000019B48461344EB60FFF75AFE3F1B5846AF
:104FF000A044FDF775F837B34846FEF7C1F8D5E988
:1050000003136E689F423C46A6EB010628BF1C4670
:105010001B1BB4422B611DD3A4EB06033246019344
:105020004046D3D82246FBF761F92B68EB6048462F
:10503000FFF736FE002CD9D1202383F3118884F3A7
:105040001188AAEB070A0848FFF72AFE504603B06A
:10505000BDE8F08F22464046FBF748F9EB68234451
:10506000EB60E4E78C080020CC0800200000000082
:1050700030B5224D85B00123102168462B60FFF723
:105080008FFFB0FA80F01E494009FBF7A9FC40B938
:105090001C4C2268E36893421DD01B49FBF7A0FC1F
:1050A00008B105B030BD022310202B60FFF700FFD0
:1050B000A0F10800B0FA80F011494009FBF790FC1C
:1050C0000028EED1D4E9022393420CD00E49FBF71D
:1050D00087FC05B030BDA2689342DED12069B0FAEA
:1050E00080F04009D9E722689342EFD12069A0F10E
:1050F0000800B0FA80F04009E8E700BF9C140020E7
:10510000B89F00088C08002084A000080000000060
:1051100038B505460748FEF733F8074A0748111F18
:10512000FCF7FEFE044600B105610248FFF7B8FD3A
:10513000204638BD280A00203C0A002098A000081C
:1051400038B5074D2846FEF71BF805F11001054854
:10515000FCF7C6FE04462846FFF7A2FD204638BDF0
:10516000280A002098A000080000000000000000AD
:1051700010B50A48FEF704F809490A488022FFF7EB
:1051800067FE044620B180220021103003F07AFE31
:105190000248FFF785FD204610BD00BF280A002009
:1051A0004C0A0020A0A00008000000000000000041
:1051B00038B5074D2846FDF7E3FF05F12401054802
:1051C000FCF78EFE04462846FFF76AFD204638BDF0
:1051D000280A0020A0A00008000000000000000035
:1051E00010B50A48FDF7CCFF094A0A48111FFCF721
:1051F00097FE044628B100F11003C0E904330022F1
:1052000082610248FFF74CFD204610BD280A0020AD
:10521000540A0020A8A000080000000000000000C0
:1052200038B5074D2846FDF7ABFF05F128010548C5
:10523000FCF756FE04462846FFF732FD204638BDEF
:10524000280A0020A8A000080000000000000000BC
:1052500038B51148FDF794FF104911487822FFF73F
:10526000F7FD044698B100F1380304F1280104F178
:105270003002C4E90633C4E90A11C4E90C2200F182
:105280007805002023616561206284F824000248CB
:10529000FFF706FD204638BD280A0020640A0020DA
:1052A000B0A00008000000000000000000000000A6
:1052B00038B5074D2846FDF763FF05F13C01054869
:1052C000FCF70EFE04462846FFF7EAFC204638BDF0
:1052D000280A0020B0A00008000000000000000024
:1052E00070B51848FDF74CFF174918484FF4CA72BB
:1052F000FFF7AEFD044600B3002600F1940510222E
:1053000004231030C4E908232946C4E90400E661F7
:10531000A662A661FEF7ECFF04F1540304F1440118
:1053200004F14C02C4E90D33C4E91111C4E913229C
:105330002563E66384F84060E3620248FFF7B0FC4F
:10534000204670BD280A0020680A0020B8A0000886
:1053500038B5074D2846FDF713FF05F14001054814
:10536000FCF7BEFD04462846FFF79AFC204638BDF0
:10537000280A0020B8A0000800000000000000007B
:1053800038B51548FDF7FCFE144915487022FFF7A3
:105390005FFD0446D8B100F16002002300F1700502
:1053A000C4E90622303004F14001226104F15002C8
:1053B000C4E90A33C4E90C00C4E91011C4E9142299
:1053C0006561236284F82430A363A364A365024863
:1053D000FFF766FC204638BD280A00206C0A002032
:1053E000C0A0000800000000000000000000000055
:1053F00038B5074D2846FDF7C3FE05F144010548C1
:10540000FCF76EFD04462846FFF74AFC204638BDEF
:10541000280A0020C0A000080000000000000000D2
:1054200070B51F4C1F4E012584B004F1200035607B
:10543000FDF7A6FE236825750022C4E90233226128
:10544000202383F31188A06928B16FF00103436220
:10545000A261FBF7DDFEE06930B16FF0010343624A
:105460000023E361FBF7D4FEFEF74AFA002585F33B
:1054700011880D48FFF714FC2268E368934206D0B8
:1054800028460A49FBF7ACFA90B104B070BDA26897
:105490009342F5D12569B5FA85F04009F1E700BFDF
:1054A0008C0800209C140020AC08002084A0000878
:1054B000022310203360FFF7FBFCB0FA80F0C349F1
:1054C0004009FBF78DFA0028DFD12268E368934298
:1054D00000F08D81BE49FBF783FA0028D5D1032364
:1054E000102168463360FFF75BFDB0FA80F0B749E2
:1054F0004009FBF775FA0028C7D12268E368934298
:1055000000F08781B249FBF76BFA0028BDD1226811
:10551000E368207504219342316000F07181AC4949
:10552000FBF75EFA0028B0D1052310203360FFF7A7
:10553000BFFCA0F11000B0FA80F0A6494009FBF7CB
:105540004FFA0028A1D12268E368934200F06A81F3
:105550009F49FBF745FA002897D10623102168469A
:105560003360FFF71DFDA0F11000B0FA80F09949FB
:105570004009FBF735FA002887D12268E368934297
:1055800000F05B819249FBF72BFA00287FF47DAF96
:10559000914B009A9A4200F0598101208F4980F086
:1055A0000100FBF71DFA00287FF46FAF07230420EA
:1055B0003360FFF77DFCA0F10400B0FA80F085496C
:1055C0004009FBF70DFA00287FF45FAFD4E902230E
:1055D000934203D02268934200F053817C49FBF749
:1055E000FFF900287FF451AF08230C203360FFF748
:1055F0005FFCA0F10C0EDEF1000040EB0E007549DF
:10560000FBF7EEF900287FF440AF2268E36893428D
:1056100000F03C816E49FBF7E3F900287FF435AFD9
:105620000923042168463360FFF7BAFC051F68426E
:1056300068416849FBF7D4F900287FF426AF236856
:10564000E2689A4203D0A268934200F04581604923
:10565000FBF7C6F900287FF418AF00985E4B5F494E
:10566000C21A50425041FBF7BBF900287FF40DAF3E
:105670000A230C2168463360FFF792FCA0F10C036B
:10568000584258415349FBF7ABF900287FF4FDAE6F
:105690002268E368934200F005814D49FBF7A0F9C9
:1056A00000287FF4F2AE69464D480C2203F0BAFBA5
:1056B000B0FA80F049494009FBF792F900287FF4DD
:1056C000E4AE0B2305203360FFF7F2FBA0F1050EDB
:1056D000DEF1000040EB0E003E49FBF781F90028A7
:1056E0007FF4D3AED4E90223934203D022689342DD
:1056F00000F0E1803649FBF773F900287FF4C5AE6E
:105700000C23052168463360FFF74AFC451F6842B9
:1057100068413049FBF764F900287FF4B6AED4E95C
:105720000223934200F0E8802949FBF759F9002849
:105730007FF4ABAE69462A48052203F073FBB0FA4A
:1057400080F026494009FBF74BF900287FF49DAE15
:105750000D2310203360FFF7ABFBA0F1100148428E
:1057600048411C49FBF73CF900287FF48EAED4E990
:105770000223934200F0B6801549FBF731F9002867
:105780007FF483AE0E23102168463360FFF708FCD8
:10579000A0F11003584258410E49FBF721F90028A7
:1057A0007FF473AED4E90223934200F08C80084961
:1057B000FBF716F900287FF468AE69461022084806
:1057C00003F030FBB0FA80F00CE000BFC8A0000886
:1057D00084A00008B89F000830313233D4A00008FC
:1057E00050B1000849494009FBF7FAF84DE6A268B4
:1057F00093427FF46FAE2069B0FA80F0400969E609
:10580000A26893427FF48BAE2069B0FA80F0400921
:1058100085E6A26893427FF475AE2069B0FA80F005
:1058200040096FE6A26893427FF492AE2069A0F12E
:105830001000B0FA80F040098AE6A26893427FF433
:10584000A1AE2069B0FA80F040099BE6019A03F10D
:1058500004339A427FF4A1AE03F13063029A03F558
:10586000302303F204439A427FF497AE03F180633E
:10587000039A03F5812303F20B339A427FF48DAE32
:105880008CE62069031F58425841A7E6A26893425C
:105890007FF4C0AE2069A0F1100CDCF1000040EBF9
:1058A0000C00B7E6A26893427FF4F7AE2069B0FA25
:1058B00080F04009F1E62069A0F1050CDCF1000060
:1058C00040EB0C0016E7226893423FF470AF20696A
:1058D000B0FA80F040096AE72069A0F10C01484263
:1058E0004841B4E6226893423FF446AF2069A0F1F4
:1058F0001002504250413FE7226893423FF414AFF8
:105900002069B0FA80F040090EE700BFD4A000087B
:105910002DE9F843DFF880801C4C0123C8F80030E3
:10592000FDF7C6FA002506464FF0804942F20F7790
:105930002046FDF725FC2046FFF7B2F92046FDF78B
:105940001FFC2046FFF7ACF92046FDF719FC204666
:10595000FFF7A6F92046FDF713FC2046FFF7A0F954
:10596000D9F824309B1BBB4205F10105E0D9022385
:105970000748C8F80030FBF79BF9A800FBF7C8F808
:10598000BDE8F8430348FBF773B900BF600C002083
:10599000849E0008E8A000089C140020000000007D
:1059A000F8B504461B48FDF7EBFB1B48FDF7E8FB89
:1059B000202383F31188194DAB699E6B3046FBF7AA
:1059C0001FFD174BAA691946536203E09F68906850
:1059D000874202D31B688B42F8D159680720C2E97D
:1059E00000310A605A60FCF723FCAB695B6A013343
:1059F00002D03046FDF764FB002383F31188207842
:105A0000FBF796F80448FFF74BF9BDE8F84001486A
:105A1000FFF746B93C0800202C080020B009002000
:105A2000000800200000000000000000000000004E
:105A300070B505461648FDF7A3FB202383F31188B4
:105A4000144B9C69A66B3046FBF7DAFC124A626283
:105A5000134603E09868A168884202D31B6893420A
:105A6000F8D15A680720C4E9003214605C60FCF782
:105A7000DFFB3046FDF724FB002383F311882878F1
:105A8000FBF756F8BDE870400148FFF709B900BFC1
:105A90002C080020B00900200008002000000000B1
:105AA00038B5064D04462846FDF76AFB2078FBF71B
:105AB0003FF82846BDE83840FFF7F2B83C08002020
:105AC0002DE9F8434F4D504CAA6902239668236094
:105AD000FAF7EEFC4D49FAF783FF08B1BDE8F88309
