:020000040800F2
:1000000000000220B9020008BF020008C302000875
:1000100035030008390300088103000800000000D0
:100020000000000000000000000000001D19000892
:10003000CD03000800000000051A0008E9030008CD
:10004000E5030008E5030008E5030008E5030008F0
:10005000E5030008E503000861170008E503000850
:10006000E5030008E5030008E5030008E5030008D0
:10007000E5030008E5030008E5030008E5030008C0
:10008000E5030008E5030008E5030008E5030008B0
:10009000E5030008E5030008E5030008E5030008A0
:1000A000E5030008E5030008E5030008E503000890
:1000B000E5030008E5030008E5030008E503000880
:1000C000E5030008E5030008E5030008E503000870
:1000D000E5030008E5030008E5030008E503000860
:1000E000E5030008E5030008E5030008E503000850
:1000F000E5030008E5030008E5030008E503000840
:10010000E5030008E5030008E5030008E50300082F
:10011000E5030008E5030008E5030008E50300081F
:10012000E5030008E5030008E5030008E50300080F
:10013000E5030008E5030008E5030008E5030008FF
:10014000E5030008E5030008E5030008E5030008EF
:10015000E5030008E5030008E5030008E5030008DF
:10016000E5030008E5030008E5030008E5030008CF
:10017000E5030008E5030008E503000800000000AF
:10018000E5030008E503000800B583B001F0C6F8F8
:10019000384B394A1360394A1360394906E052F83E
:1001A000041B43F8041B9842F9D86146354B994229
:1001B00005D20A684B6801F10C0C8868F3E72E4BF6
:1001C0001A68314B9A4200D0FEE72C4B1A682F4B2D
:1001D0009A42F9D1274B2E4A13602E4A13602E4AB9
:1001E00000E002462D4B9A4209D2104650F8083BD7
:1001F00051689942F5D9002243F8042BF9E7244BC2
:100200001B6813B9234B1B6803B1FEE701F0FAF931
:10021000694601A801F012F8214C224BE41AA410FF
:10022000002504E01F4B53F8253098470135AC42B8
:10023000F8DC1D4C1D4BE41AA410002504E01B4BF8
:1002400053F8253098470135AC42F8DC0099019805
:1002500001F026FA0546164C164BE41AA41004E0E9
:10026000013C144B53F824309847002CF8DC284606
:1002700000F0B6FFBABADECA000000208C000020F1
:100280000004000818040008785634123254769896
:1002900090000020F02A002018040008280400081C
:1002A000280400082804000828040008280400087E
:1002B000280400082804000808B5FFF765FF00BE01
:1002C000FEE71EF0040F0CBFEFF30880EFF3098088
:1002D0007146414A10472DE9F04182B004460D466F
:1002E000124B5F6BD3F838809E6A1B6B13F0020FC2
:1002F00003D00E4BDB6A002B0BDB0D4800F0B0FF88
:10030000009543463A463146204601F013F800BEB8
:10031000FEE74BF6AB6101F087F80028EDD0034B08
:100320004FF00042DA6202B0BDE8F08100ED00E07B
:10033000A43E000800BEFEE71EF0040F0CBFEFF362
:100340000880EFF309807146244A10472DE9F041F7
:1003500082B004460D46084B5F6BD3F838809E6A26
:10036000064800F07DFF009543463A463146204658
:1003700000F0E0FF00BEFEE700ED00E0B43E000844
:100380001EF0040F0CBFEFF30880EFF309807146F5
:10039000134A10472DE9F04182B004460D46084B40
:1003A0005F6BD3F838809E6A064800F059FF0095CD
:1003B00043463A463146204600F0BCFF00BEFEE709
:1003C00000ED00E0C03E000800BEFEE700BEFEE714
:1003D00000BEFEE770470000D70200084D0300088A
:1003E0009503000800BEFEE708B500F051F802F0E2
:0E03F000E7FC012800D108BD01F026FBFBE769
:10040000F83F00080000002090000020F83F00089E
:10041000000000100000001090000020F42A0020CE
:080420000000001000000010B4
:100430007047000010B5044600F0B6FE064BA3FB63
:100440000030800900F094F8002221464FF0FF3080
:1004500000F04AF8002010BDD34D621008B50B4BD8
:100460001A6842F400721A601A6842F480621A60D4
:100470001A6842F480721A60032000F017F80F2007
:10048000FFF7D8FFFFF7D4FF002008BD003C024073
:10049000024A136801331360704700BF94000020C4
:1004A000014B1868704700BF9400002010B5044647
:1004B000C31E042B0FD80A4AD36823F4E0631B043D
:1004C0001B0C240204F4E064234343F0BF6343F4B1
:1004D0000033D36010BDA421024800F0B7FEEAE764
:1004E00000ED00E0A43C000870B505460C46164639
:1004F0000F2A24D80F2C27D81A4BDB68C3F302230A
:10050000C3F10701042928BF04211A1D062A20D996
:10051000033B012202FA01F101390C409C4002FA2E
:1005200003F3013B33401C43002D14DB2401E4B2F0
:1005300005F1604505F5614585F8004370BDBC21B6
:10054000094800F083FED5E7BD21074800F07EFE94
:10055000D2E70023DDE705F00F052401E4B2034BE9
:100560005C55EBE700ED00E0A43C000814ED00E072
:100570000138B0F1807F0BD24FF0E0235861054A7B
:10058000F02182F823100020986107221A61704739
:100590000120704700ED00E010B50446042800D0AB
:1005A00040B9042C0CD04FF0E022136923F004036F
:1005B000136110BD4FF4C271054800F047FEF0E72B
:1005C0004FF0E022136943F004031361F1E700BF29
:1005D000A43C00082DE9F04782B007460E46354B93
:1005E000984223D003F5806398421FD003F58063BF
:1005F00098421BD003F58063984217D003F58063BF
:10060000984213D003F5806398420FD003F58063BE
:1006100098420BD003F58063984207D003F58063BE
:10062000984203D0C521244800F010FE338833B32C
:100630007368012B1ED9112B1CD0022B1AD0122B40
:1006400018D01E4A934215D002F58012934211D061
:1006500002F5801293420DD0A2F5F812934209D010
:1006600002F58012934205D002F58012934201D028
:10067000032B09D1B368022B0BD8002456E0C62106
:100680000D4800F0E3FDD3E7C7210B4800F0DEFD85
:10069000F0E7C821084800F0D9FDEEE7D921064867
:1006A00000F0D4FD70E0EC21034800F0CFFD98E0AD
:1006B000082306E000000240D83C000800001110AA
:1006C00000238B40034302327C4941F822307C4BAB
:1006D0001A686FEA080322EA0801706810F4803F84
:1006E00001D048EA0201764A1160526803EA020129
:1006F000706810F4003F01D048EA0201704A51606E
:10070000926803EA0201706810F4801F01D048EA81
:1007100002016B4A9160D2681340716811F4001FA6
:1007200001D048EA0203664AD36001340F2C00F27C
:10073000C1800125A540336803EA050835EA0303B3
:10074000F3D17368022B01D0122B2DD13369DBB1A9
:10075000092B19D0012B17D0022B15D0032B13D046
:10076000042B11D0052B0FD0062B0DD0072B0BD04F
:10077000082B09D00A2B07D00B2B05D00C2B03D04C
:100780000D2B01D00F2B89D1E208083257F8220037
:1007900004F0070399000F238B4020EA030033691C
:1007A0008B40034347F822303A684FEA440A032358
:1007B00003FA0AF36FEA030922EA0302736803F0FB
:1007C000030303FA0AF313433B6073685A1E012ABA
:1007D00003D9112B01D0122B14D1F368032B3FF650
:1007E00062AFBA6809EA0202F36803FA0AF3134334
:1007F000BB607A6822EA05027368C3F30015A5405E
:1008000015437D60FB6809EA0309B36803FA0AF33C
:1008100043EA0903FB60736813F0805F85D0294BBE
:100820005A6C42F480425A645B6C03F48043019337
:10083000019BA208911C214B53F8210004F00303F3
:1008400099000F238B4020EA03001F4B9F423FF487
:1008500037AF03F580639F421ED003F580639F424C
:100860001CD003F580639F421AD003F580639F423A
:1008700018D003F580639F4216D003F580639F4232
:1008800014D003F580639F4212D003F580639F422A
:100890003FF40EAF092314E7012312E7022310E708
:1008A00003230EE704230CE705230AE7062308E7E2
:1008B000072306E702B0BDE8F08700BF003801401B
:1008C000003C0140003802400000024070B505467F
:1008D00014460E4621B1012C08D86CB1AE6170BD32
:1008E00040F2B111064800F0B1FCF4E74FF4D971C1
:1008F000034800F0ABFCF0E73604AE61EFE700BF61
:10090000D83C000830B583B0044603680F2B4FD89D
:10091000236813F0010F1ED06368012B01D9052B4A
:100920004CD1A84B9B6803F00C03042B0AD0A54BB9
:100930009B6803F00C03082B46D1A24B5B6813F4B1
:10094000800F41D09F4B1B6813F4003F03D06368B6
:10095000002B00F01682236813F0020F00F098803D
:10096000E368012B6BD823691F2B6ED8954B9B68CE
:1009700013F00C0F74D0934B9B6803F00C03082BFF
:1009800069D0E368002B00F0B0808F4B01221A6021
:10099000FFF786FD05468B4B1B6813F0020F40F0F6
:1009A0009480FFF77DFD401B6428F4D90320EDE11E
:1009B00040F21711854800F049FCA9E74FF48E7109
:1009C000824800F043FCACE77E4B00229A70FFF7B0
:1009D00067FD05467B4B1B6813F4003F08D0FFF70B
:1009E0005FFD401B41F288339842F3D90320CDE1EB
:1009F0002279744B9A70636883B1FFF751FD054605
:100A0000704B1B6813F4003FA5D1FFF749FD401B55
:100A100041F288339842F3D90320B7E1FFF740FD54
:100A20000546684B1B6813F4003F94D0FFF738FD70
:100A3000401B41F288339842F3D90320A6E140F2EB
:100A40005D11624800F002FC8DE74FF4AF715F4822
:100A500000F0FCFB8AE75B4B5B6813F4800F90D1DE
:100A6000584B1B6813F0020F03D0E368012B40F0D2
:100A70008A815448026822F0F8022169F82393FA27
:100A8000A3F3B3FA83F3DBB201FA03F31343036076
:100A9000236813F0080F53D06369012B37D86369BB
:100AA000002B3AD0484B0122C3F8802EFFF7F8FC08
:100AB0000546444B5B6F13F0020F41D1FFF7F0FC8A
:100AC000401B6428F5D9032060E13E48026822F00B
:100AD000F8022169F82393FAA3F3B3FA83F3DBB2A4
:100AE00001FA03F313430360D2E7374B00221A6085
:100AF000FFF7D6FC0546334B1B6813F0020FC7D037
:100B0000FFF7CEFC401B6428F5D903203EE14FF4EB
:100B1000CF712E4800F09AFBC1E72B4B0022C3F89F
:100B2000802EFFF7BDFC0546264B5B6F13F0020FCE
:100B300006D0FFF7B5FC401B6428F5D9032025E15A
:100B4000236813F0040F6DD0A368012B01D9052B86
:100B50001DD11C4B1A6C42F080521A641B6C03F0BE
:100B600080530193019B1A4A136843F48073136006
:100B7000FFF796FC0546164B1B6813F4807F0CD1DB
:100B8000FFF78EFC401B6428F5D90320FEE04FF4EC
:100B9000E4710E4800F05AFBDBE70A4B002283F8B1
:100BA0007020FFF77DFC0546064B1B6F13F0020F0C
:100BB00010D0FFF775FC401B41F288339842F3D9FF
:100BC0000320E3E00038024000004742083D0008EF
:100BD00000700040227A6F4B83F87020A36883B1C5
:100BE000FFF75EFC05466B4B1B6F13F0020F19D12C
:100BF000FFF756FC401B41F288339842F3D903209B
:100C0000C4E0FFF74DFC0546624B1B6F13F0020F6B
:100C100008D0FFF745FC401B41F288339842F3D9D6
:100C20000320B3E0A369022B38D8A369002B00F09E
:100C3000AC80584A926802F00C02082A00F0A880A2
:100C4000022B40F08A80E36913B1B3F5800F2BD1FA
:100C5000236A3F2B2ED8636AC03BF02B30D8A36A9F
:100C6000022B05D0042B03D0062B01D0082B2DD14D
:100C7000E36A043B0B2B2FD8474B00221A66FFF781
:100C80000FFC0546434B1B6813F0007F2AD0FFF78B
:100C900007FC401B6428F5D9032077E04FF403716B
:100CA0003E4800F0D3FAC0E740F215213B4800F07F
:100CB000CDFACDE740F21621384800F0C7FACAE76E
:100CC00040F21721354800F0C1FAC8E74FF4067129
:100CD000324800F0BBFACBE740F219212F4800F070
:100CE000B5FAC9E7E369226A1343616A47F6C0723D
:100CF00092FAA2F2B2FA82F2D2B201FA02F21343EB
:100D0000A26A5208013A4FF4403191FAA1F1B1FAC6
:100D100081F1C9B28A401343E16A4FF0706292FADE
:100D2000A2F2B2FA82F2D2B201FA02F21343194AE3
:100D30005360194B01221A66FFF7B2FB0446154BAC
:100D40001B6813F0007F06D1FFF7AAFB001B642885
:100D5000F5D903201AE0002018E00F4B00221A6694
:100D6000FFF79EFB04460B4B1B6813F0007F06D079
:100D7000FFF796FB001B6428F5D9032006E000204E
:100D800004E0012002E0012000E0002003B030BDBB
:100D90000120FBE70038024000004742083D000800
:100DA00070B504460D460368013B0E2B61D8072D34
:100DB00065D89E4B1B6803F00F03AB4280F0AF80F9
:100DC000EAB29A4B1A701B6803F00F03AB4240F073
:100DD0008E81236813F0020F18D0A3687BB1802B9B
:100DE0000DD0902B0BD0A02B09D0B02B07D0C02B4F
:100DF00005D0D02B03D0E02B01D0F02B45D18C4A6D
:100E0000936823F0F003A1680B439360236813F009
:100E1000010F00F028816368032B3CD86368012B25
:100E20003FD09A1E012A43D9814A126812F0020F5C
:100E300000F05F817E498A6822F0030213438B60D1
:100E4000FFF72EFB05466368012B38D0022B46D0F6
:100E5000032B54D0764B9B6813F00C0F00F00381EA
:100E6000FFF71EFB401B41F288339842F2D9032062
:100E700030E14FF41F716F4800F0E8F997E740F256
:100E80007D216C4800F0E2F993E740F29321694834
:100E900000F0DCF9B3E740F29A21664800F0D6F999
:100EA000BCE7634A126812F4003FC3D1012011E18C
:100EB0005F4A126812F0007FBCD101200AE15C4B4E
:100EC0009B6803F00C03042B00F0CD80FFF7E8FAD9
:100ED000431B41F288329342F1D90320FAE0544B8C
:100EE0009B6803F00C03082B00F0BD80FFF7D8FAD5
:100EF000401B41F288339842F1D90320EAE04C4B81
:100F00009B6803F00C03032B00F0AD80FFF7C8FAD9
:100F1000401B41F288339842F1D90320DAE023687C
:100F200013F0020F18D0A3687BB1802B0DD0902B4B
:100F30000BD0A02B09D0B02B07D0C02B05D0D02BC5
:100F400003D0E02B01D0F02B37D1394A936823F03E
:100F5000F003A1680B439360236813F0010F7AD06C
:100F60006368032B2FD86368012B32D09A1E012AA5
:100F700036D92F4A126812F0020F00F0BC802C49BB
:100F80008A6822F0030213438B60FFF789FA064652
:100F90006368012B2BD0022B38D0032B4CD0244B71
:100FA0009B6813F00C0F56D0FFF77AFA801B41F2C2
:100FB00088339842F3D903208CE040F2ED211D489C
:100FC00000F044F9C1E74FF43D711A4800F03EF9D2
:100FD000C9E7174A126812F4003FD0D1012079E026
:100FE000134A126812F0007FC9D1012072E0104B41
:100FF0009B6803F00C03042B2DD0FFF751FA831BE1
:1010000041F288329342F2D9032063E0084B9B6897
:1010100003F00C03082B1ED0FFF742FA801B41F2AD
:1010200088339842F2D9032054E000BF003C0240CC
:1010300000380240083D0008314B9B6803F00C0368
:10104000032B08D0FFF72CFA801B41F2883398421B
:10105000F2D903203EE0EAB22A4B1A701B6803F073
:101060000F03AB4249D1236813F0040F14D0E36897
:101070005BB1B3F5805F08D0B3F5A05F05D0B3F5E1
:10108000C05F02D0B3F5E05F25D11D4A936823F419
:10109000E053E1680B439360236813F0080F15D009
:1010A00023695BB1B3F5805F08D0B3F5A05F05D0CD
:1010B000B3F5C05F02D0B3F5E05F12D1104A936878
:1010C00023F46043216943EAC10393600F20FFF7D3
:1010D000B1F9002070BD40F24E310B4800F0B6F877
:1010E000D3E740F25531084800F0B0F8E6E70120B8
:1010F000F0E70120EEE70120ECE70120EAE700BF7E
:1011000000380240003C0240083D0008234B9B6829
:1011100003F00C03042B3DD0082B3DD11F4A53682C
:1011200003F03F03526812F4800F21D01C48B0FB3B
:10113000F3F01A4B5A6847F6C0731A4093FAA3F3B8
:10114000B3FA83F3DBB222FA03F303FB00F0134B91
:101150005B6803F440334FF4403292FAA2F2B2FAE1
:1011600082F2D2B2D34001335B00B0FBF3F07047A0
:101170000C48B0FBF3F0094B5A6847F6C0731A40AD
:1011800093FAA3F3B3FA83F3DBB222FA03F303FB7C
:1011900000F0DCE702487047024870470038024020
:1011A00000127A000024F40008B5FFF7AFFF094BE6
:1011B0009A6802F0F002F02393FAA3F3B3FA83F3F0
:1011C000DBB222FA03F3044AD35CD840034B186025
:1011D00008BD00BF00380240383D00081C00002058
:1011E000FEE7000008B5034800F054F80120FFF7BF
:1011F000F7FF00BF483D000808B503460C4A1268D7
:101200005AB10B4A1068033323F003030344094A1D
:10121000934206D8064A136008BD054A0649116084
:10122000EFE702F081F80C2303604FF0FF30F3E7A3
:101230009800002000FC0120F42A00200123036014
:10124000014B0B60704700BF0400002008B50A4640
:101250000146024800F004F8FFF7C4FF5C3D0008B7
:101260000FB400B583B004AB53F8042B0193802175
:10127000074802F0B9F8002804DC03B05DF804EB7D
:1012800004B070470146024800F044F8F5E700BF9B
:10129000A400002010B5044602F072F80146204672
:1012A00000F038F80121024800F034F810BD00BF0A
:1012B000203E00082DE9F04385B004460F46435612
:1012C00033BB042528462146ABBE0446384605B04C
:1012D000BDE8F08314F901CB04AA1A4402F810CC3B
:1012E0000133AB42F6D304AA1344002203F8102CB6
:1012F0004FF00408E94640464946ABBE8046761B9F
:10130000002EE3D03546102E28BF10250023E8E735
:101310000E46F5E708B5FFF7CDFF08BD08B500F0AC
:1013200093F8024A024B9A6008BD00BF0000000813
:1013300000ED00E0F8B504460D4617461E46274866
:10134000FFF78EFF21682648FFF78AFF616825486E
:10135000FFF786FFA1682448FFF782FFE168234872
:10136000FFF77EFF21692248FFF77AFF6169214874
:10137000FFF776FFA1692048FFF772FFE1691F4878
:10138000FFF76EFF1E48FFF76BFF29461D48FFF76A
:1013900067FF1D4CE16A1D48FFF762FF216B1C4887
:1013A000FFF75EFFE16B1B48FFF75AFF15F0800F58
:1013B0000AD115F4004F0CD11748FFF751FF0699D9
:1013C0001648FFF74DFFF8BD39461548FFF748FFAF
:1013D000EFE731461348FFF743FFEDE7883D00088C
:1013E000983D0008A83D0008B83D0008C83D000829
:1013F000D83D0008E83D0008F83D0008083E000818
:10140000183E0008243E000800ED00E0343E0008CD
:10141000443E0008543E0008843E00088C3E00080C
:10142000643E0008743E000883691A888A4201D02D
:10143000002070470268033A012A01D90020704752
:1014400002338361012070470C4B1A6842F001029D
:101450001A60002199601A6822F0847222F48032A6
:101460001A60074A5A601A6822F480221A60D9600A
:10147000044B4FF000629A60704700BF0038024092
:101480001030002400ED00E0224B9B6803F00C03B9
:10149000042B15D0082B17D01BB11F4B1F4A1A6005
:1014A00002E01D4B1D4A1A601A4B9B68C3F30313DD
:1014B0001B4AD35CDAB218490B68D3400B60704703
:1014C000154B184A1A60EFE7124B59685A6802F038
:1014D0003F0211F4800F13D0124BB3FBF2F30D4A0D
:1014E0005268C2F3881202FB03F30A4A5268C2F33D
:1014F000014201325200B3FBF2F3074A1360D3E713
:10150000064BB3FBF2F3034A5268C2F3881202FBA4
:1015100003F3EAE7003802401C0000200024F40036
:101520000C00002000127A0030B587B00C4A136B13
:1015300043F0080313634FF4805501950123029390
:10154000022204920393074C01A92046FFF742F8B8
:10155000002229462046FFF7B9F907B030BD00BF89
:1015600000380240000C0240FEE7FEE710B594B0E0
:10157000214B1A6C42F080521A641B6C03F08053AA
:101580000193019B1D4B1A6842F480421A601B684C
:1015900003F480430293029B0123089309930224DE
:1015A0000E944FF480030F93082310934FF4A87305
:1015B000119312940723139308A8FFF7A3F90F239D
:1015C00003930494002305934FF4A05306934FF420
:1015D00080530793052103A8FFF7E2FBFFF7E4FD23
:1015E000074BA3FB00308009FEF7C2FF0420FEF783
:1015F000D3FF14B010BD00BF00380240007000409F
:10160000D34D621008B5FEF729FFFFF7AFFFFFF7D4
:101610003BFF08BD08B51748FFF73CFE00234FF01D
:10162000FF3219461448006800F0BCFD0128F2D1D1
:101630004FF0E0239A69114C22601A6922F00102EE
:101640001A610F48FFF726FE00224FF480510D4823
:10165000FFF73CF901F09EF801460B4B1A6823682E
:10166000D21A22F07F420948FFF7FAFD084B4022C8
:101670001A60D0E7D03E0008300100202801002089
:10168000E83E0008000C024024010020F83E00085B
:1016900000E100E04FF0E02305221A6170470000EE
:1016A00030B58BB0FFF7F6FF03220021012000F0D8
:1016B0000DFC214B186020B100231A46194600F09A
:1016C00031FC00234FF0FF3219461B48006800F040
:1016D00069FDFFF729FF194B19681948FFF7C0FD8D
:1016E000184A136B43F00103136301230593164B50
:1016F000069300240894079405A91448FEF76AFF8E
:10170000134BE02283F8062340221A6003940294CC
:10171000104D01950423009323464FF480720E4927
:101720000E4800F02BFF00F0F3FF286800F0B4FF34
:1017300020460BB030BD00BF300100201C0000204F
:10174000083F00080038024000001110000002406D
:1017500000E100E02C010020203F000815160008E1
:1017600000B583B01448FFF77BFD144B4022C3F84B
:10177000802001224FF480511148FFF7A7F84FF065
:10178000E0236FF07F425A611A6942F001021A6148
:101790009A690C4B1A6001A90B4B186800F0B6FC53
:1017A000019B2BB14FF0E0234FF08052C3F8042D82
:1017B00003B05DF804FB00BF283F000800E100E033
:1017C000000C02402401002030010020074B23F0D0
:1017D0000703074A136000205060064A42F2F8717E
:1017E0005160106059601A60704700BF3C010020D2
:1017F000402900203429002070B5044600F0C2FFC3
:10180000224B1B687BB134B1083414F0070F02D0AF
:1018100024F007040834621E42F2F6739A4230D86C
:101820001B490B6807E0FFF7D1FF184B01221A6034
:10183000E9E7194613465A68A24202D21A68002AFA
:10184000F7D1144A93421ED00D6808351A680A6011
:101850005A68121B102A0BD91E1972605C607468DA
:101860000B4A104612685168A142FAD332600660F2
:101870005968094A13685B1A136001F037F8284663
:1018800070BD0025F9E70025F7E700BF3C290020DF
:10189000402900203429002020000020C8B138B59C
:1018A0000446A0F1080500F06DFF54F8040C094B44
:1018B00019461B685A688242FAD344F8083C0D6006
:1018C00054F8041C044A13680B44136001F00EF82A
:1018D00038BD7047402900202000002006480068DD
:1018E000006880F3088862B661B6BFF34F8FBFF31C
:1018F0006F8F00DF00BF000008ED00E04FF0807345
:1019000040F8043C40F8081C034B40F80C3C40F8FD
:10191000202C4038704700BF69190008074B196830
:101920000868B0E8F00F80F30988BFF36F8F4FF0BD
:10193000000080F311884EF00D0E7047AC29002096
:101940004FF0E0234FF08052C3F8042DBFF34F8FC8
:10195000BFF36F8F7047EFF311804FF0BF0181F33A
:10196000118870470020000008B5064B1B68B3F1D2
:10197000FF3F02D1FFF7EFFFFEE7EE210248FFF73E
:10198000F4FDF7E724000020303F000808B5FFF71A
:10199000E2FF0C4B1A6801321A60BFF34F8FBFF39E
:1019A0006F8F1B68012B00D008BD4FF0E023D3F8E8
:1019B000043D13F0FF0FF7D040F289110248FFF702
:1019C000D4FDF1E724000020303F000880F31188A7
:1019D0007047000008B5094B1B682BB1074A136814
:1019E000013B136033B108BD4FF4C8710448FFF7E1
:1019F000BCFDF3E70020FFF7E9FFF4E72400002037
:101A0000303F0008EFF30980BFF36F8F0D4B1A686A
:101A100020E9F00F10602DE908404FF0BF0080F37F
:101A2000118801F031F84FF0000080F31188BDE813
:101A3000084019680868B0E8F00F80F30988BFF320
:101A40006F8F7047AC29002008B5FFF784FF00F0C6
:101A5000C1FE28B14FF0E0234FF08052C3F8042DAF
:101A60000020FFF7B3FF08BD70B53B4B1D688542F2
:101A700000D305464FF0E0231A6922F001021A61F3
:101A80009C696E1E354B1B6803FB0644344B1B6878
:101A9000A34200D2E41A72B601F074F968B94FF0AB
:101AA000E0239A695A611A6942F001021A612B4ACD
:101AB0001268013A5A6162B670BD4FF0E0235C6172
:101AC00000229A611A6942F001021A6125B1BFF33E
:101AD0004F8F30BFBFF36F8F4FF0E022136923F0B9
:101AE0000101116162B613F4803F25D01B4B1A68C7
:101AF0004FF0E0239B691C1B1444013C184B1B68EE
:101B0000A34201D8A24200D2541E4FF0E0235C61F0
:101B10004FF0E0240023A361FFF738FF236943F06F
:101B200001032361304600F03BFE0C4B1B68013B78
:101B30006361FFF74FFFBFE7084B1A6802FB05F52B
:101B40004FF0E0218B69EE1AB6FBF2F606FB02229B
:101B50005D1B15444D61DBE7582900205429002006
:101B600050290020074B084A1A60084B63221A606C
:101B7000074B2D221A604FF0E023064A5A610722D4
:101B80001A61704754290020409002005829002013
:101B9000502900203F90020000B583B0224B1A78F4
:101BA000D2B20192FF221A701B78DBB28DF803309B
:101BB0009DF8033003F0BF031C4A13701C4B07222F
:101BC0001A6009E01A4A1368013B13609DF803305C
:101BD0005B00DBB28DF803309DF8033013F0800F0B
:101BE000F0D1134A13681B02136003F4E06313601F
:101BF000019BDBB20C4A13704FF0E023D3F8202D89
:101C000042F47F02C3F8202DD3F8202D42F07F420A
:101C1000C3F8202DFFF7A6FF064B00221A60FFF73E
:101C20005DFEFFF7A1FE00BF00E400E048290020B0
:101C30004C2900202400002008B5EFF305830F2B6A
:101C400006D90F4A9B5CDBB20E4A12789A420AD838
:101C50004FF0E023D3F80C3D03F4E0630A4A126826
:101C6000934206D808BD40F2C5210848FFF77DFC25
:101C7000EEE740F2D5210548FFF777FCF2E700BF19
:101C8000F0E300E0482900204C290020303F000804
:101C900000F1080343604FF0FF328260C3600361CC
:101CA00000230360704700230361704743684B6063
:101CB0009A688A6051609960086103680133036023
:101CC000704730B40D68B5F1FF3F11D000F1080343
:101CD0001C465B681A68AA42FAD963684B6099602F
:101CE0008C606160086103680133036030BC704739
:101CF0000469F2E70369416882688A60416851605B
:101D00005A68824205D000220261186801381860C2
:101D1000704782685A60F6E710B50446FFF736FE52
:101D2000A26BE36B9A4204D00024FFF753FE2046D7
:101D300010BD0124F9E710B50446FFF727FEA36B99
:101D400023B90124FFF746FE204610BD0024F9E721
:101D500038B504461546026C62B9036823B1002009
:101D6000A36B0133A36338BD406801F089F80023F9
:101D70006360F5E76DB9806801F0ECFA226CA36846
:101D80001344A360626893421CD32368A36028466F
:101D9000E6E7C06801F0DEFA226C5142E3689B1A64
:101DA000E3602268934202D263680B44E360022D31
:101DB00001D00020D4E7A36B33B1A36B013BA36335
:101DC0000020CDE72846CBE70020C9E708B5034649
:101DD000026C62B10846D9681144D960D3F804C0D6
:101DE000614501D31968D960D96801F0B3FA08BD1B
:101DF00010B50446FFF7CAFD02E0A36C013BA364E3
:101E0000A36C002B0ADD636A43B104F1240000F0E7
:101E100019FF0028F1D000F0AFFFEEE74FF0FF33DD
:101E2000A364FFF7D7FDFFF7B1FD02E0636C013B50
:101E30006364636C002B0ADD236943B104F1100075
:101E400000F000FF0028F1D000F096FFEEE74FF021
:101E5000FF336364FFF7BEFD10BD000038B50D46CB
:101E60000446C8B1FFF792FD2368E26B216C01FBC9
:101E7000023060600020A063A360013A02FB0133DE
:101E8000E3604FF0FF336364A364A5B923694BB9E2
:101E9000FFF7A0FD012038BD4FF484710A48FFF719
:101EA00064FBDFE704F1100000F0CCFE0128EFD165
:101EB000FFF746FDECE704F11000FFF7E9FE04F13F
:101EC0002400FFF7E5FEE3E7583F000870B50C4635
:101ED000064690B1BCB104FB06F001304C30FFF770
:101EE0008BFC054688B1B4B92860EE632C640121EF
:101EF0002846FFF7B3FF284670BD40F2431108485B
:101F0000FFF733FBE6E72046E8E740F27F1104489D
:101F1000FFF72BFBEFE700F14C030360E5E700BFA1
:101F2000583F0008F0B585B00F4601921D460446A3
:101F300048B177B1022D15D000F042FF08B9019BDE
:101F4000CBB900264AE04FF41A714348FFF70DFB66
:101F5000EFE7236C002BEDD040F269213E48FFF7FC
:101F600004FBE7E7E36B012BE6D040F26A213A4835
:101F7000FFF7FBFAE0E740F26D213748FFF7F5FA8B
:101F8000DFE72A4639462046FFF7E2FE636A2BB9AF
:101F900068B9FFF71FFD012005B0F0BD04F1240072
:101FA00000F050FE0128F4D1FFF7CAFCF1E7FFF77B
:101FB000C7FCEEE7FFF70EFD0020EDE702A800F0FA
:101FC00089FE012617E0002363641EE00023A3645A
:101FD0001FE02046FFF70CFF00F088FCFFF7D6FC5F
:101FE000A26BE06B8242CCD3022DCAD001980028AC
:101FF000E0D0002EE2D0FFF7EDFC00F0C3FBFFF7CE
:10200000C5FC636CB3F1FF3FDDD0A36CB3F1FF3FC0
:10201000DCD0FFF7DFFC01A902A800F071FE98B93F
:102020002046FFF779FE0028D3D0019904F1100073
:1020300000F094FD2046FFF7DBFE00F057FC00287F
:10204000CCD1FFF77DFCC9E72046FFF7D1FE00F0B9
:102050004DFC0020A0E700BF583F00082DE9F041EB
:102060000E4690461D460446A0B1CEB1022D20D0AA
:10207000FFF7E2FDFFF76FFC0746A26BE36B9A42A6
:1020800020D3022D1ED000243846FFF79FFC2046A7
:10209000BDE8F08140F225411B48FFF766FAE4E70E
:1020A000236C002BE2D040F226411748FFF75DFA7F
:1020B000DCE7E36B012BDBD040F227411248FFF74E
:1020C00054FAD5E72A4631462046FFF741FEA36C75
:1020D000B3F1FF3F04D0A36C0133A3640124D3E721
:1020E000636A0BB90124CFE704F1240000F0AAFDD4
:1020F00030B1B8F1000F05D00124C8F80040C3E7A3
:102100000124C1E70124BFE7583F000870B50E461F
:102110000446C0B1236CE3B9236803B3FFF78CFD19
:10212000FFF719FC0546A26BE36B9A422DD2A36B15
:102130000133A363A36CB3F1FF3F19D0A36C013348
:10214000A364012422E04FF498611548FFF70DFACB
:10215000E0E740F2C4411248FFF707FADCE76368A2
:10216000002BDBD040F2C9410D48FFF7FEF9D5E75F
:10217000636A0BB9012409E004F1240000F062FD58
:1021800048B156B10124346000E000242846FFF72E
:102190001DFC204670BD0124F8E70124F6E700BFCE
:1021A000583F0008F0B585B00E4601921F46044620
:1021B00038B166B100F004FE08B9019B83B900256F
:1021C0005CE040F25C514C48FFF7CFF9F1E7236C3B
:1021D000002BEFD040F25D514748FFF7C6F9E9E721
:1021E0004FF4AC614448FFF7C0F9E8E7E5683146D1
:1021F0002046FFF7EBFDC7B9A36B013BA363236840
:1022000033B1236943B9FFF7E5FB012005B0F0BD09
:1022100000F08AFE6060F4E704F1100000F012FDA7
:102220000128F0D1FFF78CFBEDE7E560636A002B36
:10223000E9D004F1240000F005FD0028E3D0FFF709
:102240007FFBE0E7FFF7C6FB0020DFE702A800F016
:1022500041FD01251CE00023636423E00023A36407
:1022600024E0FFF793FB606800F0BAFDFFF7B2FBD4
:102270002BE02046FFF7BCFD00F038FBFFF786FBA4
:10228000A26B002AB2D1019A002ADBD0002DDDD04A
:10229000FFF7A0FB00F076FAFFF778FB636CB3F171
:1022A000FF3FD8D0A26CB2F1FF3FD7D0FFF792FB2F
:1022B00001A902A800F024FDB0B92046FFF73BFDBC
:1022C0000028D6D02368002BCBD0019904F124003C
:1022D00000F044FC2046FFF78BFD00F007FB0028D0
:1022E000CCD1FFF72DFBC9E72046FFF781FD00F0B9
:1022F000FDFA00208AE700BF583F00080023092BA1
:102300000CD8074A52F833200AB10133F7E7044AE0
:1023100042F8331002EBC30358607047704700BFA8
:102320005C29002070B504460E461546FFF72EFBCB
:10233000636CB3F1FF3F0BD0A36CB3F1FF3F0AD046
:10234000FFF748FBA36B4BB12046FFF751FD70BD73
:1023500000236364F0E70023A364F1E72A463146D3
:1023600004F1240000F034FCEEE70000074B1B688A
:10237000D86A48B9064B1B68012B06D8054B18686C
:10238000054B1B68C01A704700207047AC2900201D
:10239000B82900205C2A0020A42A0020084B1B68D2
:1023A0001B6823B9074B4FF0FF321A607047044B8C
:1023B0001B68DB68DB685A68024B1A60704700BF15
:1023C000B02900205C2A002010B5044628B16269BB
:1023D0000A4B9A4207D0002010BD40F266510848CF
:1023E000FFF7C3F8F3E7A36A064A934202D01BB192
:1023F0000020F1E70020EFE70120EDE77C2A002034
:102400006C3F0008642A002010B50446006BFFF7FB
:1024100045FA2046FFF742FA10BD70B505460E4654
:1024200071B1B6B16820FFF7E7F9044668B10663F9
:1024300024B1AA00A521206B00F09AFF204670BDB0
:102440008000FFF7D9F90646EBE73046FFF726FA9A
:10245000EEE73446F2E770B50446164600230F2B2C
:1024600007D8CD56E01880F83450C85608B101336B
:10247000F5E7002384F84330042E00D90426E662F1
:1024800066640025A564201DFFF70DFC04F118000B
:10249000FFF709FC2461C6F10506A66164622B46BC
:1024A00006E003F1120204EB8202002151600133C5
:1024B000042BF6D90023236684F8643070BD000035
:1024C00038B5002407E004EB840293000E4818445A
:1024D000FFF7DEFB0134042CF5D90C4D2846FFF73D
:1024E000D7FB0B4C2046FFF7D3FB0A48FFF7D0FB86
:1024F0000948FFF7CDFB0948FFF7CAFB084B1D60F1
:10250000084B1C6038BD00BFB8290020342A0020C9
:10251000482A0020642A0020902A00207C2A0020DB
:10252000B0290020B429002010B50F4B1B6858605B
:102530000E4B1B68834207D90D4B18680A4B19686C
:102540000431FFF7BEFB10BD04460A4B1868064B6A
:1025500019680431FFF7B5FB074B1B68A342F2D99A
:10256000054B1C60EFE700BFAC290020A42A002027
:10257000B4290020B02900205C2A00202DE9F04772
:1025800082B00F4614461E46DDF828808246002899
:1025900035D0B8F1040F38D80C992046FFF73DFF2D
:1025A0000546002862D0036B04F1804909F1FF3928
:1025B00003EB890323F0070900940D9B424639463B
:1025C000FFF749FF324651464846FFF797F9286022
:1025D0000B9B03B11D60FFF7D9F9284A136801333B
:1025E0001360274B1B68B3B1264B1B68C3B9244B40
:1025F0001B68DB6A434513D8214B1D6010E040F295
:102600002D212148FEF7B1FFC3E740F22E211E48DD
:10261000FEF7ABFFC0E71A4B1D601368012B1ED0FD
:102620001A4A136801331360E86A01238340184A89
:1026300011680B43136000EB8000291D154B03EB61
:102640008000FFF733FBFFF7C5F90E4B1B6893B112
:102650000B4B1B68DB6A434504D3012008E0FFF7FE
:102660002FFFDDE7FFF76CF9012001E04FF0FF30AD
:1026700002B0BDE8F0870120FAE700BF1C2A002065
:10268000AC290020782A00206C3F0008282A00206E
:10269000302A0020B829002038B5044670B164B152
:1026A000174B1B68A34208D0FFF770F92046FFF7CD
:1026B0008BFE012808D0FFF78DF938BD4FF4B261C9
:1026C0001048FEF752FFEAE7251D2846FFF712FBE8
:1026D000E06A012383400C4A11680B43136000EB4E
:1026E00080002946094B03EB8000FFF7DFFAE26A1E
:1026F000034B1B68DB6A9A42DDD3FFF721F9DAE767
:10270000AC2900206C3F0008302A0020B8290020A6
:1027100000B585B0002303930293019300934FF417
:10272000807212491248FFF729FF012805D00128BD
:1027300006D0A0B105B05DF804FB00F071FCF6E72F
:10274000FFF709F90B4B4FF0FF321A600A4B0122D9
:102750001A600A4B00221A60FFF71EFAEAE740F2FD
:1027600051610748FEF701FFE4E700BF803F000822
:102770002D2A00085C2A0020782A0020A42A0020A4
:102780006C3F0008024A136801331360704700BFB2
:10279000242A0020014B1868704700BFA42A00209B
:1027A00010B50446084B1B680344084A126893425C
:1027B00004D8054B186804441C6010BD40F28B71AE
:1027C0000348FEF7D2FEF4E7A42A00205C2A00208A
:1027D0006C3F0008F8B5394B1B68002B62D1384BB1
:1027E0001A6801321A601F687FB9364B1B681B6874
:1027F000E3B9344A1168344B186810601960334AE1
:10280000136801331360FFF7C9FD314B1B68BB42EE
:102810003ED900262F4B1B68DB6A03EB83039A002B
:102820002D4B9B58012B42D9012640E040F2AA7162
:102830002A48FEF79AFEDCE70126224B1B681B683C
:1028400043B3204B1B68DB68DC6863689F4226D378
:10285000251D2846FFF74EFAA36A1BB104F11800A4
:10286000FFF748FAE36A01229A401D4908680243CB
:102870000A6003EB83039A00294617481044FFF7C8
:1028800015FAE26A134B1B68DB6A9A42D4D2D4E78A
:102890000026D2E70E4B4FF0FF321A60BAE70C4A1F
:1028A0001360B7E70F4A13680133136000260E4B1D
:1028B0001B6803B101263046F8BD00BF242A002062
:1028C000A42A0020B0290020B4290020602A00207A
:1028D0005C2A0020AC290020B82900206C3F0008A9
:1028E000302A0020202A0020A82A002038B52F4BAB
:1028F0001B686BB1FFF74AF82C4B1A68013A1A6053
:102900001B68002B4DD12A4B1B683BB9002449E0C2
:1029100040F28E612748FEF728FEEBE7264B1B6846
:102920001BB3254BDB68DC6804F11800FFF7E2F904
:10293000251D2846FFF7DEF9E06A012383401F4A80
:1029400011680B43136000EB800029461C4B03EB1E
:102950008000FFF7ABF9E26A1A4B1B68DB6A9A4208
:10296000DCD3194B01221A60D8E7184B1B684BB90E
:10297000154B1C68012C11D0002413E0134A136876
:10298000013B1360114B1B68002BF1D0FFF722FFB6
:102990000028F3D00C4B01221A60EFE7FEF7D0FFBE
:1029A00000E00024FFF716F8204638BD242A002056
:1029B0001C2A00206C3F0008642A0020302A0020D6
:1029C000B8290020AC290020A82A0020202A0020B5
:1029D000134B1B6813B310B5FFF7D4FE114B1C68E3
:1029E000FFF784FF24B90E4B1B68002BF4D110BDF8
:1029F000FEF7CCFF0B4BDB68DC68201DFFF77AF994
:102A0000094A1368013B1360054A1368013B1360D0
:102A1000FEF7E0FF2046FFF7F7FCE4E7704700BF52
:102A20002C2A0020902A00201C2A002008B503E050
:102A3000FFF79CFC012808D8FFF7CAFF0E4B1B6864
:102A4000012BF5D9FEF77CFFF2E7FFF79BFE0B4B5E
:102A50001A680B4B1B689A4208D3FFF787FC0128C2
:102A600001D9FFF701F8FFF741FFE5E74FF42D61CA
:102A70000448FEF77AFDF0E7B82900205C2A002020
:102A8000A42A00206C3F00082D4B1B681BB12D4B66
:102A900001221A60704710B52A4B00221A602A4B97
:102AA0001A6812681B681B6B9A422DD9264B1B684B
:102AB00014222649186B00F03DFC60BB244B1C68B7
:102AC000B4FA84F4E4B2C4F11F0404EB8402214B91
:102AD00053F8223033B31F4A04EB840302EB830321
:102AE00059684968596004EB84039B000833134418
:102AF00099421DD004EB8404164B03EB84046368F5
:102B0000DA68114B1A6010BD0F4B18681968343120
:102B1000FEF72AFDCAE70C4B186819683431FEF736
:102B200023FDCBE740F6C9010B48FEF71EFDD2E7B7
:102B3000496804EB840302EB83035960DAE700BFC2
:102B4000242A0020A82A0020AC290020883F000861
:102B5000302A0020B82900206C3F000870B50C46D0
:102B60000646E8B1154D296818313046FFF7A9F837
:102B700028680430FFF7BEF848B92B68DA6A0123E9
:102B800003FA02F20E490B6823EA02030B60B4F168
:102B9000FF3F0BD00B4B18682044FFF7C5FC70BDFE
:102BA00040F6DB010848FEF7E0FCDBE7034B196861
:102BB00004310648FFF77AF8F1E700BFAC2900209E
:102BC000302A0020A42A00206C3F00087C2A002024
:102BD000F8B50D4614460746E0B1154E3168183178
:102BE0003846FFF763F830680430FFF783F848B9D8
:102BF0003368DA6A012303FA02F20E490B6823EA0A
:102C000002030B60012C0BD00B4B18682844FFF714
:102C10008BFCF8BD40F65A110848FEF7A6FCDCE72D
:102C2000034B196804310648FFF740F8F1E700BF8D
:102C3000AC290020302A0020A42A00206C3F000884
:102C40007C2A002038B5C368DC683CB304F1180561
:102C50002846FFF74FF8184B1B682BBB251D28464D
:102C6000FFF748F8E06A01238340144A11680B43D8
:102C7000136000EB80002946114B03EB8000FFF747
:102C800015F8E26A0F4B1B68DB6A9A4211D90124DE
:102C90000D4B1C60FFF782FB204638BD40F6B51196
:102CA0000A48FEF762FCD1E729460948FEF7FEFF15
:102CB000E7E70024EEE700BF242A0020302A0020A6
:102CC000B8290020AC290020A82A00206C3F000869
:102CD000642A002010B5044630B1064B1B682360FF
:102CE000054B1B68636010BD40F615210348FEF7D5
:102CF0003CFCF2E7602A0020A42A00206C3F000878
:102D000038B50C460546B0B1DCB1FEF73FFE174BB7
:102D10001A682368B3F1FF3F21D028681449096875
:102D2000884202D0696891421ED96968501A83426C
:102D30000DD8012414E040F61F210E48FEF715FCC3
:102D4000E2E74FF422610B48FEF70FFCDDE78A1A39
:102D5000134423602846FFF7BDFF002400E0002451
:102D6000FEF738FE204638BD0124F9E7A42A0020EA
:102D7000602A00206C3F0008014B01221A60704756
:102D8000A82A00200A4B1B685BB90A4B1B6853B981
:102D9000094B1A68094B1B68013B9A4205D0012078
:102DA000704700207047002070470220704700BF26
:102DB000642A0020A82A00207C2A00201C2A002047
:102DC000054B1B6833B1054B1B680BB100207047E6
:102DD0000220704701207047782A0020242A002012
:102DE000002845D038B50446C36A224A1268D26A20
:102DF000934214D28269002A05DB1E4A1268D26A05
:102E0000C2F105028261616903EB83031A4A02EB96
:102E10008303994204D0174B1B68DB6AE36238BD19
:102E2000251D2846FEF766FF90B1124B1B68D86A35
:102E3000E06201238340114A11680B43136000EBE9
:102E4000800029460C4B03EB8000FEF72FFFE6E7DE
:102E5000E36A03EB8301084A52F82120002AE4D1F7
:102E600001229A4005490B6823EA02030B60DCE764
:102E7000704700BFAC290020B8290020302A00206C
:102E8000002845D038B50446234B1B68834204D044
:102E900040F6A8512148FEF768FBA36C4BB1A36C28
:102EA000013BA364E16A626C914233D03BB10020E4
:102EB00038BD40F6AA511948FEF757FBEFE7251D2C
:102EC0002846FEF717FF68B9E36A03EB8301144A4B
:102ED00052F8212032B901229A4012490B6823EAA4
:102EE00002030B60606CE062C0F10503A361012482
:102EF00004FA00F30B4A11680B43136000EB8000E7
:102F00002946074B03EB8000FEF7D0FE2046CFE7B3
:102F1000002070470020CBE7AC2900206C3F000860
:102F2000B8290020302A0020054B1B6823B1044B30
:102F30001A68936C01339364014B1868704700BFA3
:102F4000AC290020064B1A681368B3FA83F35B09B7
:102F5000036013B9D368186870470020704700BF3A
:102F6000AC2A002008B54160006191420CD8D21A09
:102F700083699A4201D3012008BD011D094B1868DD
:102F8000FEF79FFE0020F7E79A4201D2994206D24F
:102F9000011D054B1868FEF794FE0020ECE70120A8
:102FA000EAE700BFB02A0020AC2A002038B5FEF7BF
:102FB000EDFC144B1B6813B1FEF70CFD38BD124D30
:102FC0002846FEF765FE114C2046FEF761FE104BC9
:102FD0001D60104B1C60002210210A20FEF776FFB6
:102FE000084B186038B1074B18680028E4D00A492C
:102FF000FFF784F9E0E74FF444710848FEF7B5FAAB
:10300000F1E700BFE02A0020B42A0020C82A0020EF
:10301000AC2A0020B02A0020B43F00089C3F0008E2
:1030200010B584B0FFF7C2FF0D4B1B68ABB1002396
:10303000039302930193032200924FF48072094993
:103040000948FFF79BFA044620B94FF487710748F7
:10305000FEF78BFA204604B010BD0024F5E700BF50
:10306000E02A0020BC3F0008113300089C3F000804
:1030700010B584B09C46134B1C6804B300910192B8
:103080000290052913DCFFF79BFE022807D00023DE
:103090001A4669460B480068FEF744FF0DE000231E
:1030A000069A694607480068FEF73CFF05E00023E2
:1030B000624669462046FEF7D1FF04B010BD0020ED
:1030C000FBE700BFE02A002070B582B0194B1B68F7
:1030D0001A683AB3DB681E68DC68251D2846FEF7CF
:1030E00009FE636A20469847E369012BEED1A36984
:1030F00033449E4207D26360246129460D4B186811
:10310000FEF7DFFDE2E7002100910B463246204644
:10311000FFF7AEFF0028D9D140F2F2210648FEF7B2
:1031200024FAD3E7054A106802490860136002B028
:1031300070BD00BFAC2A00209C3F0008B02A0020D0
:1031400038B50546FFF726FB0446074B1B6883424C
:1031500005D800232B60044B1C60204638BDFFF7C8
:10316000B3FF01232B60F6E7DC2A002070B582B0A4
:1031700006460D4613490968C968CC68201DFEF74C
:10318000B9FDE169012904D0636A2046984702B07D
:1031900070BDA16933462A4631442046FFF7E2FE5E
:1031A0000128F1D1002100910B4632462046FFF75D
:1031B0005FFF0028E8D14FF4C8710348FEF7D5F946
:1031C000E2E700BFAC2A00209C3F000870B582B047
:1031D00006460C46FFF7D6FA01A8FFF7B1FF019BA0
:1031E000C3B905460CB9B0420AD22246711B0B4B3B
:1031F0001868FFF797F8FFF779FB40B102B070BD90
:10320000FFF774FB29463046FFF7B0FFF6E7FEF7FD
:1032100097FBF3E7FFF76AFBF0E700BFE02A002027
:1032200030B589B002E0049B002B10DA00231A4667
:1032300004A935480068FEF7B5FF002861D0049B5B
:10324000002BF0DA07990698059B9847EBE7069C58
:10325000636913B1201DFEF74DFD03A8FFF770FF52
:103260000546049B092BE1D801A252F823F000BFC8
:103270009932000899320008993200082D3200086E
:10328000D9320008FB320008993200089932000850
:103290002D320008D9320008059BA1690246194465
:1032A0002046FFF75FFE0128C0D1636A2046984799
:1032B000E369012BBAD1A269002100910B46059860
:1032C00002442046FFF7D4FE0028AFD140F29621F9
:1032D0000E48FEF74AF9A9E7059BA3613BB1A16936
:1032E0002B462A4629442046FFF73CFE9EE740F243
:1032F000AD210648FEF739F9F1E72046FEF7CEFA90
:1033000094E709B030BD00BFE02A00209C3F0008D0
:1033100000B583B001A8FFF715FE0199FFF756FF2E
:10332000FFF77EFFF6E70000014B1868704700BF0B
:103330002800002010B501390244904201D100203C
:1033400005E0037811F8014FA34201D0181B10BD0E
:103350000130F2E70A44914200F1FF3300D1704797
:1033600010B511F8014B03F8014F9142F9D110BD8E
:1033700002440346934200D1704703F8011BF9E76A
:10338000034613F8012B002AFBD1181A01387047A5
:1033900030B51446002C9BB005461A4605DA8B233F
:1033A00003604FF0FF301BB030BD4FF40273ADF837
:1033B0000C3014BF04F1FF332346029305934FF6FC
:1033C000FF7300910491ADF80E3069461E9B00F02A
:1033D00075F8431CBCBF8B232B60002CE3D0009BF3
:1033E00000221A70DFE7000007B5009313460A4673
:1033F000014603480068FFF7CBFF03B05DF804FB0C
:10340000280000202DE9F0478E689E4282460C4637
:1034100090461F4638D88A8912F4906F32D02568BA
:103420000969A5EB0109656905EB450505EBD5754E
:1034300001334B446D109D4238BF1D46530531D5B5
:10344000294600F089FB064650B90C23CAF8003023
:10345000A38943F04003A3814FF0FF30BDE8F0871C
:1034600021694A46FFF776FFA38923F4906343F06E
:103470008003A381266165614E44A5EB09052660A2
:10348000A5603E46BE4200D93E46206832464146CF
:1034900000F0FEFAA3689B1BA360236833442360FB
:1034A0000020DBE72A4600F0B1FB06460028E1D108
:1034B0002169504600F006FBC7E700002DE9F04FF8
:1034C00098468B891B069DB007460D4614460ED5BF
:1034D0000B6963B9402100F03FFB2860286120B9E7
:1034E0000C233B604FF0FF30D1E040236B610023A1
:1034F000099320238DF82930CDF80C803023DFF894
:10350000A8818DF82A304FF0010923469A4613F816
:10351000012B0AB1252AF9D1BAEB040B0BD05B467B
:10352000224629463846FFF76DFF013000F0AA8099
:10353000099A5A4409929AF80030002B00F0A280B0
:1035400000234FF0FF32CDE905230AF1010A04936D
:1035500007938DF853301A935446052214F8011B33
:10356000514800F045FA049AD8B9D00644BF202348
:103570008DF85330110744BF2B238DF853309AF840
:1035800000302A2B15D0079A544600204FF00A0C21
:10359000214611F8013B303B092B4ED9B0B10792BF
:1035A00014E0A0EB080309FA03F313430493A246C3
:1035B000D2E7039B191D1B680391002BBBBF5B4225
:1035C00042F0020207930793B8BF049223782E2B90
:1035D0000CD163782A2B35D1039B1A1D1B680392EB
:1035E000002BB8BF4FF0FF3302340593DFF8BCA0C7
:1035F00021780322504600F0FBF940B14023A0EBB4
:103600000A0003FA00F0049B03430134049314F806
:10361000011B27488DF82810062200F0E9F9002840
:1036200038D0244B1BBB039B073323F0070308331D
:103630000393099B3344099367E70CFB02320C4662
:103640000120A5E700230134059319464FF00A0C29
:10365000204610F8012B303A092A03D9002BC5D097
:103660000591C3E70CFB012104460123F0E703ABFE
:1036700000932A46104B04A93846AFF30080421C41
:103680000646D6D1AB895B063FF52CAF09981DB035
:10369000BDE8F08F03AB00932A46074B04A93846D8
:1036A00000F07AF8EBE700BFC43F0008CA3F00080B
:1036B000CE3F000800000000053400082DE9F04767
:1036C000164699468A680B69DDF820809342B8BF98
:1036D0001346336091F8432007460C460AB1013384
:1036E00033602368990642BF33680233336025682C
:1036F00015F0060506D104F1190AE36832689B1A31
:10370000AB4226DC94F84320131E226818BF012325
:1037100092062BD404F1430249463846C047013093
:103720001ED02368E568326803F00603042B08BF47
:10373000AD1AA36822690CBF25EAE57500259342FE
:10374000C4BF9B1AED1800261A34B5421AD10020C6
:1037500008E00123524649463846C047013003D1AC
:103760004FF0FF30BDE8F0870135C6E7E1185A1C7D
:10377000302081F84300224494F8451082F8431029
:103780000233C7E70123224649463846C047013085
:10379000E6D00136D9E700002DE9FF470F7E0C9DEA
:1037A000782F914680460C469A4601F1430207D88D
:1037B000622F0AD8002F00F0D880582F00F0A38085
:1037C00004F1420584F842703AE0A7F16303152B37
:1037D000F6D801A151F823F0313800084538000827
:1037E000C1370008C1370008C1370008C1370008D9
:1037F00045380008C1370008C1370008C137000844
:10380000C1370008513900087538000833390008FD
:10381000C1370008C137000873390008C1370008F4
:1038200075380008C1370008C13700083B39000867
:103830002B681A1D1B682A6004F1420584F8423087
:103840000123A3E020682968060601F104030AD5D4
:103850000E682B60002E03DA2D23764284F8433065
:103860005E480A2319E00E682B6010F0400F18BF65
:1038700036B2EFE72B682068191D2960010601D5D3
:103880001E6802E04606FBD51E8854486F2F0CBF09
:1038900008230A23002184F843106568A560002DE1
:1038A000A2BF216821F0040121600EB9002D4DD086
:1038B0001546B6FBF3F103FB1167C75D05F8017D03
:1038C0003746BB420E46F4D9082B0BD12368DE07DE
:1038D00008D5236961689942DEBF302305F8013CB1
:1038E00005F1FF35521B2261CDF800A04B4603AA1B
:1038F00021464046FFF7E2FE01304CD14FF0FF3049
:1039000004B0BDE8F087354881F845702968236820
:1039100051F8046B29601D0614D5DF0744BF43F03E
:10392000200323601EB9236823F0200323601023A3
:10393000B0E7236843F0200323607823284884F805
:103940004530E3E7590648BFB6B2E6E71546BBE7A0
:103950002B6826686169181D286035061B6801D52B
:10396000196002E07006FBD519800023236115461B
:10397000BAE72B681A1D2A601D6862680021284674
:1039800000F036F808B1401B6060636823610023D3
:1039900084F84330A8E723692A4649464046D04781
:1039A0000130ABD023689B0713D4E068039B984297
:1039B000B8BF1846A4E70123324649464046D047DF
:1039C00001309BD00135E36803995B1AAB42F2DC0E
:1039D000EBE7002504F11906F5E700BFD53F000825
:1039E000E63F0008000000000000000000000000AA
:1039F00001F0FF01102A2BDB10F0070F08D010F8A0
:103A0000013B013A8B422DD010F0070F42B3F6D1A3
:103A1000F0B441EA012141EA014122F007047FF0BC
:103A200000070023F0E80256083C85EA010586EA13
:103A3000010685FA47F5A3FA87F586FA47F6A5FA4F
:103A400087F68EB9EED1F0BC01F0FF0102F007025B
:103A500032B110F8013B013A83EA010313B1F8D106
:103A60000020704701387047002D06BF35460338E7
:103A7000073815F0010F07D1013015F4807F02BF20
:103A8000013015F4C03F0130F0BC0138704700BF71
:103A9000884210B501EB020402D98442234607D8BC
:103AA000431EA14208D011F8012B03F8012FF8E7BB
:103AB000024401468A4200D110BD13F8014D02F8BC
:103AC000014DF7E738B50546002941D051F8043CCF
:103AD0000C1F002BB8BFE41800F0CEF81D4A136885
:103AE00033B9636014602846BDE8384000F0CAB8B6
:103AF000A34208D9206821188B4201BF19685B686E
:103B000009182160EDE71A465B680BB1A342FAD9A8
:103B100011685018A0420BD120680144501883420C
:103B20001160E0D118685B68536001441160DAE706
:103B300002D90C232B60D6E7206821188B4204BFE2
:103B400019685B68636004BF091821605460CAE7A4
:103B500038BD00BFE42A0020F8B5CD1C25F00305D0
:103B600008350C2D38BF0C25002D064601DBA94277
:103B700003D90C2333600020F8BD00F07DF8214903
:103B80000A6814469CB9204F3B6823B92146304649
:103B900000F062F838602946304600F05DF8431CBA
:103BA00023D10C233360304600F06CF8E3E7236840
:103BB0005B1B17D40B2B03D923601C44256004E046
:103BC0006368A2420CBF0B605360304600F05AF8A5
:103BD00004F10B00231D20F00700C21ACCD01B1AE1
:103BE000A350C9E722466468CCE7C41C24F0030450
:103BF000A042E3D0211A304600F02EF80130DDD18A
:103C0000CFE700BFE42A0020E82A0020F8B50746E5
:103C100014460E4621B9BDE8F8401146FFF79CBF97
:103C200022B9FFF74FFF25462846F8BD00F030F8CF
:103C3000A0420FD221463846FFF78EFF05460028E6
:103C4000F2D031462246FFF785FB31463846FFF772
:103C500039FFE9E73546E7E738B5064D0023044666
:103C600008462B60FDF7C8FA431C02D12B6803B14C
:103C7000236038BD9C000020014800F011B800BF4F
:103C8000EC2A0020014800F00CB800BFEC2A00200C
:103C900051F8043C181F002BBCBF0B58C0187047CC
:103CA000704770472E2E2F73797374656D2F737262
:103CB000632F73746D333266342D68616C2F7374A7
:103CC0006D3332663478785F68616C5F636F7274ED
:103CD00065782E63000000002E2E2F7379737465B3
:103CE0006D2F7372632F73746D333266342D686178
:103CF0006C2F73746D3332663478785F68616C5FF3
:103D00006770696F2E6300002E2E2F7379737465B0
:103D10006D2F7372632F73746D333266342D686147
:103D20006C2F73746D3332663478785F68616C5FC2
:103D30007263632E630000000000000001020304B0
:103D4000010203040607080961626F727428292CB6
:103D50002065786974696E672E2E2E006173736515
:103D600072745F706172616D2829206661696C658B
:103D7000643A2066696C6520222573222C206C69C8
:103D80006E652025640A0000537461636B206672BF
:103D9000616D653A0A000000205230203D20202548
:103DA0003038580A00000000205231203D202025E4
:103DB0003038580A00000000205232203D202025D3
:103DC0003038580A00000000205233203D202025C2
:103DD0003038580A0000000020523132203D2025A2
:103DE0003038580A00000000204C52203D20202589
:103DF0003038580A00000000205043203D20202584
:103E00003038580A0000000020505352203D202531
:103E10003038580A000000004653522F4641523AAB
:103E20000A0000002043465352203D202025303810
:103E3000580A00002048465352203D2020253038A3
:103E4000580A00002044465352203D202025303897
:103E5000580A00002041465352203D20202530388A
:103E6000580A0000204D4D464152203D2025303853
:103E7000580A00002042464152203D20202530387B
:103E8000580A00004D6973630A000000204C522F4D
:103E90004558435F52455455524E3D2025303858C1
:103EA0000A0000005B486172644661756C745D0ACB
:103EB000000000005B4275734661756C745D0A001A
:103EC0005B55736167654661756C745D0A0000003F
:103ED0005761697420666F72204953522073656D73
:103EE0006170686F7265000053656D6170686F7214
:103EF0006520676976656E0054696D653A202575A1
:103F00000925750A0000000053797374656D2063FC
:103F10006C6F636B3A20257520487A0A0000000018
:103F20007461736B42000000455854490A00000058
:103F30002E2E2F6672656572746F732F706F727498
:103F400061626C652F4743432F41524D5F434D33B0
:103F50002F706F72742E63002E2E2F66726565723D
:103F6000746F732F71756575652E63002E2E2F6625
:103F700072656572746F732F7461736B732E630057
:103F800049444C4500000000A5A5A5A5A5A5A5A5EB
:103F9000A5A5A5A5A5A5A5A5A5A5A5A52E2E2F6674
:103FA00072656572746F732F74696D6572732E63B9
:103FB00000000000546D725100000000546D72202A
:103FC00053766300232D302B2000686C4C0065660F
:103FD000674546470030313233343536373839415A
:103FE0004243444546003031323334353637383970
:073FF0006162636465660075
:103FF80078563412A00000200000000000000000E5
:104008000000000001020304060708090024F40068
:10401800F8270000AAAAAAAA2C0000200000000085
:104028000000000000000000000000000000000088
:104038000000000000000000000000000000000078
:104048000000000000000000000000000000000068
:104058000000000000000000000000000000000058
:104068000000000000000000000000000000000048
:1040780000000000000000000000000032547698A4
:040000050800018965
:00000001FF
