:020000040800F2
:1000000000000220B9020008BF020008C302000875
:1000100035030008390300088103000800000000D0
:100020000000000000000000000000000D180008A3
:10003000CD03000800000000F5180008E9030008DF
:10004000E5030008E5030008E5030008E5030008F0
:10005000E5030008E5030008E5030008E5030008E0
:10006000E5030008E5030008E5030008E5030008D0
:10007000E5030008E5030008E5030008E5030008C0
:10008000E5030008E5030008E5030008E5030008B0
:10009000E5030008E5030008E5030008E5030008A0
:1000A000E5030008E5030008E5030008E503000890
:1000B000E5030008E5030008E5030008E503000880
:1000C000E5030008E5030008E5030008E503000870
:1000D000E5030008E5030008E5030008E503000860
:1000E000E5030008E5030008E5030008E503000850
:1000F000E5030008E5030008E5030008E503000840
:10010000E5030008E5030008E5030008E50300082F
:10011000E5030008E5030008E5030008E50300081F
:10012000E5030008E5030008E5030008E50300080F
:10013000E5030008E5030008E5030008E5030008FF
:10014000E5030008E5030008E5030008E5030008EF
:10015000E5030008E5030008E5030008E5030008DF
:10016000E5030008E5030008E5030008E5030008CF
:10017000E5030008E5030008E503000800000000AF
:10018000E5030008E503000800B583B001F0CEF8F0
:10019000384B394A1360394A1360394900E0214627
:1001A000384B99420BD20A684B6801F10C048868FD
:1001B0009842F4D952F8041B43F8041BF8E72E4B7D
:1001C0001A68314B9A4200D0FEE72C4B1A682F4B2D
:1001D0009A42F9D1274B2E4A13602E4A13602E4AB9
:1001E00005E0002043F8040B9A42FAD80A462B4B4C
:1001F0009A4204D2114651F8083B5268F4E7244B66
:100200001B6813B9234B1B6803B1FEE701F0C8F963
:10021000694601A801F01AF8214C224BE41AA410F7
:10022000002504E01F4B53F8253098470135AC42B8
:10023000F8DC1D4C1D4BE41AA410002504E01B4BF8
:1002400053F8253098470135AC42F8DC0099019805
:1002500001F0F0F90546164C164BE41AA41004E020
:10026000013C144B53F824309847002CF8DC284606
:1002700000F0BEFFBABADECA000000208C000020E9
:100280000004000818040008785634123254769896
:1002900090000020F42A0020180400082804000818
:1002A000280400082804000828040008280400087E
:1002B000280400082804000808B5FFF765FF00BE01
:1002C000FEE71EF0040F0CBFEFF30880EFF3098088
:1002D0007146414A10472DE9F04182B004460D466F
:1002E000124B5F6BD3F838809E6A1B6B13F0020FC2
:1002F00003D00E4BDB6A002B0BDB0D4800F0B8FF80
:10030000009543463A463146204601F01BF800BEB0
:10031000FEE74BF6AB6101F08FF80028EDD0034B00
:100320004FF00042DA6202B0BDE8F08100ED00E07B
:10033000CC41000800BEFEE71EF0040F0CBFEFF337
:100340000880EFF309807146244A10472DE9F041F7
:1003500082B004460D46084B5F6BD3F838809E6A26
:10036000064800F085FF009543463A463146204650
:1003700000F0E8FF00BEFEE700ED00E0DC41000811
:100380001EF0040F0CBFEFF30880EFF309807146F5
:10039000134A10472DE9F04182B004460D46084B40
:1003A0005F6BD3F838809E6A064800F061FF0095C5
:1003B00043463A463146204600F0C4FF00BEFEE701
:1003C00000ED00E0E841000800BEFEE700BEFEE7E9
:1003D00000BEFEE770470000D70200084D0300088A
:1003E0009503000800BEFEE708B500F059F802F0DA
:0E03F00047FC012800D108BD01F09EFAFBE792
:100400001843000800000020900000201843000856
:10041000000000100000001090000020F82A0020CA
:080420000000001000000010B4
:100440007047000010B5044600F0B6FE064BA3FB53
:100450000030800900F094F8002221464FF0FF3070
:1004600000F04AF8002010BDD34D621008B50B4BC8
:100470001A6842F400721A601A6842F480621A60C4
:100480001A6842F480721A60032000F017F80F20F7
:10049000FFF7D8FFFFF7D4FF002008BD003C024063
:1004A000024A136801331360704700BF94000020B4
:1004B000014B1868704700BF9400002010B5044637
:1004C000C31E042B0FD80A4AD36823F4E0631B042D
:1004D0001B0C240204F4E064234343F0BF6343F4A1
:1004E0000033D36010BDA421024800F0B7FEEAE754
:1004F00000ED00E0CC3F000870B505460C461646FE
:100500000F2A24D80F2C27D81A4BDB68C3F30223F9
:10051000C3F10701042928BF04211A1D062A20D986
:10052000033B012202FA01F101390C409C4002FA1E
:1005300003F3013B33401C43002D14DB2401E4B2E0
:1005400005F1604505F5614585F8004370BDBC21A6
:10055000094800F083FED5E7BD21074800F07EFE84
:10056000D2E70023DDE705F00F052401E4B2034BD9
:100570005C55EBE700ED00E0CC3F000814ED00E037
:100580000138B0F1807F0AD2064B5860064AF0214C
:1005900082F823100020986007221A60704701201B
:1005A000704700BF10E000E000ED00E010B5044629
:1005B000042800D038B9042C0BD0094A136823F062
:1005C0000403136010BD4FF4C271064800F046FEEC
:1005D000F1E7034A136843F004031360F2E700BF36
:1005E00010E000E0CC3F00082DE9F04782B007465C
:1005F0000E46B44B984223D003F5806398421FD037
:1006000003F5806398421BD003F58063984217D0AE
:1006100003F58063984213D003F5806398420FD0AE
:1006200003F5806398420BD003F58063984207D0AE
:1006300003F58063984203D0C521A34800F00EFE65
:10064000338833B37368012B1ED9112B1CD0022BB6
:100650001AD0122B18D09D4A934215D002F5801261
:10066000934211D002F5801293420DD0A2F5F812F8
:10067000934209D002F58012934205D002F5801210
:10068000934201D0032B09D1B368022B0BD800246D
:1006900050E0C6218C4800F0E1FDD3E7C7218A482D
:1006A00000F0DCFDF0E7C821874800F0D7FDEEE759
:1006B000D921854800F0D2FD6AE0EC21824800F0A3
:1006C000CDFD92E0082300E000238B40034302327B
:1006D0007F4941F822307F4B1A686FEA080322EA0B
:1006E0000801706810F4803F01D048EA0201794A9D
:1006F0001160526803EA0201706810F4003F01D0F3
:1007000048EA0201734A5160926803EA0201706884
:1007100010F4801F01D048EA02016E4A9160D2684D
:100720001340716811F4001F01D048EA0203694ABE
:10073000D36001340F2C00F2C1800125A54033683D
:1007400003EA050835EA0303F3D17368022B01D0ED
:10075000122B2DD13369DBB1092B19D0012B17D006
:10076000022B15D0032B13D0042B11D0052B0FD047
:10077000062B0DD0072B0BD0082B09D00A2B07D046
:100780000B2B05D00C2B03D00D2B01D00F2B8FD1B1
:10079000E208083257F8220004F0070399000F23FB
:1007A0008B4020EA030033698B40034347F8223033
:1007B0003A684FEA440A032303FA0AF36FEA03098B
:1007C00022EA0302736803F0030303FA0AF31343F4
:1007D0003B6073685A1E012A03D9112B01D0122BDA
:1007E00014D1F368032B3FF668AFBA6809EA020236
:1007F000F36803FA0AF31343BB607A6822EA05023E
:100800007368C3F30015A54015437D60FB6809EAD2
:100810000309B36803FA0AF343EA0903FB60736848
:1008200013F0805F85D02C4B5A6C42F480425A649E
:100830005B6C03F480430193019BA208911C244B41
:1008400053F8210004F0030399000F238B4020EAA2
:1008500003001C4B9F423FF437AF03F580639F4278
:100860001ED003F580639F421CD003F580639F4236
:100870001AD003F580639F4218D003F580639F422E
:1008800016D003F580639F4214D003F580639F4226
:1008900012D003F580639F423FF414AF092314E79D
:1008A000012312E7022310E703230EE704230CE7DA
:1008B00005230AE7062308E7072306E702B0BDE899
:1008C000F08700BF00000240004000080000111047
:1008D00000380140003C01400038024070B5054638
:1008E00014460E4621B1012C08D86CB1AE6170BD22
:1008F00040F2B111064800F0B1FCF4E74FF4D971B1
:10090000034800F0ABFCF0E73604AE61EFE700BF50
:100910000040000830B583B0044603680F2B4FD861
:10092000236813F0010F1ED06368012B01D9052B3A
:100930004CD1B24B9B6803F00C03042B0AD0AF4B95
:100940009B6803F00C03082B46D1AC4B5B6813F497
:10095000800F41D0A94B1B6813F4003F03D063689C
:10096000002B00F01982236813F0020F00F098802A
:10097000E368012B6BD823691F2B6ED89F4B9B68B4
:1009800013F00C0F74D09D4B9B6803F00C03082BE5
:1009900069D0E368002B00F0AF80994B01221A6008
:1009A000FFF786FD0546954B1B6813F0020F40F0DC
:1009B0009380FFF77DFD401B6428F4D90320F0E10C
:1009C00040F217118F4800F049FCA9E74FF48E71EF
:1009D0008C4800F043FCACE78B4B00221A70FFF709
:1009E00067FD0546854B1B6813F4003F08D0FFF7F1
:1009F0005FFD401B41F288339842F3D90320D0E1D8
:100A00002279814B1A70636883B1FFF751FD054667
:100A10007A4B1B6813F4003FA5D1FFF749FD401B3B
:100A200041F288339842F3D90320BAE1FFF740FD41
:100A30000546724B1B6813F4003F94D0FFF738FD56
:100A4000401B41F288339842F3D90320A9E140F2D8
:100A50005D116C4800F002FC8DE74FF4AF716948FE
:100A600000F0FCFB8AE7654B5B6813F4800F90D1C4
:100A7000624B1B6813F0020F03D0E368012B40F0B8
:100A80008D815E48026822F0F8022169F82393FA0A
:100A9000A3F3B3FA83F3DBB201FA03F31343036066
:100AA000236813F0080F51D06369012B36D86369AE
:100AB000002B39D0554B01221A60FFF7F9FC05468F
:100AC0004E4B5B6F13F0020F40D1FFF7F1FC401B60
:100AD0006428F5D9032064E14848026822F0F8024E
:100AE0002169F82393FAA3F3B3FA83F3DBB201FA93
:100AF00003F313430360D3E7414B00221A60FFF76F
:100B0000D7FC05463D4B1B6813F0020FC8D0FFF71A
:100B1000CFFC401B6428F5D9032042E14FF4CF718C
:100B2000384800F09BFBC2E7384B00221A60FFF701
:100B3000BFFC0546314B5B6F13F0020F06D0FFF789
:100B4000B7FC401B6428F5D903202AE1236813F081
:100B5000040F72D0A368012B01D9052B1DD1274B9F
:100B60001A6C42F080521A641B6C03F0805301939C
:100B7000019B274A136843F480731360FFF798FCC6
:100B80000546234B1B6813F4807F0CD1FFF790FCC4
:100B9000401B6428F5D9032003E14FF4E4711948A0
:100BA00000F05CFBDBE71B4B00221A70FFF780FCB8
:100BB0000546124B1B6F13F0020F08D0FFF778FCAD
:100BC000401B41F288339842F3D90320E9E0227AAE
:100BD000104B1A70A368FBB1FFF76AFC0546074B80
:100BE0001B6F13F0020F28D1FFF762FC401B41F28C
:100BF00088339842F3D90320D3E000BF0038024085
:100C0000000047423040000802380240800E474250
:100C10000070004070380240FFF74AFC0546634B05
:100C20001B6F13F0020F08D0FFF742FC401B41F28C
:100C300088339842F3D90320B3E0A369022B38D854
:100C4000A369002B00F0AC80584A926802F00C02B5
:100C5000082A00F0A880022B40F08A80E36913B1D3
:100C6000B3F5800F2BD1236A3F2B2ED8636AC03B8C
:100C7000F02B30D8A36A022B05D0042B03D0062B0F
:100C800001D0082B2DD1E36A043B0B2B2FD8484B06
:100C900000221A60FFF70CFC0546444B1B6813F05A
:100CA000007F2AD0FFF704FC401B6428F5D90320FD
:100CB00077E04FF403713F4800F0D0FAC0E740F20C
:100CC00015213C4800F0CAFACDE740F21621394818
:100CD00000F0C4FACAE740F21721364800F0BEFA25
:100CE000C8E74FF40671334800F0B8FACBE740F29A
:100CF0001921304800F0B2FAC9E7E369226A1343C8
:100D0000616A47F6C07292FAA2F2B2FA82F2D2B2E5
:100D100001FA02F21343A26A5208013A4FF4403139
:100D200091FAA1F1B1FA81F1C9B28A401343E16AA3
:100D30004FF0706292FAA2F2B2FA82F2D2B201FAE3
:100D400002F21343194A5360194B01221A60FFF74C
:100D5000AFFB0446154B1B6813F0007F06D1FFF76D
:100D6000A7FB001B6428F5D903201AE0002018E037
:100D70000F4B00221A60FFF79BFB04460B4B1B68CE
:100D800013F0007F06D0FFF793FB001B6428F5D912
:100D9000032006E0002004E0012002E0012000E042
:100DA000002003B030BD0120FBE700BF0038024047
:100DB000600047423040000870B504460D460368A5
:100DC000013B0E2B61D8072D65D8A54B1B6803F09E
:100DD0000F03AB4280F0AF80EAB2A14B1A701B68E0
:100DE00003F00F03AB4240F08D81236813F0020F34
:100DF00018D0A3687BB1802B0DD0902B0BD0A02BEB
:100E000009D0B02B07D0C02B05D0D02B03D0E02BBE
:100E100001D0F02B45D1934A936823F0F003A168E9
:100E20000B439360236813F0010F00F02781636880
:100E3000032B3CD86368012B3FD09A1E012A43D96B
:100E4000884A126812F0020F00F05E8185498A68B4
:100E500022F0030213438B60FFF72AFB0546636809
:100E6000012B38D0022B46D0032B54D07D4B9B68EE
:100E700013F00C0F00F00281FFF71AFB401B41F248
:100E800088339842F2D903202FE14FF41F7176483E
:100E900000F0E4F997E740F27D21734800F0DEF9B5
:100EA00093E740F29321704800F0D8F9B3E740F29D
:100EB0009A216D4800F0D2F9BCE76A4A126812F430
:100EC000003FC3D1012010E1664A126812F0007F92
:100ED000BCD1012009E1634B9B6803F00C03042B98
:100EE00000F0CC80FFF7E4FA431B41F288329342D2
:100EF000F1D90320F9E05B4B9B6803F00C03082B4E
:100F000000F0BC80FFF7D4FA401B41F288339842CE
:100F1000F1D90320E9E0534B9B6803F00C03032B4A
:100F200000F0AC80FFF7C4FA401B41F288339842CE
:100F3000F1D90320D9E0236813F0020F18D0A36879
:100F40007BB1802B0DD0902B0BD0A02B09D0B02BD8
:100F500007D0C02B05D0D02B03D0E02B01D0F02B35
:100F600037D1404A936823F0F003A1680B439360A4
:100F7000236813F0010F79D06368032B2FD86368BF
:100F8000012B32D09A1E012A36D9364A126812F045
:100F9000020F00F0BB8033498A6822F0030213433A
:100FA0008B60FFF785FA06466368012B2BD0022B76
:100FB00038D0032B45D02B4B9B6813F00C0F55D02A
:100FC000FFF776FA801B41F288339842F3D9032069
:100FD0008BE040F2ED21244800F040F9C1E74FF4E6
:100FE0003D71214800F03AF9C9E71E4A126812F42F
:100FF000003FD0D1012078E01A4A126812F0007F39
:10100000C9D1012071E0174B9B6803F00C03042B3E
:101010002CD0FFF74DFA831B41F288329342F2D96C
:10102000032062E00F4B9B6803F00C03082B1DD0DC
:10103000FFF73EFA801B41F288339842F2D9032031
:1010400053E0084B9B6803F00C03032B0ED0FFF713
:101050002FFA801B41F288339842F2D9032044E0F2
:10106000003C02400038024030400008EAB2294B00
:101070001A701B6803F00F03AB4249D1236813F0C9
:10108000040F14D0E3685BB1B3F5805F08D0B3F50B
:10109000A05F05D0B3F5C05F02D0B3F5E05F25D106
:1010A0001D4A936823F4E053E1680B43936023687F
:1010B00013F0080F15D023695BB1B3F5805F08D03A
:1010C000B3F5A05F05D0B3F5C05F02D0B3F5E05F24
:1010D00012D1114A936823F46043216943EAC103A2
:1010E00093600F20FFF7AEF9002070BD40F24E3143
:1010F0000A4800F0B3F8D3E740F25531074800F052
:10110000ADF8E6E70120F0E70120EEE70120ECE78B
:101110000120EAE7003C024000380240304000086D
:10112000224B9B6803F00C03042B3BD0082B3BD1D4
:101130001E4B586800F03F005B6813F4800F20D00E
:101140001B4AB2FBF0F2194B586847F6C0731840BF
:1011500093FAA3F3B3FA83F3DBB2D84000FB02F0B7
:10116000124B5B6803F440334FF4403292FAA2F220
:10117000B2FA82F2D2B2D34001335B00B0FBF3F09B
:1011800070470C4AB2FBF0F2084B586847F6C07340
:10119000184093FAA3F3B3FA83F3DBB2D84000FB11
:1011A00002F0DDE70248704702487047003802400D
:1011B00000127A000024F40008B5FFF7B1FF094BD4
:1011C0009A6802F0F002F02393FAA3F3B3FA83F3E0
:1011D000DBB222FA03F3044AD35CD840034B186015
:1011E00008BD00BF00380240604000081C0000201D
:1011F000FEE7000008B5034800F054F80120FFF7AF
:10120000F7FF00BF7040000808B503460C4A12689B
:101210005AB10B4A1068033323F003030344094A0D
:10122000934206D8064A136008BD054A0649116074
:10123000EFE701F027FF0C2303604FF0FF30F3E7E7
:101240009800002000FC0120F82A00200123036000
:10125000014B0B60704700BF0400002008B50A4630
:101260000146024800F004F8FFF7C4FF844000087C
:101270000FB400B583B004AB53F8042B0193802165
:10128000074802F0E1F8002804DC03B05DF804EB45
:1012900004B070470146024800F044F8F5E700BF8B
:1012A000A000002010B5044602F02AF801462046AE
:1012B00000F038F80121024800F034F810BD00BFFA
:1012C000484100082DE9F04385B004460F464356D7
:1012D00033BB042528462146ABBE0446384605B03C
:1012E000BDE8F08314F9010B04AA1A4402F8100CAB
:1012F0000133AB42F6D304AA1344002203F8102CA6
:101300004FF00408E94640464946ABBE8046761B8E
:10131000002EE3D03546102E28BF10250023E8E725
:101320000E46F5E708B5FFF7CDFF08BD08B500F09C
:1013300093F8024A024B9A6008BD00BF0000000803
:1013400000ED00E0F8B504460D4617461E46274856
:10135000FFF78EFF21682648FFF78AFF616825485E
:10136000FFF786FFA1682448FFF782FFE168234862
:10137000FFF77EFF21692248FFF77AFF6169214864
:10138000FFF776FFA1692048FFF772FFE1691F4868
:10139000FFF76EFF1E48FFF76BFF29461D48FFF75A
:1013A00067FF1D4CE16A1D48FFF762FF216B1C4877
:1013B000FFF75EFFE16B1B48FFF75AFF15F0800F48
:1013C0000AD115F4004F0CD11748FFF751FF0699C9
:1013D0001648FFF74DFFF8BD39461548FFF748FF9F
:1013E000EFE731461348FFF743FFEDE7B040000851
:1013F000C0400008D0400008E0400008F04000086D
:101400000041000810410008204100083041000858
:10141000404100084C41000800ED00E05C4100083C
:101420006C4100087C410008AC410008B441000850
:101430008C4100089C41000883691A888A4201D0C7
:10144000002070470268033A012A01D90020704742
:1014500002338361012070470C4B1A6842F001028D
:101460001A60002199601A6822F0847222F4803296
:101470001A60074A5A601A6822F480221A60D960FA
:10148000044B4FF000629A60704700BF0038024082
:101490001030002400ED00E0064B9A689B68C3F30F
:1014A0000313054AD35CDAB2044BD340044A1360F9
:1014B000704700BF003802400C00002000127A0084
:1014C0001C00002030B587B00C4A136B43F00803B2
:1014D00013634FF480550195012302930222049275
:1014E0000393074C01A92046FFF77EF80022294606
:1014F0002046FFF7F3F907B030BD00BF00380240C7
:10150000000C0240FEE7FEE710B594B0214B1A6CC8
:1015100042F080521A641B6C03F080530193019BCC
:101520001D4B1A6842F480421A601B6803F4804322
:101530000293029B01230893099302240E944FF413
:1015400080030F93082310934FF4A8731193129400
:101550000723139308A8FFF7DDF90F2303930494DF
:10156000002305934FF4A05306934FF48053079341
:10157000052103A8FFF720FCFFF71EFE074BA3FB86
:1015800000308009FEF7FCFF0420FFF70FF814B0CD
:1015900010BD00BF0038024000700040D34D621003
:1015A00008B5FEF763FFFFF7AFFFFFF775FF08BD54
:1015B00008B50F48FFF75CFE0E4C6FF07F43636089
:1015C000A3680D4D2B600D4B186800F06FFFA268EB
:1015D0000B4B1A602B689B1A23F07F43094C236046
:1015E00000F0E2FF014622680748FFF741FEE0E70E
:1015F000F841000810E000E0942A0020902A002022
:101600008C2A0020982A0020FC41000810B5FFF722
:1016100059FF044C206801F09FF9206801F09CF903
:10162000F7E700BF902A0020014B05221A6070479F
:1016300010E000E070B584B01748FFF733FEFFF705
:10164000F3FF164B19681648FFF712FE00240394A7
:101650000294144D01950123009323464FF48072A8
:101660001149124800F094FE03940294104E019622
:101670000223009323464FF480720E490E4800F077
:1016800087FE00F04FFF306800F010FF286800F080
:101690000DFF04B070BD00BF0C4200081C0000200C
:1016A00020420008A02A002038420008B115000896
:1016B000902A0020404200080D160008074B23F036
:1016C0000703074A136000205060064A42F2F8718F
:1016D0005160106059601A60704700BF28010020F7
:1016E0002C2900202029002070B5044600F054FF6A
:1016F000224B1B687BB134B1083414F0070F02D0C1
:1017000024F007040834621E42F2F6739A4230D87D
:101710001B490B6807E0FFF7D1FF184B01221A6045
:10172000E9E7194613465A68A24202D21A68002A0B
:10173000F7D1144A93421ED00D6808351A680A6022
:101740005A68121B102A0BD91E1972605C607468EB
:101750000B4A104612685168A142FAD33260066003
:101760005968094A13685B1A136000F0BDFF2846E8
:1017700070BD0025F9E70025F7E700BF2829002004
:101780002C2900202029002020000020C8B138B5D5
:101790000446A0F1080500F0FFFE54F8040C094BC4
:1017A00019461B685A688242FAD344F8083C0D6017
:1017B00054F8041C044A13680B44136000F094FFAF
:1017C00038BD70472C290020200000200648006802
:1017D000006880F3088862B661B6BFF34F8FBFF32D
:1017E0006F8F00DF00BF000008ED00E04FF0807356
:1017F00040F8043C40F8081C034B40F80C3C40F80F
:10180000202C4038704700BF59180008074B196852
:101810000868B0E8F00F80F30988BFF36F8F4FF0CE
:10182000000080F311884EF00D0E7047482900200B
:10183000044B4FF080521A60BFF34F8FBFF36F8F8E
:10184000704700BF04ED00E0EFF311804FF0BF01DF
:1018500081F311887047002008B5064B1B68B3F16F
:10186000FF3F02D1FFF7F0FFFEE7EE210248FFF74E
:101870004AFEF7E7240000204842000808B5FFF7B9
:10188000E3FF0B4B1A6801321A60BFF34F8FBFF3AF
:101890006F8F1B68012B00D008BD064B1B6813F02F
:1018A000FF0FF9D040F289110348FFF72CFEF3E750
:1018B0002400002004ED00E04842000880F3118875
:1018C0007047000008B5094B1B682BB1074A136825
:1018D000013B136033B108BD4FF4C8710448FFF7F2
:1018E00012FEF3E70020FFF7E9FFF4E724000020F1
:1018F00048420008EFF30980BFF36F8F0D4B1A6861
:1019000020E9F00F10602DE908404FF0BF0080F390
:10191000118800F0B7FF4FF0000080F31188BDE898
:10192000084019680868B0E8F00F80F30988BFF331
:101930006F8F70474829002008B5FFF785FF00F03A
:1019400053FE18B1034B4FF080521A600020FFF78E
:10195000B5FF08BD04ED00E070B53B4B1D68854246
:1019600000D30546394A136823F001031360384B4E
:101970001B686E1E374A146804FB0634364B1B681E
:10198000A34200D2E41A72B601F05CF970B9304B90
:101990001B68324A13602D490B6843F001030B604A
:1019A0002C4B1B68013B136062B670BD2B4B1C6057
:1019B000043300221A60254A136843F001031360C0
:1019C00025B1BFF34F8F30BFBFF36F8F1F4A13682E
:1019D00023F00101116062B613F4803F24D01D4B47
:1019E0001A681B4B1B681C1B1444013C1A4B1B68D8
:1019F000A34201D8A24200D2541E184B1C60144BC3
:101A000000221A60FFF73AFF104A136843F00103FF
:101A10001360304600F0CEFD0E4B1B68013B0F4AB1
:101A20001360FFF74FFFC0E70A4B1A6805FB02F58A
:101A3000074B1B68EE1AB6FBF2F606FB02225D1B93
:101A40001544064B1D60DAE74429002010E000E051
:101A500018E000E0402900203C29002014E000E0CC
:101A6000074B084A1A60084B63221A60074B2D2265
:101A70001A60074B074A1A60043B07221A60704736
:101A80004029002040900200442900203C290020E9
:101A900014E000E03F90020000B583B01F4B1A78BD
:101AA000D2B20192FF221A701B78DBB28DF803309C
:101AB0009DF8033003F0BF03194A1370194B072236
:101AC0001A609DF8033013F0800F0AD0154A13688E
:101AD000013B13609DF803305B00DBB28DF80330EF
:101AE000EFE7104A13681B0203F4E0631360019BE5
:101AF000DBB20A4A13700C4B1A6842F47F021A6078
:101B00001A6842F07F421A60FFF7AAFF074B0022D3
:101B10001A60FFF75BFEFFF79FFE00BF00E400E0E6
:101B2000342900203829002020ED00E02400002086
:101B300008B5EFF305830F2B06D90E4A9B5CDBB289
:101B40000D4A12789A4208D80C4B1B6803F4E063E4
:101B50000B4A1268934206D808BD40F2C5210948D5
:101B6000FFF7D1FCF0E740F2D5210648FFF7CBFCA8
:101B7000F2E700BFF0E300E0342900200CED00E0C4
:101B8000382900204842000800F1080343604FF064
:101B9000FF328260C360036100230360704700234B
:101BA0000361704743684B609A688A60516099602E
:101BB0000861036801330360704730B40D68B5F104
:101BC000FF3F11D000F108031C465B681A68AA4267
:101BD000FAD963684B6099608C6061600861036842
:101BE0000133036030BC70470469F2E70369416860
:101BF00082688A60416851605A68824205D000223A
:101C00000261186801381860704782685A60F6E708
:101C100010B50446FFF732FEA26BE36B9A4204D084
:101C20000024FFF74FFE204610BD0124F9E710B550
:101C30000446FFF723FEA36B23B90124FFF742FEFE
:101C4000204610BD0024F9E738B504461546026C5D
:101C5000EAB165B9806801F04BFA226CA3681344BD
:101C6000A3606268934212D32368A3600FE0C06848
:101C700001F03EFA226C5142E3689B1AE36022684D
:101C8000934202D263680B44E360022D04D0A36B3D
:101C90000133A363002038BDA36B002BF7D0A36BE7
:101CA000013BA363F3E70346026C6AB110B5084633
:101CB000D9681144D9605C68A14201D31968D96020
:101CC000D96801F015FA10BD704710B50446FFF74A
:101CD000D5FD04E000F0B0FFA36C013BA364A36C4E
:101CE000002B08DD636A33B104F1240000F00AFF21
:101CF0000028F1D0EEE74FF0FF33A364FFF7E2FDD9
:101D0000FFF7BCFD04E000F097FF636C013B6364E8
:101D1000636C002B08DD236933B104F1100000F07F
:101D2000F1FE0028F1D0EEE74FF0FF336364FFF7D8
:101D3000C9FD10BD38B50D460446C8B1FFF79EFD7C
:101D40002168E26B236C03FB021060600020A0633B
:101D5000A160013A02FB0313E3604FF0FF336364B9
:101D6000A364A5B923694BB9FFF7ACFD012038BDC9
:101D70004FF484710A48FFF7C6FBDFE704F1100057
:101D800000F0C0FE0128EFD1FFF752FDECE704F1AF
:101D90001000FFF7F9FE04F12400FFF7F5FEE3E77A
:101DA0007042000870B50C46064690B1BCB104FB09
:101DB00006F001304C30FFF797FC054688B1B4B906
:101DC0002860EE632C6401212846FFF7B3FF284604
:101DD00070BD40F243110848FFF795FBE6E7204647
:101DE000E8E740F27F110448FFF78DFBEFE700F1D1
:101DF0004C030360E5E700BF70420008F0B585B012
:101E00000F4601921D46044648B177B1022D15D008
:101E100000F036FF08B9019BCBB900264AE04FF429
:101E20001A714348FFF76FFBEFE7236C002BEDD0EF
:101E300040F269213E48FFF766FBE7E7E36B012BC1
:101E4000E6D040F26A213A48FFF75DFBE0E740F256
:101E50006D213748FFF757FBDFE72A463946204612
:101E6000FFF7F2FE636A2BB968B9FFF72BFD01207B
:101E700005B0F0BD04F1240000F044FE0128F4D1C7
:101E8000FFF7D6FCF1E7FFF7D3FCEEE7FFF71AFD0B
:101E90000020EDE702A800F07DFE012617E00023F8
:101EA00063641EE00023A3641FE02046FFF70DFFDC
:101EB00000F01AFCFFF7E2FCA06BE26B9042CCD37F
:101EC000022DCAD0019A002AE0D0002EE2D0FFF7FE
:101ED000F9FC00F061FBFFF7D1FC636CB3F1FF3F4D
:101EE000DDD0A36CB3F1FF3FDCD0FFF7EBFC01A921
:101EF00002A800F065FE98B92046FFF789FE002889
:101F0000D3D0019904F1100000F088FD2046FFF7BE
:101F1000DCFE00F0E9FB0028CCD1FFF789FCC9E723
:101F20002046FFF7D2FE00F0DFFB0020A0E700BF55
:101F3000704200082DE9F0410E4690461D460446C9
:101F4000A0B1CEB1022D20D0FFF7F2FDFFF77CFC4F
:101F50000746A26BE36B9A4220D3022D1ED00024C9
:101F60003846FFF7ABFC2046BDE8F08140F2254142
:101F70001B48FFF7C8FAE4E7236C002BE2D040F2DD
:101F800026411748FFF7BFFADCE7E36B012BDBD0F4
:101F900040F227411248FFF7B6FAD5E72A46314604
:101FA0002046FFF751FEA36CB3F1FF3F04D0A36CB2
:101FB0000133A3640124D3E7636A0BB90124CFE79B
:101FC00004F1240000F09EFD30B1B8F1000F05D0FF
:101FD0000124C8F80040C3E70124C1E70124BFE79A
:101FE00070420008F0B585B00E4601921F460446C7
:101FF00038B166B100F044FE08B9019B83B90025F1
:102000004EE040F25C514348FFF77DFAF1E7236C64
:10201000002BEFD040F25D513E48FFF774FAE9E73C
:102020004FF4AC613B48FFF76EFAE8E7E5683146EC
:102030002046FFF738FE97B9A36B013BA3632369E2
:1020400023B9FFF73FFC012005B0F0BD04F11000FB
:1020500000F058FD0128F4D1FFF7EAFBF1E7E56055
:10206000636A002BEDD004F1240000F04BFD002842
:10207000E7D0FFF7DDFBE4E7FFF724FC0020E3E710
:1020800002A800F087FD012514E0002363641BE033
:102090000023A3641CE02046FFF717FE00F024FB9A
:1020A000FFF7ECFBA26B002AC0D1019A002AE3D013
:1020B000002DE5D0FFF706FC00F06EFAFFF7DEFB1F
:1020C000636CB3F1FF3FE0D0A26CB2F1FF3FDFD011
:1020D000FFF7F8FB01A902A800F072FD98B92046AD
:1020E000FFF7A5FD0028D6D0019904F1240000F0E7
:1020F00095FC2046FFF7E9FD00F0F6FA0028CFD165
:10210000FFF796FBCCE72046FFF7DFFD00F0ECFA87
:10211000002099E7704200080023092B0CD8074AD9
:1021200052F833200AB10133F7E7044A42F833107A
:1021300002EBC30358607047704700BFA42A002019
:1021400070B504460E461546FFF798FB636CB3F175
:10215000FF3F0BD0A36CB3F1FF3F0AD0FFF7B2FBF8
:10216000A36B4BB12046FFF7B0FD70BD0023636445
:10217000F0E70023A364F1E72A46314604F1240086
:1021800000F086FCEEE70000074B1B68D86A48B9F0
:10219000064B1B68012B06D8054B1868054B1B68BE
:1021A000C01A704700207047482900205429002099
:1021B000F8290020402A0020084B1B681B6823B91F
:1021C000074B4FF0FF321A607047044B1B68DB6807
:1021D000DB685A68024B1A60704700BF4C29002028
:1021E000F829002010B5044628B162690A4B9A42CA
:1021F00007D0002010BD40F266510848FFF783F970
:10220000F3E7A36A064A934202D01BB10020F1E72C
:102210000020EFE70120EDE7182A002084420008A3
:10222000002A002010B50446006BFFF7AFFA2046E5
:10223000FFF7ACFA10BD70B505460E4671B1B6B1E8
:102240006020FFF751FA044668B1066324B1AA0082
:10225000A521206B00F0E6FF204670BD8000FFF74F
:1022600043FA0646EBE73046FFF790FAEEE73446CE
:10227000F2E770B50446164600230F2B07D8CD565B
:10228000E01880F83450C85608B10133F5E7002350
:1022900084F84330042E00D90426E662201DFFF79F
:1022A0007EFC04F11800FFF77AFC2461C6F10506F4
:1022B000A66164620023042B07D803F1100204EB2B
:1022C0008202002151600133F5E70023A36584F801
:1022D0005C3070BD38B50024042C08D804EB8402AF
:1022E00093000E481844FFF74FFC0134F4E70C4DFF
:1022F0002846FFF749FC0B4C2046FFF745FC0A48EF
:10230000FFF742FC0948FFF73FFC0948FFF73CFC98
:10231000084B1D60084B1C6038BD00BF54290020CD
:10232000D0290020E4290020002A00202C2A0020A7
:10233000182A00204C2900205029002010B50F4BEE
:102340001B6858600E4B1B68834207D90D4B1868F9
:102350000A4B19680431FFF730FC10BD04460A4BE4
:102360001868064B19680431FFF727FC074B1B68F8
:10237000A342F2D9054B1C60EFE700BF48290020BB
:10238000402A0020502900204C290020F829002054
:102390002DE9F04782B00F4614461E46DDF828802E
:1023A0008246002835D0B8F1040F38D80C99204661
:1023B000FFF741FF0546002862D0036B04F1804916
:1023C00009F1FF3903EB890323F0070900940D9B02
:1023D00042463946FFF74DFF324651464846FFF721
:1023E00005FA28600B9B03B11D60FFF747FA284AE6
:1023F000136801331360274B1B68B3B1264B1B686E
:10240000C3B9244B1B68DB6A434513D8214B1D60BD
:1024100010E040F22D212148FFF775F8C3E740F2A4
:102420002E211E48FFF76FF8C0E71A4B1D60136896
:10243000012B1ED01A4A136801331360E86A012386
:102440008340184A11680B43136000EB8000291D7C
:10245000154B03EB8000FFF7A5FBFFF733FA0E4B9C
:102460001B6893B10B4B1B68DB6A434504D3012007
:1024700008E0FFF72FFFDDE7FFF7DAF9012001E0C1
:102480004FF0FF3002B0BDE8F0870120FAE700BF4F
:10249000B829002048290020142A0020844200087E
:1024A000C4290020CC2900205429002038B5044636
:1024B00070B164B1174B1B68A34208D0FFF7DEF977
:1024C0002046FFF78FFE012808D0FFF7FBF938BD43
:1024D0004FF4B2611048FFF716F8EAE7251D2846C9
:1024E000FFF784FBE06A012383400C4A11680B4329
:1024F000136000EB80002946094B03EB8000FFF7D7
:1025000051FBE26A034B1B68DB6A9A42DDD3FFF79B
:102510008FF9DAE74829002084420008CC290020FE
:102520005429002000B585B0002303930293019342
:1025300000934FF4807212491248FFF729FF0128D7
:1025400005D0012806D0A0B105B05DF804FB00F06D
:1025500015FCF6E7FFF778F90B4B4FF0FF321A60E6
:102560000A4B01221A600A4B00221A60FFF794FA04
:10257000EAE740F251610748FEF7C5FFE4E700BF14
:102580009842000829280008F8290020142A002071
:10259000402A002084420008024A13680133136075
:1025A000704700BFC0290020014B1868704700BF6A
:1025B000402A002010B50446084B1B680344084A13
:1025C0001268934204D8054B186804441C6010BD7F
:1025D00040F28B710348FEF796FFF4E7402A002093
:1025E000F829002084420008F8B5334B1B68002B03
:1025F00057D1324B1A6801321A601E687EB9304BCF
:102600001B681B688BB92E4A11682E4B1868106026
:1026100019602D4A136801331360FFF7CDFD2B4B72
:102620001B68B34233D9002740E040F2AA71284822
:10263000FEF769FFE7E70127214B1B681B6843B3DF
:102640001F4B1B68DB68DC6863689E4226D3251D30
:102650002846FFF7CBFAA36A1BB104F11800FFF775
:10266000C5FAE36A01229A401A49086802430A60DF
:1026700003EB83039A00294617481044FFF792FAA8
:10268000E26A164B1B68DB6A9A42D4D2D4E7002771
:10269000D2E70E4B4FF0FF321A6007E00B4A13608F
:1026A00004E00F4A13680133136000270D4B1B68C9
:1026B00003B101273846F8BDC0290020402A002078
:1026C0004C29002050290020FC290020F829002056
:1026D00084420008CC2900205429002048290020E9
:1026E000BC290020442A002038B52F4B1B686BB151
:1026F000FFF7C4F82C4B1A68013A1A601B68002BCC
:102700004DD12A4B1B683BB9002449E040F28E6151
:102710002748FEF7F8FEEBE7264B1B681BB3254B5B
:10272000DB68DC6804F11800FFF760FA251D284615
:10273000FFF75CFAE06A012383401F4A11680B43EC
:10274000136000EB800029461C4B03EB8000FFF771
:1027500029FAE26A1A4B1B68DB6A9A42DCD3194BEE
:1027600001221A60D8E7184B1B684BB9154B1C683F
:10277000012C11D0002413E0134A1368013B1360AD
:10278000114B1B68002BF1D0FFF72EFF0028F3D070
:102790000C4B01221A60EFE7FFF74AF800E0002433
:1027A000FFF790F8204638BDC0290020B829002046
:1027B00084420008002A0020CC290020542900204F
:1027C00048290020442A0020BC290020134B1B6804
:1027D00013B310B5FFF7E0FE114B1C68FFF784FF41
:1027E00024B90E4B1B68002BF4D110BDFFF746F83F
:1027F0000B4BDB68DC68201DFFF7F8F9094A13680A
:10280000013B1360054A1368013B1360FFF75AF858
:102810002046FFF707FDE4E7704700BFC829002006
:102820002C2A0020B829002008B503E0FFF7ACFCF3
:10283000012808D8FFF7CAFF0E4B1B68012BF5D9FA
:10284000FEF7F6FFF2E7FFF7A7FE0B4B1A680B4BFC
:102850001B689A4208D3FFF797FC012801D9FFF7BC
:102860007BF8FFF741FFE5E74FF42D610448FEF7E1
:102870004AFEF0E754290020F8290020402A0020D1
:10288000844200082D4B1B681BB12D4B01221A609E
:10289000704710B52A4B00221A602A4B1A6812683A
:1028A0001B681B6B9A422DD9264B1B6814222649A4
:1028B000186B00F0EDFB60BB244B1C68B4FA84F489
:1028C000E4B2C4F11F0404EB8402214B53F822301C
:1028D00033B31F4A04EB840302EB8303596849684E
:1028E000596004EB84039B000833134499421DD0C4
:1028F00004EB8404164B03EB84046368DA68114B21
:102900001A6010BD0F4B186819683431FEF7FAFDD4
:10291000CAE70C4B186819683431FEF7F3FDCBE7B2
:1029200040F6C9010B48FEF7EEFDD2E7496804EB1B
:10293000840302EB83035960DAE700BFC02900205B
:10294000442A002048290020A0420008CC29002069
:10295000542900208442000838B50446FEF78EFF53
:1029600034B3251D2846FFF741F968B9E36A03EB44
:102970008301224A52F8212032B901229A4020498B
:102980000B6823EA02030B60A36A1BB104F1180071
:10299000FFF72CF929461B48FFF704F9FEF792FFD1
:1029A000194B1B68A34206D0184B1B68FBB938BDF6
:1029B000154B1C68D5E7154B1B685BB1144B1B68A6
:1029C00013B9FEF735FFF2E740F22E511148FEF73A
:1029D0009AFDF6E70B4B1A680F4B1B689A4203D11E
:1029E000094B00221A60E2E7FFF74CFFDFE7FEF732
:1029F00045FFFFF7E1FBFEF765FFD8E7542900200C
:102A0000CC290020182A002048290020142A002060
:102A1000C029002084420008B829002070B50C4667
:102A20000646E8B1154D296818313046FFF7C5F85C
:102A300028680430FFF7DAF848B92B68DA6A01230E
:102A400003FA02F20E490B6823EA02030B60B4F1A9
:102A5000FF3F0BD00B4B18682044FFF76FFC70BD95
:102A600040F6DB010848FEF74EFDDBE7034B196833
:102A700004310648FFF796F8F1E700BF4829002027
:102A8000CC290020402A002084420008182A002077
:102A9000F8B50D4614460746E0B1154E31681831B9
:102AA0003846FFF77FF830680430FFF79FF848B9E1
:102AB0003368DA6A012303FA02F20E490B6823EA4B
:102AC00002030B60012C0BD00B4B18682844FFF756
:102AD00035FCF8BD40F65A110848FEF714FDDCE756
:102AE000034B196804310648FFF75CF8F1E700BFB3
:102AF00048290020CC290020402A002084420008D8
:102B0000182A002038B5C368DC683CB304F1180506
:102B10002846FFF76BF8184B1B682BBB251D284672
:102B2000FFF764F8E06A01238340144A11680B43FD
:102B3000136000EB80002946114B03EB8000FFF788
:102B400031F8E26A0F4B1B68DB6A9A4211D9012403
:102B50000D4B1C60FFF730FB204638BD40F6B51129
:102B60000A48FEF7D0FCD1E729460948FFF71AF8D2
:102B7000E7E70024EEE700BFC0290020CC290020B1
:102B80005429002048290020442A002084420008BB
:102B9000002A002010B5044630B1064B1B682360A4
:102BA000054B1B68636010BD40F615210348FEF716
:102BB000AAFCF2E7FC290020402A002084420008F9
:102BC00038B50C460546B0B1DCB1FEF757FE174BE1
:102BD0001A682368B3F1FF3F21D0286814490968B7
:102BE000884202D0696891421ED96968501A8342AE
:102BF0000DD8012414E040F61F210E48FEF783FC97
:102C0000E2E74FF422610B48FEF77DFCDDE78A1A0C
:102C1000134423602846FFF7BDFF002400E0002492
:102C2000FEF750FE204638BD0124F9E7402A002077
:102C3000FC29002084420008014B01221A607047E1
:102C4000442A00200A4B1B685BB90A4B1B6853B926
:102C5000094B1A68094B1B68013B9A4205D00120B9
:102C6000704700207047002070470220704700BF67
:102C7000002A0020442A0020182A0020B829002019
:102C8000054B1B6833B1054B1B680BB10020704727
:102C90000220704701207047142A0020C02900201C
:102CA000064B1A681368B3FA83F35B09036013B920
:102CB000D368186870470020704700BF482A00207A
:102CC00008B54160006191420CD8D21A83699A42DA
:102CD00001D3012008BD011D094B1868FEF76DFFE7
:102CE0000020F7E79A4201D2994206D2011D054B16
:102CF0001868FEF762FF0020ECE70120EAE700BF5A
:102D00004C2A0020482A002038B5FEF7B7FD144BA6
:102D10001B6813B1FEF7D6FD38BD124D2846FEF7ED
:102D200033FF114C2046FEF72FFF104B1D60104B58
:102D30001C60002210210A20FFF734F8084B1860AD
:102D400038B1074B18680028E4D00A49FFF7E4F9C6
:102D5000E0E74FF444710848FEF7D5FBF1E700BF08
:102D60007C2A0020502A0020642A0020482A0020C3
:102D70004C2A0020CC420008B442000810B584B0B0
:102D8000FFF7C2FF0D4B1B68ABB100230393029307
:102D90000193032200924FF4807209490948FFF71A
:102DA000F7FA044620B94FF487710748FEF7ABFBEA
:102DB000204604B010BD0024F5E700BF7C2A0020A7
:102DC000D44200086D300008B442000830B585B028
:102DD0001C46134B1D6805B3009101920290052912
:102DE00013DCFFF74DFF022807D000231A4669467F
:102DF0000B480068FFF702F80DE00023089A6946C7
:102E000007480068FEF7FAFF05E0002322466946FE
:102E10002846FFF78FF805B030BD0020FBE700BF64
:102E20007C2A002070B582B0194B1B681A683AB32F
:102E3000DB681E68DC68251D2846FEF7D7FE636A3E
:102E400020469847E369012BEED1A36933449E42A3
:102E500007D26360246129460D4B1868FEF7ADFE6A
:102E6000E2E7002100910B4632462046FFF7AEFF15
:102E70000028D9D140F2F2210648FEF744FBD3E7FF
:102E8000054A106802490860136002B070BD00BFB7
:102E9000482A0020B44200084C2A002038B50546D4
:102EA000FFF782FB0446074B1B68834205D80023CB
:102EB0002B60044B1C60204638BDFFF7B3FF012395
:102EC0002B60F6E7782A002070B582B006460D46E2
:102ED000134B1B68DB68DC68201DFEF787FEE36987
:102EE000012B04D0636A2046984702B070BDA169E7
:102EF00033462A4631442046FFF7E2FE0128F1D14D
:102F0000002100910B4632462046FFF75FFF002864
:102F1000E8D14FF4C8710348FEF7F5FAE2E700BFC5
:102F2000482A0020B442000870B582B006460C461C
:102F3000FFF732FB01A8FFF7B1FF019BC3B90546BC
:102F40000CB9B0420AD22246711B0B4B1868FFF72E
:102F5000F7F8FFF7C9FB40B102B070BDFFF7C4FB43
:102F600029463046FFF7B0FFF6E7FEF761FCF3E7CE
:102F7000FFF7BAFBF0E700BF7C2A002030B589B02C
:102F800006E007990698059B9847049B002B0CDAEE
:102F900000231A4604A933480068FFF723F80028E5
:102FA0005DD0049B002BF0DAEBE7069C636913B15C
:102FB000201DFEF71BFE03A8FFF770FF0546049BCC
:102FC000092BE5D801A252F823F000BFF52F000825
:102FD000F52F0008F52F0008912F00083530000864
:102FE00057300008F52F0008F52F0008912F000832
:102FF00035300008059BA169024619442046FFF7B9
:103000005FFE0128C4D1636A20469847E369012B1B
:10301000BED1A269002100910B46059802442046CA
:10302000FFF7D4FE0028B3D140F296210E48FEF7F8
:103030006AFAADE7059BA3613BB1A1692B462A461D
:1030400029442046FFF73CFEA2E740F2AD210648A6
:10305000FEF759FAF1E72046FEF798FB98E709B02A
:1030600030BD00BF7C2A0020B442000800B583B008
:1030700001A8FFF715FE0199FFF756FFFFF77EFF46
:10308000F6E70000014B1868704700BF28000020D9
:10309000032A70B412D940EA0105AD0704460B4675
:1030A00020D11946204653F8045B54F8046BAE4215
:1030B00018D1043A032A20461946F2D8541E72B198
:1030C00003780A789A4208BF241806D00CE010F85A
:1030D000013F11F8012F934206D1A042F7D1002001
:1030E00070BC7047541EEBE7981A70BC704700BF65
:1030F000844641EA000313F003036DD1403A41D303
:1031000051F8043B40F8043B51F8043B40F8043BC1
:1031100051F8043B40F8043B51F8043B40F8043BB1
:1031200051F8043B40F8043B51F8043B40F8043BA1
:1031300051F8043B40F8043B51F8043B40F8043B91
:1031400051F8043B40F8043B51F8043B40F8043B81
:1031500051F8043B40F8043B51F8043B40F8043B71
:1031600051F8043B40F8043B51F8043B40F8043B61
:1031700051F8043B40F8043B51F8043B40F8043B51
:10318000403ABDD2303211D351F8043B40F8043BF1
:1031900051F8043B40F8043B51F8043B40F8043B31
:1031A00051F8043B40F8043B103AEDD20C3205D301
:1031B00051F8043B40F8043B043AF9D2043208D0F9
:1031C000D2071CBF11F8013B00F8013B01D30B886B
:1031D00003806046704700BF082A13D38B078DD049
:1031E00010F003038AD0C3F10403D21ADB071CBF1B
:1031F00011F8013B00F8013B80D331F8023B20F885
:10320000023B7BE7043AD9D3013A11F8013B00F8BD
:10321000013BF9D20B7803704B7843708B78837045
:1032200060467047F0B4860746D0541E002A3CD052
:10323000CAB2034602E014F1FF3436D303F8012B7F
:103240009D07F8D1032C29D9CDB245EA05250F2CCD
:1032500045EA054533D9A4F11006360903F12007E4
:1032600007EB061703F1100242E9045542E9025543
:103270001032BA42F8D1721C14F00C0F03EB021298
:1032800004F00F0613D0331F23F003030433134459
:1032900042F8045B9342FBD106F003042CB1C9B29F
:1032A0001C4403F8011B9C42FBD1F0BC7047344620
:1032B0001346002CF3D1F8E714460346C2E71A463A
:1032C0002646E0E7000000000000000000000000CB
:1032D00000000000000000000000000000000000EE
:1032E00000000000000000000000000000000000DE
:1032F00000000000000000000000000000000000CE
:1033000090F800F06DE9024520F007016FF0000C25
:1033100010F0070491F820F040F049804FF00004CD
:103320006FF00700D1E9002391F840F000F10800A8
:1033300082FA4CF2A4FA8CF283FA4CF3A2FA8CF3E0
:103340004BBBD1E9022382FA4CF200F10800A4FA47
:103350008CF283FA4CF3A2FA8CF3E3B9D1E904239B
:1033600082FA4CF200F10800A4FA8CF283FA4CF3D2
:10337000A2FA8CF37BB9D1E9062301F1200182FA8C
:103380004CF200F10800A4FA8CF283FA4CF3A2FA92
:103390008CF3002BC6D0002A04BF04301A4612BAA0
:1033A000B2FA82F2FDE8024500EBD2007047D1E9A3
:1033B000002304F00305C4F100004FEAC50514F032
:1033C000040F91F840F00CFA05F562EA05021CBF03
:1033D00063EA050362464FF00004A9E770B5141EC6
:1033E0009AB005462BDB1A464FF402730091049104
:1033F000ADF80C3013D0013C4FF6FF761E9B0294C3
:1034000069460594ADF80E6000F008F9421C01DA37
:103410008B232B60009B00221A701AB070BD1E9B7C
:1034200002944FF6FF7669460594ADF80E6000F001
:10343000F5F8431C01DA8B232B601AB070BD8B2387
:1034400003604FF0FF30F8E710B5054C82B00093F1
:1034500013460A4601462068FFF7C0FF02B010BDC0
:10346000280000202DE9F0478E681D46AE420C462C
:103470000B68174636D88046888910F4906F0ED1B5
:10348000354618462A46394600F03AFCA2682368B9
:10349000961B2B44A66023600020BDE8F087D1E98D
:1034A000041606EB4606A3EB010906EBD6766B1C69
:1034B00076104B44B342324684BF1E463246430523
:1034C00012D51146404600F0D9FC824600B34A4668
:1034D0002169FFF70DFEA38923F4906343F0800375
:1034E000A38106E02E46CCE7404600F02BFD824645
:1034F00050B1A6EB09020AEB09036661C4F810A0FB
:103500002360A2602E46BCE72169404600F060FCC3
:103510000C23C8F80030A38943F04003A3814FF087
:10352000FF30BAE72DE9F04F936883B09046002B47
:103530006DD017688D6882460C460868083743E0EE
:10354000A38913F4906F2ED0D4E9041505EB45053B
:10355000A0EB010B05EBD5750BEB06006D100130F0
:10356000A8422A4684BF05462A465B0536D5114641
:10357000504600F083FC00283AD05A462169019059
:10358000FFF7B6FDA289019B22F4906242F080020F
:10359000A281A5EB0B0203EB0B00656123612060A8
:1035A000A2603546B3465A46494600F0A9FBD8F812
:1035B0000830A2682068551B58449E1BA5602060F7
:1035C000C8F808601EB3083757E90296AB46002ECC
:1035D000F9D0AE42B4D23546B346E4E7504600F0E7
:1035E000B1FC03460028D4D12169504600F0F0FB1D
:1035F0000C23CAF80030A389002243F040034FF0A7
:10360000FF30A381C8E9012203B0BDE8F08F00209C
:10361000C8F8040003B0BDE8F08F00BF2DE9F04FFB
:1036200090468A899FB014068B46029003D50A699A
:10363000002A00F00B81059330238DF8323098F882
:1036400000308E4E002120220B918DF83120012771
:10365000002B00F08480252B00F0F680454603E027
:10366000252B00F0868025466B786C1C002BF7D14B
:10367000B4EB080A73D04246534659460298FFF706
:10368000F1FE01306BD00B9B6A7853440B93002AF8
:1036900065D000234FF0FF3201340693CDE90833A3
:1036A0008DF85B301C93079205E0069A07FA03F346
:1036B00013432C4606932546052215F8011B304678
:1036C00000F0CEFAAA46831B0028EED1069BD9064D
:1036D00044BF20228DF85B2021781A0744BF2B229B
:1036E0008DF85B202A2948D1059A116804320029F7
:1036F00005927EDB09916178A51C2E2956D0604C7D
:103700000322204600F0ACFA002868D0001B069B7C
:10371000402404FA00F00343069305F101082978D8
:1037200058488DF83010062200F09AFA002866D02A
:10373000554B002B56D005AB00935A46534B02987D
:1037400006A9AFF300808146B9F1FF3F07D00B9B7C
:103750004B440B9398F80030002B7FF47CAFBBF800
:103760000C305B0654BF0B984FF0FF301FB0BDE824
:10377000F08FB4EB080A8CD07DE7A1F13002092A62
:1037800088BFA246B9D8099B01E02C4601352978AB
:1037900003EB830302EB4303A1F13002092AAA469B
:1037A000F3D92E2904F102050993A8D19AF8011042
:1037B0002A292ED1059B9AF802101A680792043321
:1037C000002A05930AF103050AF1020337DB2C4CAA
:1037D000032220469A4600F043FA002896D1A846D4
:1037E00055469CE7059B073323F0070308330593F1
:1037F000ADE7494243F00203099106937BE705AB2D
:1038000000935A46214B029806A900F0D7F881464A
:103810009AE7A1F130020023092A079301D923E096
:103820005546697803EB830302EB4303A1F13002B1
:10383000092A05F1010AF3D9023507935FE74FF032
:10384000FF329A4607925AE7444622E74021039303
:1038500000F014FB039BCBF80000CBF8100030B154
:103860004022CBF81420E6E6AA46013547E7029A43
:103870000C2313604FF0FF3078E700BFDC420008F4
:10388000E4420008E8420008000000006534000837
:103890002DE9F0470C4691460A698968DDF82080D9
:1038A0008A42B8BF0A46C9F8002094F84310064679
:1038B0001F4611B10132C9F80020236899065CD572
:1038C000D9F800200232C9F80020236813F0060F4F
:1038D00019461DD1E1688A1A002AD8BF194617DD9A
:1038E00004F1190A002505E0E368D9F800209B1AC5
:1038F000AB420CDD0123524639463046C047013009
:1039000005F10105F0D14FF0FF30BDE8F0872168E7
:1039100094F84330003318BF01238A060AD5E11812
:103920005A1C302081F84300224494F8451082F854
:103930004310023304F1430239463046C047013098
:10394000E1D02368A268216903F00603042B1DD08F
:103950008A4226DD4FF00009521A91441A3400259C
:1039600001E04D451DDA0123224639463046C04765
:10397000013005F10105F4D1C5E713F0060F13D0AE
:1039800094F84330003318BF0123D3E7D9F800007F
:10399000E3688A42A3EB000323EAE379DCDC002B33
:1039A000DCDC0020BDE8F087E168D9F800208A1A45
:1039B000002AD8BF194693DCAAE700BF2DE9F043DF
:1039C0000C46097E85B06E29064617460C98984627
:1039D00004F1430E6DD039D9732900F0F68044D933
:1039E000752900F00481782940F01181782322683C
:1039F000DFF858C284F845300168150651F8043BD9
:103A0000016040F1A180D10744BF42F02002226052
:103A1000002B00F093801022002184F8431060688E
:103A2000A0600028C0F2C880216821F00401216054
:103A3000002B40F0A380002840F0C0807546082A83
:103A400000F0AC80AEEB0503236141E0632900F098
:103A5000E5801AD8002938D0582940F0D88084F859
:103A600045102268DFF8E8C1C6E76F2900F0BF8083
:103A7000702940F0CC802268DFF8D0C142F02002EB
:103A80007823226084F84530B6E7642902D069299A
:103A900040F0BD8022680368110603F1040557D584
:103AA000196805600B46002959DBDFF8A4C10A221A
:103AB000B5E70368226861691D1D056015061B686E
:103AC00002D4500600F1BD801960002375462361C1
:103AD000CDF800803B4603AA21463046FFF7D8FECA
:103AE000013020D02A46236939463046C04701308C
:103AF00019D022680398E368920719D51A1A002A88
:103B000016DD04F11909002504E0E36803981A1A88
:103B1000AA420DDD01234A4639463046C0470130EE
:103B200005F10105F1D14FF0FF3005B0BDE8F0839C
:103B30009842B8BF184605B0BDE8F083226822F06D
:103B400020022260102267E7500648BF9BB25AE766
:103B50005106A5D5B3F9003005601946A3E76168A1
:103B6000A1602D200029C3F1000384F8430002DB8B
:103B700022F004022260DFF8D8C00A22754600E075
:103B80000B46B3FBF2F102FB113093421CF800002C
:103B900005F8010DF4D2082A7FF454AF2368DB073F
:103BA0007FF550AF626823699A423FF74BAF3023ED
:103BB00005F8013C013D45E7002BDFD19CF80030C2
:103BC00084F8423004F1420539E703686268191D40
:103BD00001601D680021284600F042F8002832D01C
:103BE000401B60602061002384F8433070E7226846
:103BF000036812F0800F03F104051AD01B680560FA
:103C00006F290CBF08220A22DFF844C004E7012311
:103C100084F84210236104F14205E4E703681A685E
:103C2000191D0123016004F1420584F8422023613B
:103C3000D9E712F0400F0DBF1B6805601B880560B7
:103C4000DEE7198041E76068CCE700BF0443000865
:103C5000F04200080000000000000000000000002A
:103C600001F0FF01102A2BDB10F0070F08D010F82D
:103C7000013B013A8B422DD010F0070F42B3F6D131
:103C8000F0B441EA012141EA014122F007047FF04A
:103C900000070023F0E80256083C85EA010586EAA1
:103CA000010685FA47F5A3FA87F586FA47F6A5FADD
:103CB00087F68EB9EED1F0BC01F0FF0102F00702E9
:103CC00032B110F8013B013A83EA010313B1F8D194
:103CD0000020704701387047002D06BF3546033875
:103CE000073815F0010F07D1013015F4807F02BFAE
:103CF000013015F4C03F0130F0BC0138704700BFFF
:103D00008842F0B40DD98B1883420AD9841832B195
:103D1000224613F8014D02F8014D9942F9D1F0BC49
:103D200070470F2A0ED80346541E002AF7D00134DC
:103D30000C44013B11F8012B03F8012FA142F9D1EA
:103D4000F0BC704740EA01039B073BD1A2F110078A
:103D50003F0901F1200606EB071601F1100300F1FF
:103D6000100453F8105C44F8105C53F80C5C44F8F1
:103D70000C5C53F8085C44F8085C53F8045C44F8A5
:103D8000045C1033B34204F11004EAD17B1C1B0124
:103D900012F00C0F194402F00F05034415D0043D36
:103DA000AD0803EB850C1C1F0E4656F8047B44F847
:103DB000047F6445F9D10135AD002B44294402F05C
:103DC0000302B1E7541E0346B1E72A46ACE700BF41
:103DD00000293CD038B551F8043C0C1F002BB8BF6B
:103DE000E418054600F0E6F8234B1A682AB1A2420F
:103DF0000DD921686018824223D0626028461C6079
:103E0000BDE8384000F0D8B8A34203D81A4653683A
:103E1000002BF9D111685018A04219D024D821687C
:103E20006018834206D0636054602846BDE838407D
:103E300000F0C2B8D3E9000301446360216054601C
:103E4000F3E7D2E90002014462602160D6E77047DF
:103E500020680144501883421160E6D1D3E9000381
:103E6000014453601160E0E70C232B602846BDE855
:103E7000384000F0A1B800BF802A0020F8B5CD1C62
:103E800025F0030508350C2D38BF0C25002D0646FE
:103E900033DBA94231D82A4F00F08CF83A6852B18E
:103EA00013685B1B04D43FE023685B1B29D52246C3
:103EB0005468002CF8D1796800293BD02946304657
:103EC00000F066F8431C28D0C41C24F00304A04270
:103ED00005D0211A304600F05BF801301DD0256076
:103EE000304600F069F804F10B0020F00700231DB4
:103EF000C21A01D01B1AA350F8BD0C223260002058
:103F0000F8BD0B2B05D8A242636811D05360E7E7D8
:103F1000144623601C442560E2E70C2330463360DE
:103F200000F04AF80020F8BD0B2BF1D85368144676
:103F30003B60D5E7304600F02BF87860BEE700BF65
:103F4000802A002009B3F8B51446CAB106460D46CA
:103F500000F034F8A04202D32F463846F8BD21467F
:103F60003046FFF78BFF07460028F6D02246294649
:103F7000FFF7BEF830462946FFF72AFF3846F8BD5E
:103F80002746FFF725FF3846F8BD1146FFF776BFF5
:103F900038B5074C0023054608462360FDF734F981
:103FA000431C00D038BD2368002BFBD02B6038BDEC
:103FB000882A0020704700BF704700BF51F8043CBA
:103FC000181F002BBCBF0B58C01870472E2E2F7324
:103FD000797374656D2F7372632F73746D333266EA
:103FE000342D68616C2F73746D3332663478785F6A
:103FF00068616C5F636F727465782E630000000007
:104000002E2E2F73797374656D2F7372632F7374F3
:104010006D333266342D68616C2F73746D33326684
:104020003478785F68616C5F6770696F2E63000039
:104030002E2E2F73797374656D2F7372632F7374C3
:104040006D333266342D68616C2F73746D33326654
:104050003478785F68616C5F7263632E6300000080
:10406000000000000102030401020304060708091E
:1040700061626F727428292C2065786974696E6793
:104080002E2E2E006173736572745F706172616DA4
:104090002829206661696C65643A2066696C652030
:1040A000222573222C206C696E652025640A00008D
:1040B000537461636B206672616D653A0A0000009B
:1040C000205230203D2020253038580A00000000C2
:1040D000205231203D2020253038580A00000000B1
:1040E000205232203D2020253038580A00000000A0
:1040F000205233203D2020253038580A000000008F
:1041000020523132203D20253038580A000000006E
:10411000204C52203D2020253038580A0000000055
:10412000205043203D2020253038580A0000000050
:1041300020505352203D20253038580A00000000FE
:104140004653522F4641523A0A000000204346533C
:1041500052203D2020253038580A00002048465380
:1041600052203D2020253038580A00002044465374
:1041700052203D2020253038580A00002041465367
:1041800052203D2020253038580A0000204D4D4651
:104190004152203D20253038580A00002042464137
:1041A00052203D2020253038580A00004D697363A5
:1041B0000A000000204C522F4558435F5245545589
:1041C000524E3D20253038580A0000005B4861728D
:1041D000644661756C745D0A000000005B42757393
:1041E0004661756C745D0A005B5573616765466175
:1041F000756C745D0A000000410A000064656C740F
:10420000612025750925750A0000000048656C6C61
:104210006F2041524D20576F726C642100000000E6
:1042200053797374656D20636C6F636B3A202575E9
:1042300020487A0A000000007461736B410000009E
:104240007461736B420000002E2E2F6672656572DA
:10425000746F732F706F727461626C652F47434384
:104260002F41524D5F434D332F706F72742E630098
:104270002E2E2F6672656572746F732F717565755A
:10428000652E63002E2E2F6672656572746F732F14
:104290007461736B732E630049444C450000000049
:1042A000A5A5A5A5A5A5A5A5A5A5A5A5A5A5A5A5BE
:1042B000A5A5A5A52E2E2F6672656572746F732F46
:1042C00074696D6572732E6300000000546D725145
:1042D00000000000546D722053766300232D302BB4
:1042E00020000000686C4C0065666745464700008A
:1042F000303132333435363738394142434445461C
:1043000000000000303132333435363738396162DD
:05431000636465660016
:10431800785634129C0000200000000000000000C5
:104328000000000001020304060708090024F40045
:10433800F8270000AAAAAAAA2C0000200000000062
:104348000000000000000000000000000000000065
:104358000000000000000000000000000000000055
:104368000000000000000000000000000000000045
:104378000000000000000000000000000000000035
:104388000000000000000000000000000000000025
:104398000000000000000000000000003254769881
:040000050800018965
:00000001FF
